{
  "contractName": "Accounts",
  "abi": [
    {
      "constant": true,
      "inputs": [
        {
          "name": "_address",
          "type": "address"
        }
      ],
      "name": "isRegistered",
      "outputs": [
        {
          "name": "",
          "type": "bool"
        }
      ],
      "payable": false,
      "stateMutability": "view",
      "type": "function",
      "signature": "0xc3c5a547"
    },
    {
      "constant": false,
      "inputs": [
        {
          "name": "_address",
          "type": "address"
        },
        {
          "name": "mail",
          "type": "bytes32"
        }
      ],
      "name": "register",
      "outputs": [],
      "payable": false,
      "stateMutability": "nonpayable",
      "type": "function",
      "signature": "0x1e7a505f"
    },
    {
      "constant": true,
      "inputs": [
        {
          "name": "_address",
          "type": "address"
        }
      ],
      "name": "getUser",
      "outputs": [
        {
          "name": "",
          "type": "bytes32"
        },
        {
          "name": "",
          "type": "bool"
        }
      ],
      "payable": false,
      "stateMutability": "view",
      "type": "function",
      "signature": "0x6f77926b"
    }
  ],
  "bytecode": "0x608060405234801561001057600080fd5b5061064b806100206000396000f3fe608060405260043610610057576000357c0100000000000000000000000000000000000000000000000000000000900463ffffffff1680631e7a505f1461005c5780636f77926b146100b7578063c3c5a54714610127575b600080fd5b34801561006857600080fd5b506100b56004803603604081101561007f57600080fd5b81019080803573ffffffffffffffffffffffffffffffffffffffff16906020019092919080359060200190929190505050610190565b005b3480156100c357600080fd5b50610106600480360360208110156100da57600080fd5b81019080803573ffffffffffffffffffffffffffffffffffffffff169060200190929190505050610367565b60405180838152602001821515151581526020019250505060405180910390f35b34801561013357600080fd5b506101766004803603602081101561014a57600080fd5b81019080803573ffffffffffffffffffffffffffffffffffffffff169060200190929190505050610555565b604051808215151515815260200191505060405180910390f35b6000151561019d83610555565b1515141515610214576040517f08c379a00000000000000000000000000000000000000000000000000000000081526004018080602001828103825260178152602001807f5573657220616c7265616479207265676973746572656400000000000000000081525060200191505060405180910390fd5b80600160008473ffffffffffffffffffffffffffffffffffffffff1673ffffffffffffffffffffffffffffffffffffffff1681526020019081526020016000206000018190555060018060008473ffffffffffffffffffffffffffffffffffffffff1673ffffffffffffffffffffffffffffffffffffffff16815260200190815260200160002060010160006101000a81548160ff021916908315150217905550600160008390806001815401808255809150509060018203906000526020600020016000909192909190916101000a81548173ffffffffffffffffffffffffffffffffffffffff021916908373ffffffffffffffffffffffffffffffffffffffff16021790555003600160008473ffffffffffffffffffffffffffffffffffffffff1673ffffffffffffffffffffffffffffffffffffffff168152602001908152602001600020600201819055505050565b600080600115153073ffffffffffffffffffffffffffffffffffffffff1663c3c5a547856040518263ffffffff167c0100000000000000000000000000000000000000000000000000000000028152600401808273ffffffffffffffffffffffffffffffffffffffff1673ffffffffffffffffffffffffffffffffffffffff16815260200191505060206040518083038186803b15801561040757600080fd5b505afa15801561041b573d6000803e3d6000fd5b505050506040513d602081101561043157600080fd5b810190808051906020019092919050505015151415156104b9576040517f08c379a000000000000000000000000000000000000000000000000000000000815260040180806020018281038252600e8152602001807f55736572206e6f7420666f756e6400000000000000000000000000000000000081525060200191505060405180910390fd5b600160008473ffffffffffffffffffffffffffffffffffffffff1673ffffffffffffffffffffffffffffffffffffffff16815260200190815260200160002060000154600160008573ffffffffffffffffffffffffffffffffffffffff1673ffffffffffffffffffffffffffffffffffffffff16815260200190815260200160002060010160009054906101000a900460ff1691509150915091565b600080600080549050141561056d576000905061061a565b8173ffffffffffffffffffffffffffffffffffffffff166000600160008573ffffffffffffffffffffffffffffffffffffffff1673ffffffffffffffffffffffffffffffffffffffff168152602001908152602001600020600201548154811015156105d557fe5b9060005260206000200160009054906101000a900473ffffffffffffffffffffffffffffffffffffffff1673ffffffffffffffffffffffffffffffffffffffff161490505b91905056fea165627a7a723058206371758cc11b93d0ebf7679b4126132bf14b707421f2b9818026c50514ef05e90029",
  "source": "pragma solidity ^0.5.0;\r\n// uguale ad Accounts, ma con nomi differenti\r\n\r\ncontract Accounts {\r\n\r\n    // Struct to store the email and userType of user\r\n    struct User {\r\n        bytes32 email;\r\n        bool active;\r\n        uint index;\r\n    }\r\n\r\n    // Array of addresses, in it is going to be saved the address of a user\r\n    // the same address is used to access the map addressToUser, that contains User structs\r\n    address[] private addresses;\r\n\r\n    mapping(address => User) private addressToUser;\r\n\r\n    // Function to check if a given address is mapped to an account\r\n    function isRegistered(address _address) public view returns (bool) {\r\n      if(addresses.length == 0) {\r\n        return false;\r\n      }\r\n      return(addresses[addressToUser[_address].index] == _address);\r\n\r\n    }\r\n\r\n    function register(address _address, bytes32 mail) public {\r\n        require(isRegistered(_address) == false, \"User already registered\");\r\n        addressToUser[_address].email = mail;\r\n        addressToUser[_address].active = true;\r\n        addressToUser[_address].index = addresses.push(_address) - 1;\r\n    }\r\n\r\n    function getUser(address _address) public view returns (bytes32, bool) {\r\n        require(this.isRegistered(_address) == true, \"User not found\");\r\n        return (addressToUser[_address].email, addressToUser[_address].active);\r\n    }\r\n}\r\n",
  "sourcePath": "C:/Users/Greggio/Documents/Giacomo unive/Informatica/III Anno/SWE/Soldino-PoC/contracts/Accounts.sol",
  "compiler": {
    "name": "solc",
    "version": "0.5.0+commit.1d4f565a.Emscripten.clang"
  },
  "schemaVersion": "3.0.2",
  "updatedAt": "2019-03-04T22:43:17.693Z",
  "devdoc": {
    "methods": {}
  },
  "userdoc": {
    "methods": {}
  }
}