{
  "contractName": "Accounts",
  "abi": [
    {
      "constant": true,
      "inputs": [
        {
          "name": "_address",
          "type": "address"
        }
      ],
      "name": "isRegistered",
      "outputs": [
        {
          "name": "",
          "type": "bool"
        }
      ],
      "payable": false,
      "stateMutability": "view",
      "type": "function"
    },
    {
      "constant": false,
      "inputs": [
        {
          "name": "_address",
          "type": "address"
        },
        {
          "name": "_mail",
          "type": "bytes32"
        },
        {
          "name": "_vat",
          "type": "bytes32"
        },
        {
          "name": "_sede",
          "type": "bytes32"
        },
        {
          "name": "_name",
          "type": "bytes32"
        }
      ],
      "name": "register",
      "outputs": [
        {
          "name": "",
          "type": "bool"
        }
      ],
      "payable": false,
      "stateMutability": "nonpayable",
      "type": "function"
    },
    {
      "constant": true,
      "inputs": [
        {
          "name": "_address",
          "type": "address"
        }
      ],
      "name": "getUser",
      "outputs": [
        {
          "name": "",
          "type": "bytes32"
        },
        {
          "name": "",
          "type": "bool"
        }
      ],
      "payable": false,
      "stateMutability": "view",
      "type": "function"
    }
  ],
  "bytecode": "0x608060405234801561001057600080fd5b5061078c806100206000396000f3fe608060405234801561001057600080fd5b506004361061005e576000357c0100000000000000000000000000000000000000000000000000000000900480634655c0d0146100635780636f77926b146100e7578063c3c5a5471461014a575b600080fd5b6100cd600480360360a081101561007957600080fd5b81019080803573ffffffffffffffffffffffffffffffffffffffff169060200190929190803590602001909291908035906020019092919080359060200190929190803590602001909291905050506101a6565b604051808215151515815260200191505060405180910390f35b610129600480360360208110156100fd57600080fd5b81019080803573ffffffffffffffffffffffffffffffffffffffff1690602001909291905050506104bf565b60405180838152602001821515151581526020019250505060405180910390f35b61018c6004803603602081101561016057600080fd5b81019080803573ffffffffffffffffffffffffffffffffffffffff1690602001909291905050506106ad565b604051808215151515815260200191505060405180910390f35b60008015156101b4876106ad565b151514151561022b576040517f08c379a00000000000000000000000000000000000000000000000000000000081526004018080602001828103825260178152602001807f5573657220616c7265616479207265676973746572656400000000000000000081525060200191505060405180910390fd5b83600160008873ffffffffffffffffffffffffffffffffffffffff1673ffffffffffffffffffffffffffffffffffffffff1681526020019081526020016000206001018190555082600160008873ffffffffffffffffffffffffffffffffffffffff1673ffffffffffffffffffffffffffffffffffffffff1681526020019081526020016000206002018190555081600160008873ffffffffffffffffffffffffffffffffffffffff1673ffffffffffffffffffffffffffffffffffffffff1681526020019081526020016000206003018190555084600160008873ffffffffffffffffffffffffffffffffffffffff1673ffffffffffffffffffffffffffffffffffffffff1681526020019081526020016000206000018190555060018060008873ffffffffffffffffffffffffffffffffffffffff1673ffffffffffffffffffffffffffffffffffffffff16815260200190815260200160002060040160006101000a81548160ff021916908360018111156103a557fe5b021790555060018060008873ffffffffffffffffffffffffffffffffffffffff1673ffffffffffffffffffffffffffffffffffffffff16815260200190815260200160002060040160016101000a81548160ff021916908315150217905550600160008790806001815401808255809150509060018203906000526020600020016000909192909190916101000a81548173ffffffffffffffffffffffffffffffffffffffff021916908373ffffffffffffffffffffffffffffffffffffffff16021790555003600160008873ffffffffffffffffffffffffffffffffffffffff1673ffffffffffffffffffffffffffffffffffffffff168152602001908152602001600020600501819055506001905095945050505050565b600080600115153073ffffffffffffffffffffffffffffffffffffffff1663c3c5a547856040518263ffffffff167c0100000000000000000000000000000000000000000000000000000000028152600401808273ffffffffffffffffffffffffffffffffffffffff1673ffffffffffffffffffffffffffffffffffffffff16815260200191505060206040518083038186803b15801561055f57600080fd5b505afa158015610573573d6000803e3d6000fd5b505050506040513d602081101561058957600080fd5b81019080805190602001909291905050501515141515610611576040517f08c379a000000000000000000000000000000000000000000000000000000000815260040180806020018281038252600e8152602001807f55736572206e6f7420666f756e6400000000000000000000000000000000000081525060200191505060405180910390fd5b600160008473ffffffffffffffffffffffffffffffffffffffff1673ffffffffffffffffffffffffffffffffffffffff16815260200190815260200160002060000154600160008573ffffffffffffffffffffffffffffffffffffffff1673ffffffffffffffffffffffffffffffffffffffff16815260200190815260200160002060040160019054906101000a900460ff1691509150915091565b60008173ffffffffffffffffffffffffffffffffffffffff166000600160008573ffffffffffffffffffffffffffffffffffffffff1673ffffffffffffffffffffffffffffffffffffffff1681526020019081526020016000206005015481548110151561071757fe5b9060005260206000200160009054906101000a900473ffffffffffffffffffffffffffffffffffffffff1673ffffffffffffffffffffffffffffffffffffffff1614905091905056fea165627a7a72305820710f3f26b0460f757c669a431ee3f962851978f53a690d903c06ab21d49aa0800029",
  "source": "pragma solidity ^0.5.0;\n// uguale ad Accounts, ma con nomi differenti\n\ncontract Accounts {\n    enum UserType {Cit, Bus}\n    \n    // Struct to store the email and userType of user\n    struct User {\n        bytes32 email;\n        bytes32 VATNumber;\n        bytes32 sede;\n        bytes32 name;\n        UserType typeUs;\n        bool active;\n        uint index;\n    }\n\n    // Array of addresses, in it is going to be saved the address of a user\n    // the same address is used to access the map addressToUser, that contains User structs\n    address[] private addresses;\n\n    mapping(address => User) private addressToUser;\n\n    // Function to check if a given address is mapped to an account\n    function isRegistered(address _address) public view returns (bool) {\n        return(addresses[addressToUser[_address].index] == _address);\n    }\n\n    function register(address _address, bytes32 _mail, \n        bytes32 _vat, bytes32 _sede, bytes32 _name) public returns (bool) {\n        require(isRegistered(_address) == false, \"User already registered\");\n        addressToUser[_address].VATNumber = _vat;\n        addressToUser[_address].sede = _sede;\n        addressToUser[_address].name = _name;\n        addressToUser[_address].email = _mail;\n        addressToUser[_address].typeUs = UserType.Bus;\n        addressToUser[_address].active = true;\n        addressToUser[_address].index = addresses.push(_address) - 1;\n        return true;\n    }\n    \n    function getUser(address _address) public view returns (bytes32, bool) {\n        require(this.isRegistered(_address) == true, \"User not found\");\n        return (addressToUser[_address].email, addressToUser[_address].active);\n    }\n}\n",
  "sourcePath": "/home/samuele/Desktop/Soldino-PoC/contracts/Accounts.sol",
  "compiler": {
    "name": "solc",
    "version": "0.5.4+commit.9549d8ff.Emscripten.clang"
  },
  "schemaVersion": "3.0.0-beta.2",
  "updatedAt": "2019-03-21T10:47:50.926Z",
  "devdoc": {
    "methods": {}
  },
  "userdoc": {
    "methods": {}
  }
}