{
  "contractName": "BusinessStorage",
  "abi": [
    {
      "constant": true,
      "inputs": [
        {
          "name": "_userAddress",
          "type": "address"
        }
      ],
      "name": "getName",
      "outputs": [
        {
          "name": "",
          "type": "bytes32"
        }
      ],
      "payable": false,
      "stateMutability": "view",
      "type": "function"
    },
    {
      "constant": true,
      "inputs": [
        {
          "name": "_userAddress",
          "type": "address"
        }
      ],
      "name": "getEmail",
      "outputs": [
        {
          "name": "",
          "type": "bytes32"
        }
      ],
      "payable": false,
      "stateMutability": "view",
      "type": "function"
    },
    {
      "constant": true,
      "inputs": [
        {
          "name": "_userAddress",
          "type": "address"
        }
      ],
      "name": "getDeliveryAddressaddress",
      "outputs": [
        {
          "name": "",
          "type": "bytes32"
        }
      ],
      "payable": false,
      "stateMutability": "view",
      "type": "function"
    },
    {
      "constant": true,
      "inputs": [
        {
          "name": "_userAddress",
          "type": "address"
        }
      ],
      "name": "getActive",
      "outputs": [
        {
          "name": "",
          "type": "bool"
        }
      ],
      "payable": false,
      "stateMutability": "view",
      "type": "function"
    },
    {
      "constant": false,
      "inputs": [
        {
          "name": "_userAddress",
          "type": "address"
        },
        {
          "name": "_name",
          "type": "bytes32"
        }
      ],
      "name": "setName",
      "outputs": [],
      "payable": false,
      "stateMutability": "nonpayable",
      "type": "function"
    },
    {
      "constant": false,
      "inputs": [
        {
          "name": "_userAddress",
          "type": "address"
        },
        {
          "name": "_email",
          "type": "bytes32"
        }
      ],
      "name": "setEmail",
      "outputs": [],
      "payable": false,
      "stateMutability": "nonpayable",
      "type": "function"
    },
    {
      "constant": false,
      "inputs": [
        {
          "name": "_userAddress",
          "type": "address"
        },
        {
          "name": "_devAddress",
          "type": "bytes32"
        }
      ],
      "name": "setDeliveryAddress",
      "outputs": [],
      "payable": false,
      "stateMutability": "nonpayable",
      "type": "function"
    },
    {
      "constant": false,
      "inputs": [
        {
          "name": "_userAddress",
          "type": "address"
        },
        {
          "name": "_vatNumber",
          "type": "bytes32"
        }
      ],
      "name": "setVATNumber",
      "outputs": [],
      "payable": false,
      "stateMutability": "nonpayable",
      "type": "function"
    },
    {
      "constant": false,
      "inputs": [
        {
          "name": "_userAddress",
          "type": "address"
        },
        {
          "name": "_active",
          "type": "bool"
        }
      ],
      "name": "setActive",
      "outputs": [],
      "payable": false,
      "stateMutability": "nonpayable",
      "type": "function"
    },
    {
      "constant": true,
      "inputs": [],
      "name": "getBusinessListLength",
      "outputs": [
        {
          "name": "",
          "type": "uint256"
        }
      ],
      "payable": false,
      "stateMutability": "view",
      "type": "function"
    },
    {
      "constant": true,
      "inputs": [
        {
          "name": "_userAddress",
          "type": "address"
        }
      ],
      "name": "getAddressAt",
      "outputs": [
        {
          "name": "",
          "type": "address"
        }
      ],
      "payable": false,
      "stateMutability": "view",
      "type": "function"
    },
    {
      "constant": false,
      "inputs": [
        {
          "name": "_userAddress",
          "type": "address"
        }
      ],
      "name": "pushToBusinessList",
      "outputs": [],
      "payable": false,
      "stateMutability": "nonpayable",
      "type": "function"
    }
  ],
  "bytecode": "0x608060405234801561001057600080fd5b506108ea806100206000396000f3fe608060405234801561001057600080fd5b50600436106100d1576000357c010000000000000000000000000000000000000000000000000000000090048063c8b238581161008e578063c8b23858146102c6578063cfee4d6b1461030a578063d4bc088914610358578063daea3e3a146103a6578063ddc9f37314610402578063e5252e7514610450576100d1565b80632c4ba883146100d65780632ce962cf146100f457806335fe620f1461014457806344a39b87146101925780634fa7353c146102165780635fd4b08a1461026e575b600080fd5b6100de6104a8565b6040518082815260200191505060405180910390f35b6101426004803603604081101561010a57600080fd5b81019080803573ffffffffffffffffffffffffffffffffffffffff1690602001909291908035151590602001909291905050506104b4565b005b6101906004803603604081101561015a57600080fd5b81019080803573ffffffffffffffffffffffffffffffffffffffff16906020019092919080359060200190929190505050610512565b005b6101d4600480360360208110156101a857600080fd5b81019080803573ffffffffffffffffffffffffffffffffffffffff16906020019092919050505061055d565b604051808273ffffffffffffffffffffffffffffffffffffffff1673ffffffffffffffffffffffffffffffffffffffff16815260200191505060405180910390f35b6102586004803603602081101561022c57600080fd5b81019080803573ffffffffffffffffffffffffffffffffffffffff1690602001909291905050506105e1565b6040518082815260200191505060405180910390f35b6102b06004803603602081101561028457600080fd5b81019080803573ffffffffffffffffffffffffffffffffffffffff16906020019092919050505061062d565b6040518082815260200191505060405180910390f35b610308600480360360208110156102dc57600080fd5b81019080803573ffffffffffffffffffffffffffffffffffffffff169060200190929190505050610679565b005b6103566004803603604081101561032057600080fd5b81019080803573ffffffffffffffffffffffffffffffffffffffff169060200190929190803590602001909291905050506106ed565b005b6103a46004803603604081101561036e57600080fd5b81019080803573ffffffffffffffffffffffffffffffffffffffff16906020019092919080359060200190929190505050610738565b005b6103e8600480360360208110156103bc57600080fd5b81019080803573ffffffffffffffffffffffffffffffffffffffff169060200190929190505050610783565b604051808215151515815260200191505060405180910390f35b61044e6004803603604081101561041857600080fd5b81019080803573ffffffffffffffffffffffffffffffffffffffff169060200190929190803590602001909291905050506107dc565b005b6104926004803603602081101561046657600080fd5b81019080803573ffffffffffffffffffffffffffffffffffffffff169060200190929190505050610827565b6040518082815260200191505060405180910390f35b60008080549050905090565b80600160008473ffffffffffffffffffffffffffffffffffffffff1673ffffffffffffffffffffffffffffffffffffffff16815260200190815260200160002060040160006101000a81548160ff0219169083151502179055505050565b80600160008473ffffffffffffffffffffffffffffffffffffffff1673ffffffffffffffffffffffffffffffffffffffff168152602001908152602001600020600201819055505050565b600080600160008473ffffffffffffffffffffffffffffffffffffffff1673ffffffffffffffffffffffffffffffffffffffff168152602001908152602001600020600501548154811015156105af57fe5b9060005260206000200160009054906101000a900473ffffffffffffffffffffffffffffffffffffffff169050919050565b6000600160008373ffffffffffffffffffffffffffffffffffffffff1673ffffffffffffffffffffffffffffffffffffffff168152602001908152602001600020600001549050919050565b6000600160008373ffffffffffffffffffffffffffffffffffffffff1673ffffffffffffffffffffffffffffffffffffffff168152602001908152602001600020600201549050919050565b6106ea81600160008490806001815401808255809150509060018203906000526020600020016000909192909190916101000a81548173ffffffffffffffffffffffffffffffffffffffff021916908373ffffffffffffffffffffffffffffffffffffffff16021790555003610873565b50565b80600160008473ffffffffffffffffffffffffffffffffffffffff1673ffffffffffffffffffffffffffffffffffffffff168152602001908152602001600020600301819055505050565b80600160008473ffffffffffffffffffffffffffffffffffffffff1673ffffffffffffffffffffffffffffffffffffffff168152602001908152602001600020600001819055505050565b6000600160008373ffffffffffffffffffffffffffffffffffffffff1673ffffffffffffffffffffffffffffffffffffffff16815260200190815260200160002060040160009054906101000a900460ff169050919050565b80600160008473ffffffffffffffffffffffffffffffffffffffff1673ffffffffffffffffffffffffffffffffffffffff168152602001908152602001600020600101819055505050565b6000600160008373ffffffffffffffffffffffffffffffffffffffff1673ffffffffffffffffffffffffffffffffffffffff168152602001908152602001600020600101549050919050565b80600160008473ffffffffffffffffffffffffffffffffffffffff1673ffffffffffffffffffffffffffffffffffffffff16815260200190815260200160002060050181905550505056fea165627a7a72305820bf913d0332923f8e66e628d347a9d9cd57c721ffa9970f289d9862fd3c77dd6f0029",
  "source": "pragma solidity ^0.5.0;\n\n\n/**\n* Created: 2019-03-13\n* Modified: 2019-03-20\n* @author Mattia\n* @title Business contract\n* @dev This contract define the storage for the business-type user\n*/\ncontract BusinessStorage {\n    // The struct defines the characteristics of a business user\n    struct Business {\n        bytes32 email;\n        bytes32 deliveryAddress;\n        bytes32 name;\n        bytes32 vatNumber;\n        bool active;\n        uint index;\n    }\n\n    /*\n    * This array is needed in order to verify if a user is registered\n    */\n    address[] internal businessList;\n    /*\n    * The map addressToBusiness maps an addresso to a struct.\n    * The key of the map is the user address (account address in Metamask)\n    * The value of the map is a Business struct\n    */\n    mapping(address => Business) addressToBusiness;\n\n    function getName(address _userAddress) public view returns (bytes32) {\n        return addressToBusiness[_userAddress].name;\n    }\n\n    function getEmail(address _userAddress) public view returns (bytes32) {\n        return addressToBusiness[_userAddress].email;\n    }\n\n    function getDeliveryAddressaddress (address _userAddress) public view returns (bytes32) {\n        return addressToBusiness[_userAddress].deliveryAddress;\n    }\n\n    function getActive(address _userAddress) public view returns (bool) {\n        return addressToBusiness[_userAddress].active;\n    }\n\n    //******* SETTERS ********\n    function setName(address _userAddress, bytes32 _name) public {\n        addressToBusiness[_userAddress].name = _name;\n    }\n\n    function setEmail(address _userAddress, bytes32 _email) public {\n        addressToBusiness[_userAddress].email = _email;\n    }\n\n    function setDeliveryAddress(address _userAddress, bytes32  _devAddress) public {\n        addressToBusiness[_userAddress].deliveryAddress = _devAddress;\n    }\n\n    function setVATNumber(address _userAddress, bytes32 _vatNumber) public {\n        addressToBusiness[_userAddress].vatNumber = _vatNumber;\n    }\n\n    function setIndex(address _userAddress, uint _index) private {\n        addressToBusiness[_userAddress].index = _index;\n    }\n\n    function setActive(address _userAddress, bool _active) public {\n        addressToBusiness[_userAddress].active = _active;\n    }\n\n    function getBusinessListLength() public view returns (uint){\n        return businessList.length;\n    }\n\n    function getAddressAt(address _userAddress) public view returns (address) {\n        return businessList[addressToBusiness[_userAddress].index];\n    }\n\n     function pushToBusinessList(address _userAddress) public {\n        setIndex(_userAddress, businessList.push(_userAddress) - 1);\n    }\n}\n",
  "sourcePath": "/home/samuele/Desktop/Soldino-PoC/contracts/BusinessStorage.sol",
  "compiler": {
    "name": "solc",
    "version": "0.5.4+commit.9549d8ff.Emscripten.clang"
  },
  "schemaVersion": "3.0.0-beta.2",
  "updatedAt": "2019-03-23T19:35:52.068Z",
  "devdoc": {
    "author": "Mattia",
    "details": "This contract define the storage for the business-type user",
    "methods": {},
    "title": "Business contract"
  },
  "userdoc": {
    "methods": {},
    "notice": "Created: 2019-03-13 Modified: 2019-03-20"
  }
}