{
  "contractName": "BusinessStorage",
  "abi": [
    {
      "constant": true,
      "inputs": [
        {
          "name": "_userAddress",
          "type": "address"
        }
      ],
      "name": "getName",
      "outputs": [
        {
          "name": "",
          "type": "bytes32"
        }
      ],
      "payable": false,
      "stateMutability": "view",
      "type": "function"
    },
    {
      "constant": true,
      "inputs": [
        {
          "name": "_userAddress",
          "type": "address"
        }
      ],
      "name": "getEmail",
      "outputs": [
        {
          "name": "",
          "type": "bytes32"
        }
      ],
      "payable": false,
      "stateMutability": "view",
      "type": "function"
    },
    {
      "constant": true,
      "inputs": [
        {
          "name": "_userAddress",
          "type": "address"
        }
      ],
      "name": "getDeliveryAddressaddress",
      "outputs": [
        {
          "name": "",
          "type": "bytes32"
        }
      ],
      "payable": false,
      "stateMutability": "view",
      "type": "function"
    },
    {
      "constant": true,
      "inputs": [
        {
          "name": "_userAddress",
          "type": "address"
        }
      ],
      "name": "getActive",
      "outputs": [
        {
          "name": "",
          "type": "bool"
        }
      ],
      "payable": false,
      "stateMutability": "view",
      "type": "function"
    },
    {
      "constant": false,
      "inputs": [
        {
          "name": "_userAddress",
          "type": "address"
        },
        {
          "name": "_name",
          "type": "bytes32"
        }
      ],
      "name": "setName",
      "outputs": [],
      "payable": false,
      "stateMutability": "nonpayable",
      "type": "function"
    },
    {
      "constant": false,
      "inputs": [
        {
          "name": "_userAddress",
          "type": "address"
        },
        {
          "name": "_email",
          "type": "bytes32"
        }
      ],
      "name": "setEmail",
      "outputs": [],
      "payable": false,
      "stateMutability": "nonpayable",
      "type": "function"
    },
    {
      "constant": false,
      "inputs": [
        {
          "name": "_userAddress",
          "type": "address"
        },
        {
          "name": "_devAddress",
          "type": "bytes32"
        }
      ],
      "name": "setDeliveryAddress",
      "outputs": [],
      "payable": false,
      "stateMutability": "nonpayable",
      "type": "function"
    },
    {
      "constant": false,
      "inputs": [
        {
          "name": "_userAddress",
          "type": "address"
        },
        {
          "name": "_vatNumber",
          "type": "bytes32"
        }
      ],
      "name": "setVATNumber",
      "outputs": [],
      "payable": false,
      "stateMutability": "nonpayable",
      "type": "function"
    },
    {
      "constant": false,
      "inputs": [
        {
          "name": "_userAddress",
          "type": "address"
        },
        {
          "name": "_index",
          "type": "uint256"
        }
      ],
      "name": "setIndex",
      "outputs": [],
      "payable": false,
      "stateMutability": "nonpayable",
      "type": "function"
    },
    {
      "constant": false,
      "inputs": [
        {
          "name": "_userAddress",
          "type": "address"
        },
        {
          "name": "_active",
          "type": "bool"
        }
      ],
      "name": "setActive",
      "outputs": [],
      "payable": false,
      "stateMutability": "nonpayable",
      "type": "function"
    },
    {
      "constant": true,
      "inputs": [],
      "name": "getBusinessListLength",
      "outputs": [
        {
          "name": "",
          "type": "uint256"
        }
      ],
      "payable": false,
      "stateMutability": "view",
      "type": "function"
    },
    {
      "constant": true,
      "inputs": [
        {
          "name": "_userAddress",
          "type": "address"
        }
      ],
      "name": "getAddressAt",
      "outputs": [
        {
          "name": "",
          "type": "address"
        }
      ],
      "payable": false,
      "stateMutability": "view",
      "type": "function"
    },
    {
      "constant": false,
      "inputs": [
        {
          "name": "_userAddress",
          "type": "address"
        }
      ],
      "name": "pushToBusinessList",
      "outputs": [
        {
          "name": "",
          "type": "uint256"
        }
      ],
      "payable": false,
      "stateMutability": "nonpayable",
      "type": "function"
    }
  ],
  "bytecode": "0x608060405234801561001057600080fd5b506109e6806100206000396000f3fe6080604052600436106100c5576000357c0100000000000000000000000000000000000000000000000000000000900463ffffffff1680632c4ba883146100ca5780632ce962cf146100f557806335fe620f1461015257806344a39b87146101ad5780634fa7353c1461023e5780635caf5a6a146102a35780635fd4b08a146102fe578063c8b2385814610363578063cfee4d6b146103c8578063d4bc088914610423578063daea3e3a1461047e578063ddc9f373146104e7578063e5252e7514610542575b600080fd5b3480156100d657600080fd5b506100df6105a7565b6040518082815260200191505060405180910390f35b34801561010157600080fd5b506101506004803603604081101561011857600080fd5b81019080803573ffffffffffffffffffffffffffffffffffffffff1690602001909291908035151590602001909291905050506105b3565b005b34801561015e57600080fd5b506101ab6004803603604081101561017557600080fd5b81019080803573ffffffffffffffffffffffffffffffffffffffff16906020019092919080359060200190929190505050610611565b005b3480156101b957600080fd5b506101fc600480360360208110156101d057600080fd5b81019080803573ffffffffffffffffffffffffffffffffffffffff16906020019092919050505061065c565b604051808273ffffffffffffffffffffffffffffffffffffffff1673ffffffffffffffffffffffffffffffffffffffff16815260200191505060405180910390f35b34801561024a57600080fd5b5061028d6004803603602081101561026157600080fd5b81019080803573ffffffffffffffffffffffffffffffffffffffff1690602001909291905050506106e0565b6040518082815260200191505060405180910390f35b3480156102af57600080fd5b506102fc600480360360408110156102c657600080fd5b81019080803573ffffffffffffffffffffffffffffffffffffffff1690602001909291908035906020019092919050505061072c565b005b34801561030a57600080fd5b5061034d6004803603602081101561032157600080fd5b81019080803573ffffffffffffffffffffffffffffffffffffffff169060200190929190505050610777565b6040518082815260200191505060405180910390f35b34801561036f57600080fd5b506103b26004803603602081101561038657600080fd5b81019080803573ffffffffffffffffffffffffffffffffffffffff1690602001909291905050506107c3565b6040518082815260200191505060405180910390f35b3480156103d457600080fd5b50610421600480360360408110156103eb57600080fd5b81019080803573ffffffffffffffffffffffffffffffffffffffff16906020019092919080359060200190929190505050610834565b005b34801561042f57600080fd5b5061047c6004803603604081101561044657600080fd5b81019080803573ffffffffffffffffffffffffffffffffffffffff1690602001909291908035906020019092919050505061087f565b005b34801561048a57600080fd5b506104cd600480360360208110156104a157600080fd5b81019080803573ffffffffffffffffffffffffffffffffffffffff1690602001909291905050506108ca565b604051808215151515815260200191505060405180910390f35b3480156104f357600080fd5b506105406004803603604081101561050a57600080fd5b81019080803573ffffffffffffffffffffffffffffffffffffffff16906020019092919080359060200190929190505050610923565b005b34801561054e57600080fd5b506105916004803603602081101561056557600080fd5b81019080803573ffffffffffffffffffffffffffffffffffffffff16906020019092919050505061096e565b6040518082815260200191505060405180910390f35b60008080549050905090565b80600160008473ffffffffffffffffffffffffffffffffffffffff1673ffffffffffffffffffffffffffffffffffffffff16815260200190815260200160002060040160006101000a81548160ff0219169083151502179055505050565b80600160008473ffffffffffffffffffffffffffffffffffffffff1673ffffffffffffffffffffffffffffffffffffffff168152602001908152602001600020600201819055505050565b600080600160008473ffffffffffffffffffffffffffffffffffffffff1673ffffffffffffffffffffffffffffffffffffffff168152602001908152602001600020600501548154811015156106ae57fe5b9060005260206000200160009054906101000a900473ffffffffffffffffffffffffffffffffffffffff169050919050565b6000600160008373ffffffffffffffffffffffffffffffffffffffff1673ffffffffffffffffffffffffffffffffffffffff168152602001908152602001600020600001549050919050565b80600160008473ffffffffffffffffffffffffffffffffffffffff1673ffffffffffffffffffffffffffffffffffffffff168152602001908152602001600020600501819055505050565b6000600160008373ffffffffffffffffffffffffffffffffffffffff1673ffffffffffffffffffffffffffffffffffffffff168152602001908152602001600020600201549050919050565b6000600160008390806001815401808255809150509060018203906000526020600020016000909192909190916101000a81548173ffffffffffffffffffffffffffffffffffffffff021916908373ffffffffffffffffffffffffffffffffffffffff160217905550039050919050565b80600160008473ffffffffffffffffffffffffffffffffffffffff1673ffffffffffffffffffffffffffffffffffffffff168152602001908152602001600020600301819055505050565b80600160008473ffffffffffffffffffffffffffffffffffffffff1673ffffffffffffffffffffffffffffffffffffffff168152602001908152602001600020600001819055505050565b6000600160008373ffffffffffffffffffffffffffffffffffffffff1673ffffffffffffffffffffffffffffffffffffffff16815260200190815260200160002060040160009054906101000a900460ff169050919050565b80600160008473ffffffffffffffffffffffffffffffffffffffff1673ffffffffffffffffffffffffffffffffffffffff168152602001908152602001600020600101819055505050565b6000600160008373ffffffffffffffffffffffffffffffffffffffff1673ffffffffffffffffffffffffffffffffffffffff16815260200190815260200160002060010154905091905056fea165627a7a72305820369d854f1b88cded320aaeef3439fb7a54d126e93404e395113181fe407ef5d00029",
  "source": "pragma solidity ^0.5.0;\n\n\n/**\n* Created: 2019-03-13\n* Modified: 2019-03-20\n* @author Mattia\n* @title Business contract\n* @dev This contract define the storage for the business-type user\n*/\ncontract BusinessStorage {\n    // The struct defines the characteristics of a business user\n    struct Business {\n        bytes32 email;\n        bytes32 deliveryAddress;\n        bytes32 name;\n        bytes32 vatNumber;\n        bool active;\n        uint index;\n    }\n\n    /*\n    * This array is needed in order to verify if a user is registered\n    */\n    address[] internal businessList;\n    /*\n    * The map addressToBusiness maps an addresso to a struct.\n    * The key of the map is the user address (account address in Metamask)\n    * The value of the map is a Business struct\n    */\n    mapping(address => Business) addressToBusiness;\n\n    function getName(address _userAddress) public view returns (bytes32) {\n        return addressToBusiness[_userAddress].name;\n    }\n\n    function getEmail(address _userAddress) public view returns (bytes32) {\n        return addressToBusiness[_userAddress].email;\n    }\n\n    function getDeliveryAddressaddress (address _userAddress) public view returns (bytes32) {\n        return addressToBusiness[_userAddress].deliveryAddress;\n    }\n\n    function getActive(address _userAddress) public view returns (bool) {\n        return addressToBusiness[_userAddress].active;\n    }\n\n    //******* SETTERS ********\n    function setName(address _userAddress, bytes32 _name) public {\n        addressToBusiness[_userAddress].name = _name;\n    }\n\n    function setEmail(address _userAddress, bytes32 _email) public {\n        addressToBusiness[_userAddress].email = _email;\n    }\n\n    function setDeliveryAddress(address _userAddress, bytes32  _devAddress) public {\n        addressToBusiness[_userAddress].deliveryAddress = _devAddress;\n    }\n\n    function setVATNumber(address _userAddress, bytes32 _vatNumber) public {\n        addressToBusiness[_userAddress].vatNumber = _vatNumber;\n    }\n\n    function setIndex(address _userAddress, uint _index) public {\n        addressToBusiness[_userAddress].index = _index;\n    }\n\n    function setActive(address _userAddress, bool _active) public {\n        addressToBusiness[_userAddress].active = _active;\n    }\n\n    function getBusinessListLength() public view returns (uint){\n        return businessList.length;\n    }\n\n    function getAddressAt(address _userAddress) public view returns (address) {\n        return businessList[addressToBusiness[_userAddress].index];\n    }\n\n     function pushToBusinessList(address _userAddress) public returns (uint){\n        return businessList.push(_userAddress) - 1 ;\n    }\n}\n",
  "sourcePath": "/home/bolzo/swe/Soldino-PoC/contracts/storage/BusinessStorage.sol",
  "compiler": {
    "name": "solc",
    "version": "0.5.0+commit.1d4f565a.Emscripten.clang"
  },
  "schemaVersion": "3.0.2",
  "updatedAt": "2019-03-29T20:25:22.236Z",
  "devdoc": {
    "author": "Mattia",
    "details": "This contract define the storage for the business-type user",
    "methods": {},
    "title": "Business contract"
  },
  "userdoc": {
    "methods": {},
    "notice": "Created: 2019-03-13 Modified: 2019-03-20"
  }
}