{
  "contractName": "BusinessStorage",
  "abi": [
    {
      "constant": true,
      "inputs": [
        {
          "name": "_userAddress",
          "type": "address"
        }
      ],
      "name": "getName",
      "outputs": [
        {
          "name": "",
          "type": "bytes32"
        }
      ],
      "payable": false,
      "stateMutability": "view",
      "type": "function"
    },
    {
      "constant": true,
      "inputs": [
        {
          "name": "_userAddress",
          "type": "address"
        }
      ],
      "name": "getEmail",
      "outputs": [
        {
          "name": "",
          "type": "bytes32"
        }
      ],
      "payable": false,
      "stateMutability": "view",
      "type": "function"
    },
    {
      "constant": true,
      "inputs": [
        {
          "name": "_userAddress",
          "type": "address"
        }
      ],
      "name": "getDeliveryAddressaddress",
      "outputs": [
        {
          "name": "",
          "type": "bytes32"
        }
      ],
      "payable": false,
      "stateMutability": "view",
      "type": "function"
    },
    {
      "constant": true,
      "inputs": [
        {
          "name": "_userAddress",
          "type": "address"
        }
      ],
      "name": "getActive",
      "outputs": [
        {
          "name": "",
          "type": "bool"
        }
      ],
      "payable": false,
      "stateMutability": "view",
      "type": "function"
    }
  ],
  "bytecode": "0x608060405234801561001057600080fd5b50610368806100206000396000f3fe608060405260043610610062576000357c0100000000000000000000000000000000000000000000000000000000900463ffffffff1680634fa7353c146100675780635fd4b08a146100cc578063daea3e3a14610131578063e5252e751461019a575b600080fd5b34801561007357600080fd5b506100b66004803603602081101561008a57600080fd5b81019080803573ffffffffffffffffffffffffffffffffffffffff1690602001909291905050506101ff565b6040518082815260200191505060405180910390f35b3480156100d857600080fd5b5061011b600480360360208110156100ef57600080fd5b81019080803573ffffffffffffffffffffffffffffffffffffffff16906020019092919050505061024b565b6040518082815260200191505060405180910390f35b34801561013d57600080fd5b506101806004803603602081101561015457600080fd5b81019080803573ffffffffffffffffffffffffffffffffffffffff169060200190929190505050610297565b604051808215151515815260200191505060405180910390f35b3480156101a657600080fd5b506101e9600480360360208110156101bd57600080fd5b81019080803573ffffffffffffffffffffffffffffffffffffffff1690602001909291905050506102f0565b6040518082815260200191505060405180910390f35b6000600160008373ffffffffffffffffffffffffffffffffffffffff1673ffffffffffffffffffffffffffffffffffffffff168152602001908152602001600020600001549050919050565b6000600160008373ffffffffffffffffffffffffffffffffffffffff1673ffffffffffffffffffffffffffffffffffffffff168152602001908152602001600020600201549050919050565b6000600160008373ffffffffffffffffffffffffffffffffffffffff1673ffffffffffffffffffffffffffffffffffffffff16815260200190815260200160002060040160009054906101000a900460ff169050919050565b6000600160008373ffffffffffffffffffffffffffffffffffffffff1673ffffffffffffffffffffffffffffffffffffffff16815260200190815260200160002060010154905091905056fea165627a7a723058205bd98602f96fd0f7c620f613c1af532a1970f989d5be5e389051532cf1da63d10029",
  "source": "pragma solidity ^0.5.0;\n\n\n/**\n* Created: 2019-03-13\n* Modified: 2019-03-20\n* @author Mattia\n* @title Business contract\n* @dev This contract define the storage for the business-type user\n*/\ncontract BusinessStorage {\n    // The struct defines the characteristics of a business user\n    struct Business {\n        bytes32 email;\n        bytes32 deliveryAddress;\n        bytes32 name;\n        bytes32 vatNumber;\n        bool active;\n        uint index;\n    }\n\n    /*\n    * This array is needed in order to verify if a user is registered\n    */\n    address[] internal businessList;\n    /*\n    * The map addressToBusiness maps an addresso to a struct.\n    * The key of the map is the user address (account address in Metamask)\n    * The value of the map is a Business struct\n    */\n    mapping(address => Business) addressToBusiness;\n\n    function getName(address _userAddress) public view returns (bytes32) {\n        return addressToBusiness[_userAddress].name;\n    }\n\n    function getEmail(address _userAddress) public view returns (bytes32) {\n        return addressToBusiness[_userAddress].email;\n    }\n\n    function getDeliveryAddressaddress (address _userAddress) public view returns (bytes32) {\n        return addressToBusiness[_userAddress].deliveryAddress;\n    }\n\n    function getActive(address _userAddress) public view returns (bool) {\n        return addressToBusiness[_userAddress].active;\n    }\n\n    //******* SETTERS ********\n    function setName(address _userAddress, bytes32 _name) internal {\n        addressToBusiness[_userAddress].name = _name;\n    }\n\n    function setEmail(address _userAddress, bytes32 _email) internal {\n        addressToBusiness[_userAddress].email = _email;\n    }\n\n    function setDeliveryAddress(address _userAddress, bytes32  _devAddress) internal {\n        addressToBusiness[_userAddress].deliveryAddress = _devAddress;\n    }\n\n    function setVATNumber(address _userAddress, bytes32 _vatNumber) internal {\n        addressToBusiness[_userAddress].vatNumber = _vatNumber;\n    }\n\n    function setIndex(address _userAddress, uint _index) internal {\n        addressToBusiness[_userAddress].index = _index;\n    }\n\n    function setActive(address _userAddress, bool _active) internal {\n        addressToBusiness[_userAddress].active = _active;\n    }\n}\n",
  "sourcePath": "/home/bolzo/SWE/Soldino-PoC/contracts/storage/BusinessStorage.sol",
  "compiler": {
    "name": "solc",
    "version": "0.5.0+commit.1d4f565a.Emscripten.clang"
  },
  "schemaVersion": "3.0.1",
  "updatedAt": "2019-03-21T11:30:41.147Z",
  "devdoc": {
    "author": "Mattia",
    "details": "This contract define the storage for the business-type user",
    "methods": {},
    "title": "Business contract"
  },
  "userdoc": {
    "methods": {},
    "notice": "Created: 2019-03-13 Modified: 2019-03-20"
  }
}