{
  "contractName": "BusinessStorage",
  "abi": [
    {
      "constant": true,
      "inputs": [
        {
          "name": "_userAddress",
          "type": "address"
        }
      ],
      "name": "getName",
      "outputs": [
        {
          "name": "",
          "type": "bytes32"
        }
      ],
      "payable": false,
      "stateMutability": "view",
      "type": "function"
    },
    {
      "constant": true,
      "inputs": [
        {
          "name": "_userAddress",
          "type": "address"
        }
      ],
      "name": "getEmail",
      "outputs": [
        {
          "name": "",
          "type": "bytes32"
        }
      ],
      "payable": false,
      "stateMutability": "view",
      "type": "function"
    },
    {
      "constant": true,
      "inputs": [
        {
          "name": "_userAddress",
          "type": "address"
        }
      ],
      "name": "getDeliveryAddressaddress",
      "outputs": [
        {
          "name": "",
          "type": "bytes32"
        }
      ],
      "payable": false,
      "stateMutability": "view",
      "type": "function"
    },
    {
      "constant": true,
      "inputs": [
        {
          "name": "_userAddress",
          "type": "address"
        }
      ],
      "name": "getActive",
      "outputs": [
        {
          "name": "",
          "type": "bool"
        }
      ],
      "payable": false,
      "stateMutability": "view",
      "type": "function"
    }
  ],
  "bytecode": "0x608060405234801561001057600080fd5b5061033b806100206000396000f3fe608060405234801561001057600080fd5b5060043610610069576000357c0100000000000000000000000000000000000000000000000000000000900480634fa7353c1461006e5780635fd4b08a146100c6578063daea3e3a1461011e578063e5252e751461017a575b600080fd5b6100b06004803603602081101561008457600080fd5b81019080803573ffffffffffffffffffffffffffffffffffffffff1690602001909291905050506101d2565b6040518082815260200191505060405180910390f35b610108600480360360208110156100dc57600080fd5b81019080803573ffffffffffffffffffffffffffffffffffffffff16906020019092919050505061021e565b6040518082815260200191505060405180910390f35b6101606004803603602081101561013457600080fd5b81019080803573ffffffffffffffffffffffffffffffffffffffff16906020019092919050505061026a565b604051808215151515815260200191505060405180910390f35b6101bc6004803603602081101561019057600080fd5b81019080803573ffffffffffffffffffffffffffffffffffffffff1690602001909291905050506102c3565b6040518082815260200191505060405180910390f35b6000600160008373ffffffffffffffffffffffffffffffffffffffff1673ffffffffffffffffffffffffffffffffffffffff168152602001908152602001600020600001549050919050565b6000600160008373ffffffffffffffffffffffffffffffffffffffff1673ffffffffffffffffffffffffffffffffffffffff168152602001908152602001600020600201549050919050565b6000600160008373ffffffffffffffffffffffffffffffffffffffff1673ffffffffffffffffffffffffffffffffffffffff16815260200190815260200160002060040160009054906101000a900460ff169050919050565b6000600160008373ffffffffffffffffffffffffffffffffffffffff1673ffffffffffffffffffffffffffffffffffffffff16815260200190815260200160002060010154905091905056fea165627a7a72305820146dd893e0abc38a2a22ba843ae93c13754db9613391f1e667fadfaf88c47c240029",
  "source": "pragma solidity ^0.5.0;\n\n\n/**\n* Created: 2019-03-13\n* Modified: 2019-03-20\n* @author Mattia\n* @title Business contract\n* @dev This contract define the storage for the business-type user\n*/\ncontract BusinessStorage {\n    // The struct defines the characteristics of a business user\n    struct Business {\n        bytes32 email;\n        bytes32 deliveryAddress;\n        bytes32 name;\n        bytes32 vatNumber;\n        bool active;\n        uint index;\n    }\n\n    /*\n    * This array is needed in order to verify if a user is registered\n    */\n    address[] internal businessList;\n    /*\n    * The map addressToBusiness maps an addresso to a struct.\n    * The key of the map is the user address (account address in Metamask)\n    * The value of the map is a Business struct\n    */\n    mapping(address => Business) addressToBusiness;\n\n    function getName(address _userAddress) public view returns (bytes32) {\n        return addressToBusiness[_userAddress].name;\n    }\n\n    function getEmail(address _userAddress) public view returns (bytes32) {\n        return addressToBusiness[_userAddress].email;\n    }\n\n    function getDeliveryAddressaddress (address _userAddress) public view returns (bytes32) {\n        return addressToBusiness[_userAddress].deliveryAddress;\n    }\n\n    function getActive(address _userAddress) public view returns (bool) {\n        return addressToBusiness[_userAddress].active;\n    }\n\n    //******* SETTERS ********\n    function setName(address _userAddress, bytes32 _name) internal {\n        addressToBusiness[_userAddress].name = _name;\n    }\n\n    function setEmail(address _userAddress, bytes32 _email) internal {\n        addressToBusiness[_userAddress].email = _email;\n    }\n\n    function setDeliveryAddress(address _userAddress, bytes32  _devAddress) internal {\n        addressToBusiness[_userAddress].deliveryAddress = _devAddress;\n    }\n\n    function setVATNumber(address _userAddress, bytes32 _vatNumber) internal {\n        addressToBusiness[_userAddress].vatNumber = _vatNumber;\n    }\n\n    function setIndex(address _userAddress, uint _index) internal {\n        addressToBusiness[_userAddress].index = _index;\n    }\n\n    function setActive(address _userAddress, bool _active) internal {\n        addressToBusiness[_userAddress].active = _active;\n    }\n}\n",
  "sourcePath": "/home/samuele/Desktop/Soldino-PoC/contracts/storage/BusinessStorage.sol",
  "compiler": {
    "name": "solc",
    "version": "0.5.4+commit.9549d8ff.Emscripten.clang"
  },
  "schemaVersion": "3.0.0-beta.2",
  "updatedAt": "2019-03-21T10:47:50.929Z",
  "devdoc": {
    "author": "Mattia",
    "details": "This contract define the storage for the business-type user",
    "methods": {},
    "title": "Business contract"
  },
  "userdoc": {
    "methods": {},
    "notice": "Created: 2019-03-13 Modified: 2019-03-20"
  }
}