{
  "contractName": "CitizenStorage",
  "abi": [
    {
      "inputs": [
        {
          "name": "_governmentAddress",
          "type": "address"
        }
      ],
      "payable": false,
      "stateMutability": "nonpayable",
      "type": "constructor",
      "signature": "constructor"
    },
    {
      "constant": true,
      "inputs": [
        {
          "name": "_userAddress",
          "type": "address"
        }
      ],
      "name": "getName",
      "outputs": [
        {
          "name": "",
          "type": "string"
        }
      ],
      "payable": false,
      "stateMutability": "view",
      "type": "function",
      "signature": "0x5fd4b08a"
    },
    {
      "constant": true,
      "inputs": [
        {
          "name": "_userAddress",
          "type": "address"
        }
      ],
      "name": "getEmail",
      "outputs": [
        {
          "name": "",
          "type": "string"
        }
      ],
      "payable": false,
      "stateMutability": "view",
      "type": "function",
      "signature": "0x4fa7353c"
    },
    {
      "constant": true,
      "inputs": [
        {
          "name": "_userAddress",
          "type": "address"
        }
      ],
      "name": "getDeliveryAddressaddress",
      "outputs": [
        {
          "name": "",
          "type": "string"
        }
      ],
      "payable": false,
      "stateMutability": "view",
      "type": "function",
      "signature": "0xe5252e75"
    },
    {
      "constant": true,
      "inputs": [
        {
          "name": "_userAddress",
          "type": "address"
        }
      ],
      "name": "getActive",
      "outputs": [
        {
          "name": "",
          "type": "bool"
        }
      ],
      "payable": false,
      "stateMutability": "view",
      "type": "function",
      "signature": "0xdaea3e3a"
    },
    {
      "constant": true,
      "inputs": [
        {
          "name": "_userAddress",
          "type": "address"
        }
      ],
      "name": "getSurname",
      "outputs": [
        {
          "name": "",
          "type": "string"
        }
      ],
      "payable": false,
      "stateMutability": "view",
      "type": "function",
      "signature": "0x0ead22b2"
    },
    {
      "constant": false,
      "inputs": [
        {
          "name": "_userAddress",
          "type": "address"
        },
        {
          "name": "_name",
          "type": "string"
        }
      ],
      "name": "setName",
      "outputs": [],
      "payable": false,
      "stateMutability": "nonpayable",
      "type": "function",
      "signature": "0x3121db1c"
    },
    {
      "constant": false,
      "inputs": [
        {
          "name": "_userAddress",
          "type": "address"
        },
        {
          "name": "_email",
          "type": "string"
        }
      ],
      "name": "setEmail",
      "outputs": [],
      "payable": false,
      "stateMutability": "nonpayable",
      "type": "function",
      "signature": "0x68c35c4b"
    },
    {
      "constant": false,
      "inputs": [
        {
          "name": "_userAddress",
          "type": "address"
        },
        {
          "name": "_surname",
          "type": "string"
        }
      ],
      "name": "setSurname",
      "outputs": [],
      "payable": false,
      "stateMutability": "nonpayable",
      "type": "function",
      "signature": "0x9f5bddea"
    },
    {
      "constant": false,
      "inputs": [
        {
          "name": "_userAddress",
          "type": "address"
        },
        {
          "name": "_devAddress",
          "type": "string"
        }
      ],
      "name": "setDeliveryAddress",
      "outputs": [],
      "payable": false,
      "stateMutability": "nonpayable",
      "type": "function",
      "signature": "0xdddd0460"
    },
    {
      "constant": false,
      "inputs": [
        {
          "name": "_userAddress",
          "type": "address"
        },
        {
          "name": "_active",
          "type": "bool"
        }
      ],
      "name": "setActive",
      "outputs": [],
      "payable": false,
      "stateMutability": "nonpayable",
      "type": "function",
      "signature": "0x2ce962cf"
    },
    {
      "constant": true,
      "inputs": [],
      "name": "getCitizenListLength",
      "outputs": [
        {
          "name": "",
          "type": "uint256"
        }
      ],
      "payable": false,
      "stateMutability": "view",
      "type": "function",
      "signature": "0x41f22072"
    },
    {
      "constant": true,
      "inputs": [
        {
          "name": "_userAddress",
          "type": "address"
        }
      ],
      "name": "getAddressAt",
      "outputs": [
        {
          "name": "",
          "type": "address"
        }
      ],
      "payable": false,
      "stateMutability": "view",
      "type": "function",
      "signature": "0x44a39b87"
    },
    {
      "constant": false,
      "inputs": [
        {
          "name": "_userAddress",
          "type": "address"
        }
      ],
      "name": "pushToCitizenList",
      "outputs": [
        {
          "name": "",
          "type": "uint256"
        }
      ],
      "payable": false,
      "stateMutability": "nonpayable",
      "type": "function",
      "signature": "0x6c7adb64"
    },
    {
      "constant": true,
      "inputs": [
        {
          "name": "_citizenAddress",
          "type": "address"
        }
      ],
      "name": "getCitizenData",
      "outputs": [
        {
          "name": "",
          "type": "string"
        },
        {
          "name": "",
          "type": "string"
        },
        {
          "name": "",
          "type": "string"
        },
        {
          "name": "",
          "type": "string"
        }
      ],
      "payable": false,
      "stateMutability": "view",
      "type": "function",
      "signature": "0x40f6be45"
    }
  ],
  "bytecode": "0x608060405234801561001057600080fd5b506040516020806117278339810180604052602081101561003057600080fd5b810190808051906020019092919050505080600260006101000a81548173ffffffffffffffffffffffffffffffffffffffff021916908373ffffffffffffffffffffffffffffffffffffffff16021790555050611695806100926000396000f3fe608060405234801561001057600080fd5b5060043610610107576000357c0100000000000000000000000000000000000000000000000000000000900480635fd4b08a116100a95780639f5bddea116100835780639f5bddea14610844578063daea3e3a1461091f578063dddd04601461097b578063e5252e7514610a5657610107565b80635fd4b08a1461065457806368c35c4b146107115780636c7adb64146107ec57610107565b806340f6be45116100e557806340f6be45146102f457806341f22072146104f557806344a39b87146105135780634fa7353c1461059757610107565b80630ead22b21461010c5780632ce962cf146101c95780633121db1c14610219575b600080fd5b61014e6004803603602081101561012257600080fd5b81019080803573ffffffffffffffffffffffffffffffffffffffff169060200190929190505050610b13565b6040518080602001828103825283818151815260200191508051906020019080838360005b8381101561018e578082015181840152602081019050610173565b50505050905090810190601f1680156101bb5780820380516001836020036101000a031916815260200191505b509250505060405180910390f35b610217600480360360408110156101df57600080fd5b81019080803573ffffffffffffffffffffffffffffffffffffffff169060200190929190803515159060200190929190505050610bf7565b005b6102f26004803603604081101561022f57600080fd5b81019080803573ffffffffffffffffffffffffffffffffffffffff1690602001909291908035906020019064010000000081111561026c57600080fd5b82018360208201111561027e57600080fd5b803590602001918460018302840111640100000000831117156102a057600080fd5b91908080601f016020809104026020016040519081016040528093929190818152602001838380828437600081840152601f19601f820116905080830192505050505050509192919290505050610cfd565b005b6103366004803603602081101561030a57600080fd5b81019080803573ffffffffffffffffffffffffffffffffffffffff169060200190929190505050610d58565b6040518080602001806020018060200180602001858103855289818151815260200191508051906020019080838360005b83811015610382578082015181840152602081019050610367565b50505050905090810190601f1680156103af5780820380516001836020036101000a031916815260200191505b50858103845288818151815260200191508051906020019080838360005b838110156103e85780820151818401526020810190506103cd565b50505050905090810190601f1680156104155780820380516001836020036101000a031916815260200191505b50858103835287818151815260200191508051906020019080838360005b8381101561044e578082015181840152602081019050610433565b50505050905090810190601f16801561047b5780820380516001836020036101000a031916815260200191505b50858103825286818151815260200191508051906020019080838360005b838110156104b4578082015181840152602081019050610499565b50505050905090810190601f1680156104e15780820380516001836020036101000a031916815260200191505b509850505050505050505060405180910390f35b6104fd611031565b6040518082815260200191505060405180910390f35b6105556004803603602081101561052957600080fd5b81019080803573ffffffffffffffffffffffffffffffffffffffff16906020019092919050505061103d565b604051808273ffffffffffffffffffffffffffffffffffffffff1673ffffffffffffffffffffffffffffffffffffffff16815260200191505060405180910390f35b6105d9600480360360208110156105ad57600080fd5b81019080803573ffffffffffffffffffffffffffffffffffffffff1690602001909291905050506110c1565b6040518080602001828103825283818151815260200191508051906020019080838360005b838110156106195780820151818401526020810190506105fe565b50505050905090810190601f1680156106465780820380516001836020036101000a031916815260200191505b509250505060405180910390f35b6106966004803603602081101561066a57600080fd5b81019080803573ffffffffffffffffffffffffffffffffffffffff1690602001909291905050506111a5565b6040518080602001828103825283818151815260200191508051906020019080838360005b838110156106d65780820151818401526020810190506106bb565b50505050905090810190601f1680156107035780820380516001836020036101000a031916815260200191505b509250505060405180910390f35b6107ea6004803603604081101561072757600080fd5b81019080803573ffffffffffffffffffffffffffffffffffffffff1690602001909291908035906020019064010000000081111561076457600080fd5b82018360208201111561077657600080fd5b8035906020019184600183028401116401000000008311171561079857600080fd5b91908080601f016020809104026020016040519081016040528093929190818152602001838380828437600081840152601f19601f820116905080830192505050505050509192919290505050611289565b005b61082e6004803603602081101561080257600080fd5b81019080803573ffffffffffffffffffffffffffffffffffffffff1690602001909291905050506112e4565b6040518082815260200191505060405180910390f35b61091d6004803603604081101561085a57600080fd5b81019080803573ffffffffffffffffffffffffffffffffffffffff1690602001909291908035906020019064010000000081111561089757600080fd5b8201836020820111156108a957600080fd5b803590602001918460018302840111640100000000831117156108cb57600080fd5b91908080601f016020809104026020016040519081016040528093929190818152602001838380828437600081840152601f19601f82011690508083019250505050505050919291929050505061135c565b005b6109616004803603602081101561093557600080fd5b81019080803573ffffffffffffffffffffffffffffffffffffffff1690602001909291905050506113b7565b604051808215151515815260200191505060405180910390f35b610a546004803603604081101561099157600080fd5b81019080803573ffffffffffffffffffffffffffffffffffffffff169060200190929190803590602001906401000000008111156109ce57600080fd5b8201836020820111156109e057600080fd5b80359060200191846001830284011164010000000083111715610a0257600080fd5b91908080601f016020809104026020016040519081016040528093929190818152602001838380828437600081840152601f19601f820116905080830192505050505050509192919290505050611410565b005b610a9860048036036020811015610a6c57600080fd5b81019080803573ffffffffffffffffffffffffffffffffffffffff16906020019092919050505061146b565b6040518080602001828103825283818151815260200191508051906020019080838360005b83811015610ad8578082015181840152602081019050610abd565b50505050905090810190601f168015610b055780820380516001836020036101000a031916815260200191505b509250505060405180910390f35b6060600160008373ffffffffffffffffffffffffffffffffffffffff1673ffffffffffffffffffffffffffffffffffffffff1681526020019081526020016000206003018054600181600116156101000203166002900480601f016020809104026020016040519081016040528092919081815260200182805460018160011615610100020316600290048015610beb5780601f10610bc057610100808354040283529160200191610beb565b820191906000526020600020905b815481529060010190602001808311610bce57829003601f168201915b50505050509050919050565b600260009054906101000a900473ffffffffffffffffffffffffffffffffffffffff1673ffffffffffffffffffffffffffffffffffffffff163373ffffffffffffffffffffffffffffffffffffffff16141515610c9f576040517f08c379a000000000000000000000000000000000000000000000000000000000815260040180806020018281038252602a815260200180611640602a913960400191505060405180910390fd5b80600160008473ffffffffffffffffffffffffffffffffffffffff1673ffffffffffffffffffffffffffffffffffffffff16815260200190815260200160002060040160006101000a81548160ff0219169083151502179055505050565b80600160008473ffffffffffffffffffffffffffffffffffffffff1673ffffffffffffffffffffffffffffffffffffffff1681526020019081526020016000206002019080519060200190610d5392919061159a565b505050565b6060806060806000600160008773ffffffffffffffffffffffffffffffffffffffff1673ffffffffffffffffffffffffffffffffffffffff168152602001908152602001600020905080600001816002018260030183600101838054600181600116156101000203166002900480601f016020809104026020016040519081016040528092919081815260200182805460018160011615610100020316600290048015610e465780601f10610e1b57610100808354040283529160200191610e46565b820191906000526020600020905b815481529060010190602001808311610e2957829003601f168201915b50505050509350828054600181600116156101000203166002900480601f016020809104026020016040519081016040528092919081815260200182805460018160011615610100020316600290048015610ee25780601f10610eb757610100808354040283529160200191610ee2565b820191906000526020600020905b815481529060010190602001808311610ec557829003601f168201915b50505050509250818054600181600116156101000203166002900480601f016020809104026020016040519081016040528092919081815260200182805460018160011615610100020316600290048015610f7e5780601f10610f5357610100808354040283529160200191610f7e565b820191906000526020600020905b815481529060010190602001808311610f6157829003601f168201915b50505050509150808054600181600116156101000203166002900480601f01602080910402602001604051908101604052809291908181526020018280546001816001161561010002031660029004801561101a5780601f10610fef5761010080835404028352916020019161101a565b820191906000526020600020905b815481529060010190602001808311610ffd57829003601f168201915b505050505090509450945094509450509193509193565b60008080549050905090565b600080600160008473ffffffffffffffffffffffffffffffffffffffff1673ffffffffffffffffffffffffffffffffffffffff1681526020019081526020016000206005015481548110151561108f57fe5b9060005260206000200160009054906101000a900473ffffffffffffffffffffffffffffffffffffffff169050919050565b6060600160008373ffffffffffffffffffffffffffffffffffffffff1673ffffffffffffffffffffffffffffffffffffffff1681526020019081526020016000206000018054600181600116156101000203166002900480601f0160208091040260200160405190810160405280929190818152602001828054600181600116156101000203166002900480156111995780601f1061116e57610100808354040283529160200191611199565b820191906000526020600020905b81548152906001019060200180831161117c57829003601f168201915b50505050509050919050565b6060600160008373ffffffffffffffffffffffffffffffffffffffff1673ffffffffffffffffffffffffffffffffffffffff1681526020019081526020016000206002018054600181600116156101000203166002900480601f01602080910402602001604051908101604052809291908181526020018280546001816001161561010002031660029004801561127d5780601f106112525761010080835404028352916020019161127d565b820191906000526020600020905b81548152906001019060200180831161126057829003601f168201915b50505050509050919050565b80600160008473ffffffffffffffffffffffffffffffffffffffff1673ffffffffffffffffffffffffffffffffffffffff16815260200190815260200160002060000190805190602001906112df92919061159a565b505050565b600061135782600160008590806001815401808255809150509060018203906000526020600020016000909192909190916101000a81548173ffffffffffffffffffffffffffffffffffffffff021916908373ffffffffffffffffffffffffffffffffffffffff1602179055500361154f565b919050565b80600160008473ffffffffffffffffffffffffffffffffffffffff1673ffffffffffffffffffffffffffffffffffffffff16815260200190815260200160002060030190805190602001906113b292919061159a565b505050565b6000600160008373ffffffffffffffffffffffffffffffffffffffff1673ffffffffffffffffffffffffffffffffffffffff16815260200190815260200160002060040160009054906101000a900460ff169050919050565b80600160008473ffffffffffffffffffffffffffffffffffffffff1673ffffffffffffffffffffffffffffffffffffffff168152602001908152602001600020600101908051906020019061146692919061159a565b505050565b6060600160008373ffffffffffffffffffffffffffffffffffffffff1673ffffffffffffffffffffffffffffffffffffffff1681526020019081526020016000206001018054600181600116156101000203166002900480601f0160208091040260200160405190810160405280929190818152602001828054600181600116156101000203166002900480156115435780601f1061151857610100808354040283529160200191611543565b820191906000526020600020905b81548152906001019060200180831161152657829003601f168201915b50505050509050919050565b80600160008473ffffffffffffffffffffffffffffffffffffffff1673ffffffffffffffffffffffffffffffffffffffff168152602001908152602001600020600501819055505050565b828054600181600116156101000203166002900490600052602060002090601f016020900481019282601f106115db57805160ff1916838001178555611609565b82800160010185558215611609579182015b828111156116085782518255916020019190600101906115ed565b5b509050611616919061161a565b5090565b61163c91905b80821115611638576000816000905550600101611620565b5090565b9056fe4f6e6c792074686520676f7665726e6d656e742063616e2061626c652f64697361626c65207573657273a165627a7a72305820f2462aa502c7c34325ac81431c0eb79b34d4e5acc85e665a2cb03638117672de0029",
  "source": "pragma solidity ^0.5.0;\n/**\n  * Created: 2019-03-13\n  * Modified: 2019-03-20\n  * @author Mattia\n  * @title Citizen contract\n  * @dev This contract define the storage for the citizen-type user\n  */\ncontract CitizenStorage {\n    // The struct defines the characteristics of a citizen user\n    struct Citizen {\n        string email;\n        string deliveryAddress;\n        string name;\n        string surname;\n        bool active;\n        uint index;\n    }\n\n    /*\n    * This array is needed in order to verify if a user is registered\n    */\n    address[] internal citizenList;\n\n    /*\n    * The map addressToCitizen maps an addresso to a struct.\n    * The key of the map is the user address (account address in Metamask)\n    * The value of the map is a Citizen struct\n    */\n    mapping(address => Citizen) addressToCitizen;\n\n    address governmentAddress;\n\n    modifier onlyGovernment() {\n        require(msg.sender == governmentAddress, \"Only the government can able/disable users\");\n        _;\n    }\n\n    constructor (address _governmentAddress) public {\n        governmentAddress = _governmentAddress;\n    }\n\n    function getName(address _userAddress) public view returns (string memory) {\n        return addressToCitizen[_userAddress].name;\n    }\n\n    function getEmail(address _userAddress) public view returns (string memory) {\n        return addressToCitizen[_userAddress].email;\n    }\n\n    function getDeliveryAddressaddress (address _userAddress) public view returns (string memory) {\n        return addressToCitizen[_userAddress].deliveryAddress;\n    }\n\n    function getActive(address _userAddress) public view returns (bool) {\n        return addressToCitizen[_userAddress].active;\n    }\n\n    function getSurname(address _userAddress) public view returns (string memory) {\n        return addressToCitizen[_userAddress].surname;\n    }\n\n    function setName(address _userAddress, string memory _name) public {\n        addressToCitizen[_userAddress].name = _name;\n    }\n\n    function setEmail(address _userAddress, string memory _email) public {\n        addressToCitizen[_userAddress].email = _email;\n    }\n\n    function setSurname(address _userAddress, string memory _surname) public {\n        addressToCitizen[_userAddress].surname = _surname;\n    }\n\n    function setDeliveryAddress(address _userAddress, string memory _devAddress) public {\n        addressToCitizen[_userAddress].deliveryAddress = _devAddress;\n    }\n\n    function setIndex(address _userAddress, uint _index) private {\n        addressToCitizen[_userAddress].index = _index;\n    }\n\n    function setActive(address _userAddress, bool _active) public onlyGovernment {\n        addressToCitizen[_userAddress].active = _active;\n    }\n\n    function getCitizenListLength() public view returns (uint){\n        return citizenList.length;\n    }\n\n    function getAddressAt(address _userAddress) public view returns (address) {\n        return citizenList[addressToCitizen[_userAddress].index];\n    }\n\n    function pushToCitizenList(address _userAddress) public returns (uint){\n        setIndex(_userAddress, citizenList.push(_userAddress) - 1);\n    }\n\n    function getCitizenData(address _citizenAddress) public view returns (\n        string memory, string memory, string memory, string memory) {\n        Citizen storage citizen =  addressToCitizen[_citizenAddress];\n        return (citizen.email, citizen.name, citizen.surname, citizen.deliveryAddress);\n    }\n\n}\n",
  "sourcePath": "/home/samuele/Desktop/Soldino-PoC/contracts/CitizenStorage.sol",
  "compiler": {
    "name": "solc",
    "version": "0.5.4+commit.9549d8ff.Emscripten.clang"
  },
  "schemaVersion": "3.0.0-beta.2",
  "updatedAt": "2019-03-23T23:23:59.388Z",
  "devdoc": {
    "author": "Mattia",
    "details": "This contract define the storage for the citizen-type user",
    "methods": {},
    "title": "Citizen contract"
  },
  "userdoc": {
    "methods": {},
    "notice": "Created: 2019-03-13 Modified: 2019-03-20"
  }
}