{
  "contractName": "CitizenStorage",
  "abi": [
    {
      "constant": true,
      "inputs": [
        {
          "name": "_userAddress",
          "type": "address"
        }
      ],
      "name": "getName",
      "outputs": [
        {
          "name": "",
          "type": "bytes32"
        }
      ],
      "payable": false,
      "stateMutability": "view",
      "type": "function"
    },
    {
      "constant": true,
      "inputs": [
        {
          "name": "_userAddress",
          "type": "address"
        }
      ],
      "name": "getEmail",
      "outputs": [
        {
          "name": "",
          "type": "bytes32"
        }
      ],
      "payable": false,
      "stateMutability": "view",
      "type": "function"
    },
    {
      "constant": true,
      "inputs": [
        {
          "name": "_userAddress",
          "type": "address"
        }
      ],
      "name": "getDeliveryAddressaddress",
      "outputs": [
        {
          "name": "",
          "type": "bytes32"
        }
      ],
      "payable": false,
      "stateMutability": "view",
      "type": "function"
    },
    {
      "constant": true,
      "inputs": [
        {
          "name": "_userAddress",
          "type": "address"
        }
      ],
      "name": "getActive",
      "outputs": [
        {
          "name": "",
          "type": "bool"
        }
      ],
      "payable": false,
      "stateMutability": "view",
      "type": "function"
    },
    {
      "constant": true,
      "inputs": [
        {
          "name": "_userAddress",
          "type": "address"
        }
      ],
      "name": "getSurname",
      "outputs": [
        {
          "name": "",
          "type": "bytes32"
        }
      ],
      "payable": false,
      "stateMutability": "view",
      "type": "function"
    }
  ],
  "bytecode": "0x608060405234801561001057600080fd5b50610424806100206000396000f3fe60806040526004361061006d576000357c0100000000000000000000000000000000000000000000000000000000900463ffffffff1680630ead22b2146100725780634fa7353c146100d75780635fd4b08a1461013c578063daea3e3a146101a1578063e5252e751461020a575b600080fd5b34801561007e57600080fd5b506100c16004803603602081101561009557600080fd5b81019080803573ffffffffffffffffffffffffffffffffffffffff16906020019092919050505061026f565b6040518082815260200191505060405180910390f35b3480156100e357600080fd5b50610126600480360360208110156100fa57600080fd5b81019080803573ffffffffffffffffffffffffffffffffffffffff1690602001909291905050506102bb565b6040518082815260200191505060405180910390f35b34801561014857600080fd5b5061018b6004803603602081101561015f57600080fd5b81019080803573ffffffffffffffffffffffffffffffffffffffff169060200190929190505050610307565b6040518082815260200191505060405180910390f35b3480156101ad57600080fd5b506101f0600480360360208110156101c457600080fd5b81019080803573ffffffffffffffffffffffffffffffffffffffff169060200190929190505050610353565b604051808215151515815260200191505060405180910390f35b34801561021657600080fd5b506102596004803603602081101561022d57600080fd5b81019080803573ffffffffffffffffffffffffffffffffffffffff1690602001909291905050506103ac565b6040518082815260200191505060405180910390f35b6000600160008373ffffffffffffffffffffffffffffffffffffffff1673ffffffffffffffffffffffffffffffffffffffff168152602001908152602001600020600301549050919050565b6000600160008373ffffffffffffffffffffffffffffffffffffffff1673ffffffffffffffffffffffffffffffffffffffff168152602001908152602001600020600001549050919050565b6000600160008373ffffffffffffffffffffffffffffffffffffffff1673ffffffffffffffffffffffffffffffffffffffff168152602001908152602001600020600201549050919050565b6000600160008373ffffffffffffffffffffffffffffffffffffffff1673ffffffffffffffffffffffffffffffffffffffff16815260200190815260200160002060040160009054906101000a900460ff169050919050565b6000600160008373ffffffffffffffffffffffffffffffffffffffff1673ffffffffffffffffffffffffffffffffffffffff16815260200190815260200160002060010154905091905056fea165627a7a72305820810272664f325cff3efb2e14baec232def0af2144f5e004cb331558dc5e953e80029",
  "source": "pragma solidity ^0.5.0;\n\n\n/**\n  * Created: 2019-03-13\n  * Modified: 2019-03-20\n  * @author Mattia\n  * @title Citizen contract\n  * @dev This contract define the storage for the citizen-type user\n  */\ncontract CitizenStorage {\n    // The struct defines the characteristics of a citizen user\n    struct Citizen {\n        bytes32 email;\n        bytes32 deliveryAddress;\n        bytes32 name;\n        bytes32 surname;\n        bool active;\n        uint index;\n    }\n\n    /*\n    * This array is needed in order to verify if a user is registered\n    */\n    address[] internal citizenList;\n\n    /*\n    * The map addressToCitizen maps an addresso to a struct.\n    * The key of the map is the user address (account address in Metamask)\n    * The value of the map is a Citizen struct\n    */\n    mapping(address => Citizen) addressToCitizen;\n\n    function getName(address _userAddress) public view returns (bytes32) {\n        return addressToCitizen[_userAddress].name;\n    }\n\n    function getEmail(address _userAddress) public view returns (bytes32) {\n        return addressToCitizen[_userAddress].email;\n    }\n\n    function getDeliveryAddressaddress (address _userAddress) public view returns (bytes32) {\n        return addressToCitizen[_userAddress].deliveryAddress;\n    }\n\n    function getActive(address _userAddress) public view returns (bool) {\n        return addressToCitizen[_userAddress].active;\n    }\n\n    function getSurname(address _userAddress) public view returns (bytes32) {\n        return addressToCitizen[_userAddress].surname;\n    }\n\n    function setName(address _userAddress, bytes32 _name) internal {\n        addressToCitizen[_userAddress].name = _name;\n    }\n\n    function setEmail(address _userAddress, bytes32 _email) internal {\n        addressToCitizen[_userAddress].email = _email;\n    }\n\n    function setSurname(address _userAddress, bytes32 _surname) internal {\n        addressToCitizen[_userAddress].surname = _surname;\n    }\n\n    function setDeliveryAddress(address _userAddress, bytes32 _devAddress) internal {\n        addressToCitizen[_userAddress].deliveryAddress = _devAddress;\n    }\n\n    function setIndex(address _userAddress, uint _index) internal {\n        addressToCitizen[_userAddress].index = _index;\n    }\n\n    function setActive(address _userAddress, bool _active) internal {\n        addressToCitizen[_userAddress].active = _active;\n    }\n}\n",
  "sourcePath": "/home/bolzo/SWE/Soldino-PoC/contracts/storage/CitizenStorage.sol",
  "compiler": {
    "name": "solc",
    "version": "0.5.0+commit.1d4f565a.Emscripten.clang"
  },
  "schemaVersion": "3.0.1",
  "updatedAt": "2019-03-20T17:05:02.742Z",
  "devdoc": {
    "author": "Mattia",
    "details": "This contract define the storage for the citizen-type user",
    "methods": {},
    "title": "Citizen contract"
  },
  "userdoc": {
    "methods": {},
    "notice": "Created: 2019-03-13 Modified: 2019-03-20"
  }
}