{
  "contractName": "CitizenStorage",
  "abi": [
    {
      "constant": true,
      "inputs": [
        {
          "name": "_userAddress",
          "type": "address"
        }
      ],
      "name": "getName",
      "outputs": [
        {
          "name": "",
          "type": "bytes32"
        }
      ],
      "payable": false,
      "stateMutability": "view",
      "type": "function"
    },
    {
      "constant": true,
      "inputs": [
        {
          "name": "_userAddress",
          "type": "address"
        }
      ],
      "name": "getEmail",
      "outputs": [
        {
          "name": "",
          "type": "bytes32"
        }
      ],
      "payable": false,
      "stateMutability": "view",
      "type": "function"
    },
    {
      "constant": true,
      "inputs": [
        {
          "name": "_userAddress",
          "type": "address"
        }
      ],
      "name": "getDeliveryAddressaddress",
      "outputs": [
        {
          "name": "",
          "type": "bytes32"
        }
      ],
      "payable": false,
      "stateMutability": "view",
      "type": "function"
    },
    {
      "constant": true,
      "inputs": [
        {
          "name": "_userAddress",
          "type": "address"
        }
      ],
      "name": "getActive",
      "outputs": [
        {
          "name": "",
          "type": "bool"
        }
      ],
      "payable": false,
      "stateMutability": "view",
      "type": "function"
    },
    {
      "constant": true,
      "inputs": [
        {
          "name": "_userAddress",
          "type": "address"
        }
      ],
      "name": "getSurname",
      "outputs": [
        {
          "name": "",
          "type": "bytes32"
        }
      ],
      "payable": false,
      "stateMutability": "view",
      "type": "function"
    }
  ],
  "bytecode": "0x608060405234801561001057600080fd5b506103ea806100206000396000f3fe608060405234801561001057600080fd5b5060043610610074576000357c0100000000000000000000000000000000000000000000000000000000900480630ead22b2146100795780634fa7353c146100d15780635fd4b08a14610129578063daea3e3a14610181578063e5252e75146101dd575b600080fd5b6100bb6004803603602081101561008f57600080fd5b81019080803573ffffffffffffffffffffffffffffffffffffffff169060200190929190505050610235565b6040518082815260200191505060405180910390f35b610113600480360360208110156100e757600080fd5b81019080803573ffffffffffffffffffffffffffffffffffffffff169060200190929190505050610281565b6040518082815260200191505060405180910390f35b61016b6004803603602081101561013f57600080fd5b81019080803573ffffffffffffffffffffffffffffffffffffffff1690602001909291905050506102cd565b6040518082815260200191505060405180910390f35b6101c36004803603602081101561019757600080fd5b81019080803573ffffffffffffffffffffffffffffffffffffffff169060200190929190505050610319565b604051808215151515815260200191505060405180910390f35b61021f600480360360208110156101f357600080fd5b81019080803573ffffffffffffffffffffffffffffffffffffffff169060200190929190505050610372565b6040518082815260200191505060405180910390f35b6000600160008373ffffffffffffffffffffffffffffffffffffffff1673ffffffffffffffffffffffffffffffffffffffff168152602001908152602001600020600301549050919050565b6000600160008373ffffffffffffffffffffffffffffffffffffffff1673ffffffffffffffffffffffffffffffffffffffff168152602001908152602001600020600001549050919050565b6000600160008373ffffffffffffffffffffffffffffffffffffffff1673ffffffffffffffffffffffffffffffffffffffff168152602001908152602001600020600201549050919050565b6000600160008373ffffffffffffffffffffffffffffffffffffffff1673ffffffffffffffffffffffffffffffffffffffff16815260200190815260200160002060040160009054906101000a900460ff169050919050565b6000600160008373ffffffffffffffffffffffffffffffffffffffff1673ffffffffffffffffffffffffffffffffffffffff16815260200190815260200160002060010154905091905056fea165627a7a723058202ad3d8d4d6f8d655cde1ebba7769ee8fc84696a926b1aa22485b63ed0cd2ec3c0029",
  "source": "pragma solidity ^0.5.0;\n\n\n/**\n  * Created: 2019-03-13\n  * Modified: 2019-03-20\n  * @author Mattia\n  * @title Citizen contract\n  * @dev This contract define the storage for the citizen-type user\n  */\ncontract CitizenStorage {\n    // The struct defines the characteristics of a citizen user\n    struct Citizen {\n        bytes32 email;\n        bytes32 deliveryAddress;\n        bytes32 name;\n        bytes32 surname;\n        bool active;\n        uint index;\n    }\n\n    /*\n    * This array is needed in order to verify if a user is registered\n    */\n    address[] internal citizenList;\n\n    /*\n    * The map addressToCitizen maps an addresso to a struct.\n    * The key of the map is the user address (account address in Metamask)\n    * The value of the map is a Citizen struct\n    */\n    mapping(address => Citizen) addressToCitizen;\n\n    function getName(address _userAddress) public view returns (bytes32) {\n        return addressToCitizen[_userAddress].name;\n    }\n\n    function getEmail(address _userAddress) public view returns (bytes32) {\n        return addressToCitizen[_userAddress].email;\n    }\n\n    function getDeliveryAddressaddress (address _userAddress) public view returns (bytes32) {\n        return addressToCitizen[_userAddress].deliveryAddress;\n    }\n\n    function getActive(address _userAddress) public view returns (bool) {\n        return addressToCitizen[_userAddress].active;\n    }\n\n    function getSurname(address _userAddress) public view returns (bytes32) {\n        return addressToCitizen[_userAddress].surname;\n    }\n\n    function setName(address _userAddress, bytes32 _name) internal {\n        addressToCitizen[_userAddress].name = _name;\n    }\n\n    function setEmail(address _userAddress, bytes32 _email) internal {\n        addressToCitizen[_userAddress].email = _email;\n    }\n\n    function setSurname(address _userAddress, bytes32 _surname) internal {\n        addressToCitizen[_userAddress].surname = _surname;\n    }\n\n    function setDeliveryAddress(address _userAddress, bytes32 _devAddress) internal {\n        addressToCitizen[_userAddress].deliveryAddress = _devAddress;\n    }\n\n    function setIndex(address _userAddress, uint _index) internal {\n        addressToCitizen[_userAddress].index = _index;\n    }\n\n    function setActive(address _userAddress, bool _active) internal {\n        addressToCitizen[_userAddress].active = _active;\n    }\n}\n",
  "sourcePath": "/home/samuele/Desktop/Soldino-PoC/contracts/storage/CitizenStorage.sol",
  "compiler": {
    "name": "solc",
    "version": "0.5.4+commit.9549d8ff.Emscripten.clang"
  },
  "schemaVersion": "3.0.0-beta.2",
  "updatedAt": "2019-03-21T10:47:50.948Z",
  "devdoc": {
    "author": "Mattia",
    "details": "This contract define the storage for the citizen-type user",
    "methods": {},
    "title": "Citizen contract"
  },
  "userdoc": {
    "methods": {},
    "notice": "Created: 2019-03-13 Modified: 2019-03-20"
  }
}