{
  "contractName": "CitizenStorage",
  "abi": [
    {
      "constant": true,
      "inputs": [
        {
          "name": "_userAddress",
          "type": "address"
        }
      ],
      "name": "getName",
      "outputs": [
        {
          "name": "",
          "type": "bytes32"
        }
      ],
      "payable": false,
      "stateMutability": "view",
      "type": "function"
    },
    {
      "constant": true,
      "inputs": [
        {
          "name": "_userAddress",
          "type": "address"
        }
      ],
      "name": "getEmail",
      "outputs": [
        {
          "name": "",
          "type": "bytes32"
        }
      ],
      "payable": false,
      "stateMutability": "view",
      "type": "function"
    },
    {
      "constant": true,
      "inputs": [
        {
          "name": "_userAddress",
          "type": "address"
        }
      ],
      "name": "getDeliveryAddressaddress",
      "outputs": [
        {
          "name": "",
          "type": "bytes32"
        }
      ],
      "payable": false,
      "stateMutability": "view",
      "type": "function"
    },
    {
      "constant": true,
      "inputs": [
        {
          "name": "_userAddress",
          "type": "address"
        }
      ],
      "name": "getActive",
      "outputs": [
        {
          "name": "",
          "type": "bool"
        }
      ],
      "payable": false,
      "stateMutability": "view",
      "type": "function"
    },
    {
      "constant": true,
      "inputs": [
        {
          "name": "_userAddress",
          "type": "address"
        }
      ],
      "name": "getSurname",
      "outputs": [
        {
          "name": "",
          "type": "bytes32"
        }
      ],
      "payable": false,
      "stateMutability": "view",
      "type": "function"
    },
    {
      "constant": false,
      "inputs": [
        {
          "name": "_userAddress",
          "type": "address"
        },
        {
          "name": "_name",
          "type": "bytes32"
        }
      ],
      "name": "setName",
      "outputs": [],
      "payable": false,
      "stateMutability": "nonpayable",
      "type": "function"
    },
    {
      "constant": false,
      "inputs": [
        {
          "name": "_userAddress",
          "type": "address"
        },
        {
          "name": "_email",
          "type": "bytes32"
        }
      ],
      "name": "setEmail",
      "outputs": [],
      "payable": false,
      "stateMutability": "nonpayable",
      "type": "function"
    },
    {
      "constant": false,
      "inputs": [
        {
          "name": "_userAddress",
          "type": "address"
        },
        {
          "name": "_surname",
          "type": "bytes32"
        }
      ],
      "name": "setSurname",
      "outputs": [],
      "payable": false,
      "stateMutability": "nonpayable",
      "type": "function"
    },
    {
      "constant": false,
      "inputs": [
        {
          "name": "_userAddress",
          "type": "address"
        },
        {
          "name": "_devAddress",
          "type": "bytes32"
        }
      ],
      "name": "setDeliveryAddress",
      "outputs": [],
      "payable": false,
      "stateMutability": "nonpayable",
      "type": "function"
    },
    {
      "constant": false,
      "inputs": [
        {
          "name": "_userAddress",
          "type": "address"
        },
        {
          "name": "_index",
          "type": "uint256"
        }
      ],
      "name": "setIndex",
      "outputs": [],
      "payable": false,
      "stateMutability": "nonpayable",
      "type": "function"
    },
    {
      "constant": false,
      "inputs": [
        {
          "name": "_userAddress",
          "type": "address"
        },
        {
          "name": "_active",
          "type": "bool"
        }
      ],
      "name": "setActive",
      "outputs": [],
      "payable": false,
      "stateMutability": "nonpayable",
      "type": "function"
    },
    {
      "constant": true,
      "inputs": [],
      "name": "getCitizenListLength",
      "outputs": [
        {
          "name": "",
          "type": "uint256"
        }
      ],
      "payable": false,
      "stateMutability": "view",
      "type": "function"
    },
    {
      "constant": true,
      "inputs": [
        {
          "name": "_userAddress",
          "type": "address"
        }
      ],
      "name": "getAddressAt",
      "outputs": [
        {
          "name": "",
          "type": "address"
        }
      ],
      "payable": false,
      "stateMutability": "view",
      "type": "function"
    },
    {
      "constant": false,
      "inputs": [
        {
          "name": "_userAddress",
          "type": "address"
        }
      ],
      "name": "pushToCitizenList",
      "outputs": [
        {
          "name": "",
          "type": "uint256"
        }
      ],
      "payable": false,
      "stateMutability": "nonpayable",
      "type": "function"
    }
  ],
  "bytecode": "0x608060405234801561001057600080fd5b50610aa2806100206000396000f3fe6080604052600436106100d0576000357c0100000000000000000000000000000000000000000000000000000000900463ffffffff1680630ead22b2146100d55780632ce962cf1461013a57806335fe620f1461019757806341f22072146101f257806344a39b871461021d5780634fa7353c146102ae5780635caf5a6a146103135780635fd4b08a1461036e5780636c7adb64146103d3578063c6880f6514610438578063d4bc088914610493578063daea3e3a146104ee578063ddc9f37314610557578063e5252e75146105b2575b600080fd5b3480156100e157600080fd5b50610124600480360360208110156100f857600080fd5b81019080803573ffffffffffffffffffffffffffffffffffffffff169060200190929190505050610617565b6040518082815260200191505060405180910390f35b34801561014657600080fd5b506101956004803603604081101561015d57600080fd5b81019080803573ffffffffffffffffffffffffffffffffffffffff169060200190929190803515159060200190929190505050610663565b005b3480156101a357600080fd5b506101f0600480360360408110156101ba57600080fd5b81019080803573ffffffffffffffffffffffffffffffffffffffff169060200190929190803590602001909291905050506106c1565b005b3480156101fe57600080fd5b5061020761070c565b6040518082815260200191505060405180910390f35b34801561022957600080fd5b5061026c6004803603602081101561024057600080fd5b81019080803573ffffffffffffffffffffffffffffffffffffffff169060200190929190505050610718565b604051808273ffffffffffffffffffffffffffffffffffffffff1673ffffffffffffffffffffffffffffffffffffffff16815260200191505060405180910390f35b3480156102ba57600080fd5b506102fd600480360360208110156102d157600080fd5b81019080803573ffffffffffffffffffffffffffffffffffffffff16906020019092919050505061079c565b6040518082815260200191505060405180910390f35b34801561031f57600080fd5b5061036c6004803603604081101561033657600080fd5b81019080803573ffffffffffffffffffffffffffffffffffffffff169060200190929190803590602001909291905050506107e8565b005b34801561037a57600080fd5b506103bd6004803603602081101561039157600080fd5b81019080803573ffffffffffffffffffffffffffffffffffffffff169060200190929190505050610833565b6040518082815260200191505060405180910390f35b3480156103df57600080fd5b50610422600480360360208110156103f657600080fd5b81019080803573ffffffffffffffffffffffffffffffffffffffff16906020019092919050505061087f565b6040518082815260200191505060405180910390f35b34801561044457600080fd5b506104916004803603604081101561045b57600080fd5b81019080803573ffffffffffffffffffffffffffffffffffffffff169060200190929190803590602001909291905050506108f0565b005b34801561049f57600080fd5b506104ec600480360360408110156104b657600080fd5b81019080803573ffffffffffffffffffffffffffffffffffffffff1690602001909291908035906020019092919050505061093b565b005b3480156104fa57600080fd5b5061053d6004803603602081101561051157600080fd5b81019080803573ffffffffffffffffffffffffffffffffffffffff169060200190929190505050610986565b604051808215151515815260200191505060405180910390f35b34801561056357600080fd5b506105b06004803603604081101561057a57600080fd5b81019080803573ffffffffffffffffffffffffffffffffffffffff169060200190929190803590602001909291905050506109df565b005b3480156105be57600080fd5b50610601600480360360208110156105d557600080fd5b81019080803573ffffffffffffffffffffffffffffffffffffffff169060200190929190505050610a2a565b6040518082815260200191505060405180910390f35b6000600160008373ffffffffffffffffffffffffffffffffffffffff1673ffffffffffffffffffffffffffffffffffffffff168152602001908152602001600020600301549050919050565b80600160008473ffffffffffffffffffffffffffffffffffffffff1673ffffffffffffffffffffffffffffffffffffffff16815260200190815260200160002060040160006101000a81548160ff0219169083151502179055505050565b80600160008473ffffffffffffffffffffffffffffffffffffffff1673ffffffffffffffffffffffffffffffffffffffff168152602001908152602001600020600201819055505050565b60008080549050905090565b600080600160008473ffffffffffffffffffffffffffffffffffffffff1673ffffffffffffffffffffffffffffffffffffffff1681526020019081526020016000206005015481548110151561076a57fe5b9060005260206000200160009054906101000a900473ffffffffffffffffffffffffffffffffffffffff169050919050565b6000600160008373ffffffffffffffffffffffffffffffffffffffff1673ffffffffffffffffffffffffffffffffffffffff168152602001908152602001600020600001549050919050565b80600160008473ffffffffffffffffffffffffffffffffffffffff1673ffffffffffffffffffffffffffffffffffffffff168152602001908152602001600020600501819055505050565b6000600160008373ffffffffffffffffffffffffffffffffffffffff1673ffffffffffffffffffffffffffffffffffffffff168152602001908152602001600020600201549050919050565b6000600160008390806001815401808255809150509060018203906000526020600020016000909192909190916101000a81548173ffffffffffffffffffffffffffffffffffffffff021916908373ffffffffffffffffffffffffffffffffffffffff160217905550039050919050565b80600160008473ffffffffffffffffffffffffffffffffffffffff1673ffffffffffffffffffffffffffffffffffffffff168152602001908152602001600020600301819055505050565b80600160008473ffffffffffffffffffffffffffffffffffffffff1673ffffffffffffffffffffffffffffffffffffffff168152602001908152602001600020600001819055505050565b6000600160008373ffffffffffffffffffffffffffffffffffffffff1673ffffffffffffffffffffffffffffffffffffffff16815260200190815260200160002060040160009054906101000a900460ff169050919050565b80600160008473ffffffffffffffffffffffffffffffffffffffff1673ffffffffffffffffffffffffffffffffffffffff168152602001908152602001600020600101819055505050565b6000600160008373ffffffffffffffffffffffffffffffffffffffff1673ffffffffffffffffffffffffffffffffffffffff16815260200190815260200160002060010154905091905056fea165627a7a72305820b76b323f8d24f941c34e77f70d56e2406ac191310b43b52b3a87936108e4a6df0029",
  "source": "pragma solidity ^0.5.0;\n\n\n/**\n  * Created: 2019-03-13\n  * Modified: 2019-03-20\n  * @author Mattia\n  * @title Citizen contract\n  * @dev This contract define the storage for the citizen-type user\n  */\ncontract CitizenStorage {\n    // The struct defines the characteristics of a citizen user\n    struct Citizen {\n        bytes32 email;\n        bytes32 deliveryAddress;\n        bytes32 name;\n        bytes32 surname;\n        bool active;\n        uint index;\n    }\n\n    /*\n    * This array is needed in order to verify if a user is registered\n    */\n    address[] internal citizenList;\n\n    /*\n    * The map addressToCitizen maps an addresso to a struct.\n    * The key of the map is the user address (account address in Metamask)\n    * The value of the map is a Citizen struct\n    */\n    mapping(address => Citizen) addressToCitizen;\n\n    function getName(address _userAddress) public view returns (bytes32) {\n        return addressToCitizen[_userAddress].name;\n    }\n\n    function getEmail(address _userAddress) public view returns (bytes32) {\n        return addressToCitizen[_userAddress].email;\n    }\n\n    function getDeliveryAddressaddress (address _userAddress) public view returns (bytes32) {\n        return addressToCitizen[_userAddress].deliveryAddress;\n    }\n\n    function getActive(address _userAddress) public view returns (bool) {\n        return addressToCitizen[_userAddress].active;\n    }\n\n    function getSurname(address _userAddress) public view returns (bytes32) {\n        return addressToCitizen[_userAddress].surname;\n    }\n\n    function setName(address _userAddress, bytes32 _name) public {\n        addressToCitizen[_userAddress].name = _name;\n    }\n\n    function setEmail(address _userAddress, bytes32 _email) public {\n        addressToCitizen[_userAddress].email = _email;\n    }\n\n    function setSurname(address _userAddress, bytes32 _surname) public {\n        addressToCitizen[_userAddress].surname = _surname;\n    }\n\n    function setDeliveryAddress(address _userAddress, bytes32 _devAddress) public {\n        addressToCitizen[_userAddress].deliveryAddress = _devAddress;\n    }\n\n    function setIndex(address _userAddress, uint _index) public {\n        addressToCitizen[_userAddress].index = _index;\n    }\n\n    function setActive(address _userAddress, bool _active) public {\n        addressToCitizen[_userAddress].active = _active;\n    }\n\n    function getCitizenListLength() public view returns (uint){\n        return citizenList.length;\n    }\n\n    function getAddressAt(address _userAddress) public view returns (address) {\n        return citizenList[addressToCitizen[_userAddress].index];\n    }\n\n    function pushToCitizenList(address _userAddress) public returns (uint){\n        return citizenList.push(_userAddress) - 1 ;\n    }\n}\n",
  "sourcePath": "/home/bolzo/swe/Soldino-PoC/contracts/storage/CitizenStorage.sol",
  "compiler": {
    "name": "solc",
    "version": "0.5.0+commit.1d4f565a.Emscripten.clang"
  },
  "schemaVersion": "3.0.2",
  "updatedAt": "2019-03-29T20:25:22.267Z",
  "devdoc": {
    "author": "Mattia",
    "details": "This contract define the storage for the citizen-type user",
    "methods": {},
    "title": "Citizen contract"
  },
  "userdoc": {
    "methods": {},
    "notice": "Created: 2019-03-13 Modified: 2019-03-20"
  }
}