{
  "contractName": "ContractManager",
  "abi": [
    {
      "inputs": [],
      "payable": false,
      "stateMutability": "nonpayable",
      "type": "constructor",
      "signature": "constructor"
    },
    {
      "constant": true,
      "inputs": [],
      "name": "getUserStorageAddress",
      "outputs": [
        {
          "name": "",
          "type": "address"
        }
      ],
      "payable": false,
      "stateMutability": "view",
      "type": "function",
      "signature": "0x4be2df60"
    },
    {
      "constant": false,
      "inputs": [
        {
          "name": "_userStorageAddress",
          "type": "address"
        }
      ],
      "name": "setUserStorageAddress",
      "outputs": [],
      "payable": false,
      "stateMutability": "nonpayable",
      "type": "function",
      "signature": "0xe4f9a5cc"
    },
    {
      "constant": true,
      "inputs": [],
      "name": "getGovernmentAddress",
      "outputs": [
        {
          "name": "",
          "type": "address"
        }
      ],
      "payable": false,
      "stateMutability": "view",
      "type": "function",
      "signature": "0x870c8079"
    },
    {
      "constant": false,
      "inputs": [
        {
          "name": "_governmentAddress",
          "type": "address"
        }
      ],
      "name": "setGovernmentAddress",
      "outputs": [],
      "payable": false,
      "stateMutability": "nonpayable",
      "type": "function",
      "signature": "0x6a137219"
    },
    {
      "constant": true,
      "inputs": [],
      "name": "getCitizenLogicAddress",
      "outputs": [
        {
          "name": "",
          "type": "address"
        }
      ],
      "payable": false,
      "stateMutability": "view",
      "type": "function",
      "signature": "0xc72e463c"
    },
    {
      "constant": false,
      "inputs": [
        {
          "name": "_newCitizenLogicAddress",
          "type": "address"
        }
      ],
      "name": "setCitizenLogicAddress",
      "outputs": [],
      "payable": false,
      "stateMutability": "nonpayable",
      "type": "function",
      "signature": "0x72731390"
    },
    {
      "constant": true,
      "inputs": [],
      "name": "getCitizenStorageAddress",
      "outputs": [
        {
          "name": "",
          "type": "address"
        }
      ],
      "payable": false,
      "stateMutability": "view",
      "type": "function",
      "signature": "0x2ad04621"
    },
    {
      "constant": false,
      "inputs": [
        {
          "name": "_newCitizenStorageAddress",
          "type": "address"
        }
      ],
      "name": "setCitizenStorageAddress",
      "outputs": [],
      "payable": false,
      "stateMutability": "nonpayable",
      "type": "function",
      "signature": "0xb8dfdd4c"
    },
    {
      "constant": true,
      "inputs": [],
      "name": "getBusinessLogicAddress",
      "outputs": [
        {
          "name": "",
          "type": "address"
        }
      ],
      "payable": false,
      "stateMutability": "view",
      "type": "function",
      "signature": "0x1549ac20"
    },
    {
      "constant": false,
      "inputs": [
        {
          "name": "_newBusinessLogicAddress",
          "type": "address"
        }
      ],
      "name": "setBusinessLogicAddress",
      "outputs": [],
      "payable": false,
      "stateMutability": "nonpayable",
      "type": "function",
      "signature": "0x91979761"
    },
    {
      "constant": true,
      "inputs": [],
      "name": "getBusinessStorageAddress",
      "outputs": [
        {
          "name": "",
          "type": "address"
        }
      ],
      "payable": false,
      "stateMutability": "view",
      "type": "function",
      "signature": "0xcce353e9"
    },
    {
      "constant": false,
      "inputs": [
        {
          "name": "_newBusinessStorageAddress",
          "type": "address"
        }
      ],
      "name": "setBusinessStorageAddress",
      "outputs": [],
      "payable": false,
      "stateMutability": "nonpayable",
      "type": "function",
      "signature": "0x62ea24e0"
    }
  ],
  "bytecode": "0x608060405234801561001057600080fd5b50336000806101000a81548173ffffffffffffffffffffffffffffffffffffffff021916908373ffffffffffffffffffffffffffffffffffffffff160217905550610b08806100606000396000f3fe608060405234801561001057600080fd5b50600436106100d1576000357c010000000000000000000000000000000000000000000000000000000090048063870c80791161008e578063870c80791461028057806391979761146102ca578063b8dfdd4c1461030e578063c72e463c14610352578063cce353e91461039c578063e4f9a5cc146103e6576100d1565b80631549ac20146100d65780632ad04621146101205780634be2df601461016a57806362ea24e0146101b45780636a137219146101f8578063727313901461023c575b600080fd5b6100de61042a565b604051808273ffffffffffffffffffffffffffffffffffffffff1673ffffffffffffffffffffffffffffffffffffffff16815260200191505060405180910390f35b610128610454565b604051808273ffffffffffffffffffffffffffffffffffffffff1673ffffffffffffffffffffffffffffffffffffffff16815260200191505060405180910390f35b61017261047e565b604051808273ffffffffffffffffffffffffffffffffffffffff1673ffffffffffffffffffffffffffffffffffffffff16815260200191505060405180910390f35b6101f6600480360360208110156101ca57600080fd5b81019080803573ffffffffffffffffffffffffffffffffffffffff1690602001909291905050506104a8565b005b61023a6004803603602081101561020e57600080fd5b81019080803573ffffffffffffffffffffffffffffffffffffffff169060200190929190505050610593565b005b61027e6004803603602081101561025257600080fd5b81019080803573ffffffffffffffffffffffffffffffffffffffff16906020019092919050505061067e565b005b610288610769565b604051808273ffffffffffffffffffffffffffffffffffffffff1673ffffffffffffffffffffffffffffffffffffffff16815260200191505060405180910390f35b61030c600480360360208110156102e057600080fd5b81019080803573ffffffffffffffffffffffffffffffffffffffff169060200190929190505050610793565b005b6103506004803603602081101561032457600080fd5b81019080803573ffffffffffffffffffffffffffffffffffffffff16906020019092919050505061087e565b005b61035a610969565b604051808273ffffffffffffffffffffffffffffffffffffffff1673ffffffffffffffffffffffffffffffffffffffff16815260200191505060405180910390f35b6103a4610993565b604051808273ffffffffffffffffffffffffffffffffffffffff1673ffffffffffffffffffffffffffffffffffffffff16815260200191505060405180910390f35b610428600480360360208110156103fc57600080fd5b81019080803573ffffffffffffffffffffffffffffffffffffffff1690602001909291905050506109bd565b005b6000600360009054906101000a900473ffffffffffffffffffffffffffffffffffffffff16905090565b6000600260009054906101000a900473ffffffffffffffffffffffffffffffffffffffff16905090565b6000600560009054906101000a900473ffffffffffffffffffffffffffffffffffffffff16905090565b6000809054906101000a900473ffffffffffffffffffffffffffffffffffffffff1673ffffffffffffffffffffffffffffffffffffffff163373ffffffffffffffffffffffffffffffffffffffff1614151561054f576040517f08c379a0000000000000000000000000000000000000000000000000000000008152600401808060200182810382526034815260200180610aa96034913960400191505060405180910390fd5b80600460006101000a81548173ffffffffffffffffffffffffffffffffffffffff021916908373ffffffffffffffffffffffffffffffffffffffff16021790555050565b6000809054906101000a900473ffffffffffffffffffffffffffffffffffffffff1673ffffffffffffffffffffffffffffffffffffffff163373ffffffffffffffffffffffffffffffffffffffff1614151561063a576040517f08c379a0000000000000000000000000000000000000000000000000000000008152600401808060200182810382526034815260200180610aa96034913960400191505060405180910390fd5b80600660006101000a81548173ffffffffffffffffffffffffffffffffffffffff021916908373ffffffffffffffffffffffffffffffffffffffff16021790555050565b6000809054906101000a900473ffffffffffffffffffffffffffffffffffffffff1673ffffffffffffffffffffffffffffffffffffffff163373ffffffffffffffffffffffffffffffffffffffff16141515610725576040517f08c379a0000000000000000000000000000000000000000000000000000000008152600401808060200182810382526034815260200180610aa96034913960400191505060405180910390fd5b80600160006101000a81548173ffffffffffffffffffffffffffffffffffffffff021916908373ffffffffffffffffffffffffffffffffffffffff16021790555050565b6000600660009054906101000a900473ffffffffffffffffffffffffffffffffffffffff16905090565b6000809054906101000a900473ffffffffffffffffffffffffffffffffffffffff1673ffffffffffffffffffffffffffffffffffffffff163373ffffffffffffffffffffffffffffffffffffffff1614151561083a576040517f08c379a0000000000000000000000000000000000000000000000000000000008152600401808060200182810382526034815260200180610aa96034913960400191505060405180910390fd5b80600360006101000a81548173ffffffffffffffffffffffffffffffffffffffff021916908373ffffffffffffffffffffffffffffffffffffffff16021790555050565b6000809054906101000a900473ffffffffffffffffffffffffffffffffffffffff1673ffffffffffffffffffffffffffffffffffffffff163373ffffffffffffffffffffffffffffffffffffffff16141515610925576040517f08c379a0000000000000000000000000000000000000000000000000000000008152600401808060200182810382526034815260200180610aa96034913960400191505060405180910390fd5b80600260006101000a81548173ffffffffffffffffffffffffffffffffffffffff021916908373ffffffffffffffffffffffffffffffffffffffff16021790555050565b6000600160009054906101000a900473ffffffffffffffffffffffffffffffffffffffff16905090565b6000600460009054906101000a900473ffffffffffffffffffffffffffffffffffffffff16905090565b6000809054906101000a900473ffffffffffffffffffffffffffffffffffffffff1673ffffffffffffffffffffffffffffffffffffffff163373ffffffffffffffffffffffffffffffffffffffff16141515610a64576040517f08c379a0000000000000000000000000000000000000000000000000000000008152600401808060200182810382526034815260200180610aa96034913960400191505060405180910390fd5b80600560006101000a81548173ffffffffffffffffffffffffffffffffffffffff021916908373ffffffffffffffffffffffffffffffffffffffff1602179055505056fe4f6e6c7920746865206f776e657220676f74207065726d697373696f6e7320746f206368616e6765207468652061646472657373a165627a7a7230582097c96194484b1432f04e2a3d1cd10b54c3ec0e0d498a536e6033fc6de3da06260029",
  "source": "pragma solidity ^0.5.0;\n\ncontract ContractManager {\n\n    address ownerAddress;\n    address citizenLogicAddress;\n    address citizenStorageAddress;\n    address businessLogicAddress;\n    address businessStorageAddress;\n    address userStorageAddress;\n    address governmentAddress;\n\n    constructor () public {\n        ownerAddress = msg.sender;\n    }\n\n    modifier onlyOwner() {\n        require(msg.sender == ownerAddress, \"Only the owner got permissions to change the address\");\n        _;\n    }\n\n    function getUserStorageAddress() public view returns(address) {\n        return userStorageAddress;\n    }\n\n    function setUserStorageAddress(address _userStorageAddress) public onlyOwner {\n        userStorageAddress = _userStorageAddress;\n    }\n\n    function getGovernmentAddress() public view returns(address) {\n        return governmentAddress;\n    }\n\n    function setGovernmentAddress(address _governmentAddress) public onlyOwner {\n        governmentAddress = _governmentAddress;\n    }\n\n    function getCitizenLogicAddress() public view returns(address) {\n        return citizenLogicAddress;\n    }\n\n    function setCitizenLogicAddress(address _newCitizenLogicAddress) public onlyOwner {\n        citizenLogicAddress = _newCitizenLogicAddress;\n    }\n\n    function getCitizenStorageAddress() public view returns(address) {\n        return citizenStorageAddress;\n    }\n\n    function setCitizenStorageAddress(address _newCitizenStorageAddress) public onlyOwner {\n        citizenStorageAddress = _newCitizenStorageAddress;\n    }\n\n    function getBusinessLogicAddress() public view returns(address) {\n        return businessLogicAddress;\n    }\n\n    function setBusinessLogicAddress(address _newBusinessLogicAddress) public onlyOwner {\n        businessLogicAddress = _newBusinessLogicAddress;\n    }\n\n    function getBusinessStorageAddress() public view returns(address) {\n        return businessStorageAddress;\n    }\n\n    function setBusinessStorageAddress(address _newBusinessStorageAddress) public onlyOwner {\n        businessStorageAddress = _newBusinessStorageAddress;\n    }\n}\n",
  "sourcePath": "/home/samuele/Desktop/Soldino-PoC/contracts/ContractManager.sol",
  "compiler": {
    "name": "solc",
    "version": "0.5.4+commit.9549d8ff.Emscripten.clang"
  },
  "schemaVersion": "3.0.0-beta.2",
  "updatedAt": "2019-03-29T13:01:34.859Z",
  "devdoc": {
    "methods": {}
  },
  "userdoc": {
    "methods": {}
  }
}