{
  "contractName": "ContractManager",
  "abi": [
    {
      "inputs": [],
      "payable": false,
      "stateMutability": "nonpayable",
      "type": "constructor"
    },
    {
      "constant": true,
      "inputs": [],
      "name": "getUserDataAddress",
      "outputs": [
        {
          "name": "",
          "type": "address"
        }
      ],
      "payable": false,
      "stateMutability": "view",
      "type": "function"
    },
    {
      "constant": true,
      "inputs": [],
      "name": "getUserLogicAddress",
      "outputs": [
        {
          "name": "",
          "type": "address"
        }
      ],
      "payable": false,
      "stateMutability": "view",
      "type": "function"
    },
    {
      "constant": true,
      "inputs": [],
      "name": "getCitizenDataAddress",
      "outputs": [
        {
          "name": "",
          "type": "address"
        }
      ],
      "payable": false,
      "stateMutability": "view",
      "type": "function"
    },
    {
      "constant": true,
      "inputs": [],
      "name": "getCitizenLogicAddress",
      "outputs": [
        {
          "name": "",
          "type": "address"
        }
      ],
      "payable": false,
      "stateMutability": "view",
      "type": "function"
    },
    {
      "constant": false,
      "inputs": [
        {
          "name": "_newUserDataAddress",
          "type": "address"
        }
      ],
      "name": "setUserDataAddress",
      "outputs": [],
      "payable": false,
      "stateMutability": "nonpayable",
      "type": "function"
    },
    {
      "constant": false,
      "inputs": [
        {
          "name": "_newUserLogicAddress",
          "type": "address"
        }
      ],
      "name": "setUserLoginAddress",
      "outputs": [],
      "payable": false,
      "stateMutability": "nonpayable",
      "type": "function"
    },
    {
      "constant": false,
      "inputs": [
        {
          "name": "_newCitizenDataAddress",
          "type": "address"
        }
      ],
      "name": "setCitizenDataAddress",
      "outputs": [],
      "payable": false,
      "stateMutability": "nonpayable",
      "type": "function"
    },
    {
      "constant": false,
      "inputs": [
        {
          "name": "_newCitizenLogicAddress",
          "type": "address"
        }
      ],
      "name": "setCitizenLogicAddress",
      "outputs": [],
      "payable": false,
      "stateMutability": "nonpayable",
      "type": "function"
    }
  ],
  "bytecode": "0x608060405234801561001057600080fd5b5033600460006101000a81548173ffffffffffffffffffffffffffffffffffffffff021916908373ffffffffffffffffffffffffffffffffffffffff160217905550610798806100616000396000f3fe608060405234801561001057600080fd5b50600436106100a5576000357c0100000000000000000000000000000000000000000000000000000000900480639dd02b63116100785780639dd02b63146101c6578063a260dad61461020a578063c72e463c14610254578063e42606f11461029e576100a5565b80635c09d628146100aa57806372731390146100ee57806379bd6cf9146101325780637ce29f721461017c575b600080fd5b6100ec600480360360208110156100c057600080fd5b81019080803573ffffffffffffffffffffffffffffffffffffffff1690602001909291905050506102e2565b005b6101306004803603602081101561010457600080fd5b81019080803573ffffffffffffffffffffffffffffffffffffffff1690602001909291905050506103ce565b005b61013a6104ba565b604051808273ffffffffffffffffffffffffffffffffffffffff1673ffffffffffffffffffffffffffffffffffffffff16815260200191505060405180910390f35b6101846104e4565b604051808273ffffffffffffffffffffffffffffffffffffffff1673ffffffffffffffffffffffffffffffffffffffff16815260200191505060405180910390f35b610208600480360360208110156101dc57600080fd5b81019080803573ffffffffffffffffffffffffffffffffffffffff16906020019092919050505061050d565b005b6102126105f8565b604051808273ffffffffffffffffffffffffffffffffffffffff1673ffffffffffffffffffffffffffffffffffffffff16815260200191505060405180910390f35b61025c610622565b604051808273ffffffffffffffffffffffffffffffffffffffff1673ffffffffffffffffffffffffffffffffffffffff16815260200191505060405180910390f35b6102e0600480360360208110156102b457600080fd5b81019080803573ffffffffffffffffffffffffffffffffffffffff16906020019092919050505061064c565b005b600460009054906101000a900473ffffffffffffffffffffffffffffffffffffffff1673ffffffffffffffffffffffffffffffffffffffff163373ffffffffffffffffffffffffffffffffffffffff1614151561038a576040517f08c379a00000000000000000000000000000000000000000000000000000000081526004018080602001828103825260348152602001806107396034913960400191505060405180910390fd5b80600160006101000a81548173ffffffffffffffffffffffffffffffffffffffff021916908373ffffffffffffffffffffffffffffffffffffffff16021790555050565b600460009054906101000a900473ffffffffffffffffffffffffffffffffffffffff1673ffffffffffffffffffffffffffffffffffffffff163373ffffffffffffffffffffffffffffffffffffffff16141515610476576040517f08c379a00000000000000000000000000000000000000000000000000000000081526004018080602001828103825260348152602001806107396034913960400191505060405180910390fd5b80600260006101000a81548173ffffffffffffffffffffffffffffffffffffffff021916908373ffffffffffffffffffffffffffffffffffffffff16021790555050565b6000600160009054906101000a900473ffffffffffffffffffffffffffffffffffffffff16905090565b60008060009054906101000a900473ffffffffffffffffffffffffffffffffffffffff16905090565b600460009054906101000a900473ffffffffffffffffffffffffffffffffffffffff1673ffffffffffffffffffffffffffffffffffffffff163373ffffffffffffffffffffffffffffffffffffffff161415156105b5576040517f08c379a00000000000000000000000000000000000000000000000000000000081526004018080602001828103825260348152602001806107396034913960400191505060405180910390fd5b806000806101000a81548173ffffffffffffffffffffffffffffffffffffffff021916908373ffffffffffffffffffffffffffffffffffffffff16021790555050565b6000600360009054906101000a900473ffffffffffffffffffffffffffffffffffffffff16905090565b6000600260009054906101000a900473ffffffffffffffffffffffffffffffffffffffff16905090565b600460009054906101000a900473ffffffffffffffffffffffffffffffffffffffff1673ffffffffffffffffffffffffffffffffffffffff163373ffffffffffffffffffffffffffffffffffffffff161415156106f4576040517f08c379a00000000000000000000000000000000000000000000000000000000081526004018080602001828103825260348152602001806107396034913960400191505060405180910390fd5b80600360006101000a81548173ffffffffffffffffffffffffffffffffffffffff021916908373ffffffffffffffffffffffffffffffffffffffff1602179055505056fe4f6e6c7920746865206f776e657220676f74207065726d697373696f6e7320746f206368616e6765207468652061646472657373a165627a7a723058207dc824db5d6af83f95229652c95b502c444e71b542bb94b1221f73435ba249cb0029",
  "source": "pragma solidity ^0.5.0;\n\ncontract ContractManager {\n    address userLogicAddress;\n    address userDataAddress;\n    address citizenLogicAddress;\n    address citizenDataAddress;\n    address ownerAddress;\n\n    constructor() public {\n        ownerAddress = msg.sender;\n    }\n\n    modifier onlyOwner() {\n        require(msg.sender == ownerAddress, \"Only the owner got permissions to change the address\");\n        _;\n    }\n\n    function getUserDataAddress() public view returns(address) {\n        return userDataAddress;\n    }\n\n    function getUserLogicAddress() public view returns(address) {\n        return userLogicAddress;\n    }\n\n    function getCitizenDataAddress() public view returns(address) {\n        return citizenDataAddress;\n    }\n\n    function getCitizenLogicAddress() public view returns(address) {\n        return citizenLogicAddress;\n    }\n\n    function setUserDataAddress(address _newUserDataAddress) public onlyOwner {\n        userDataAddress = _newUserDataAddress;\n    }\n\n    function setUserLoginAddress(address _newUserLogicAddress) public onlyOwner {\n        userLogicAddress = _newUserLogicAddress;\n    }\n\n    function setCitizenDataAddress(address _newCitizenDataAddress) public onlyOwner {\n        citizenDataAddress = _newCitizenDataAddress;\n    }\n\n    function setCitizenLogicAddress(address _newCitizenLogicAddress) public onlyOwner {\n        citizenLogicAddress = _newCitizenLogicAddress;\n    }\n\n}\n",
  "sourcePath": "/home/samuele/Desktop/Soldino-PoC/contracts/ContractManager.sol",
  "compiler": {
    "name": "solc",
    "version": "0.5.4+commit.9549d8ff.Emscripten.clang"
  },
  "schemaVersion": "3.0.0-beta.2",
  "updatedAt": "2019-03-21T10:47:50.922Z",
  "devdoc": {
    "methods": {}
  },
  "userdoc": {
    "methods": {}
  }
}