{
  "contractName": "ContractManager",
  "abi": [
    {
      "inputs": [],
      "payable": false,
      "stateMutability": "nonpayable",
      "type": "constructor"
    },
    {
      "constant": true,
      "inputs": [],
      "name": "getUserDataAddress",
      "outputs": [
        {
          "name": "",
          "type": "address"
        }
      ],
      "payable": false,
      "stateMutability": "view",
      "type": "function"
    },
    {
      "constant": true,
      "inputs": [],
      "name": "getUserLogicAddress",
      "outputs": [
        {
          "name": "",
          "type": "address"
        }
      ],
      "payable": false,
      "stateMutability": "view",
      "type": "function"
    },
    {
      "constant": true,
      "inputs": [],
      "name": "getCitizenDataAddress",
      "outputs": [
        {
          "name": "",
          "type": "address"
        }
      ],
      "payable": false,
      "stateMutability": "view",
      "type": "function"
    },
    {
      "constant": true,
      "inputs": [],
      "name": "getCitizenLogicAddress",
      "outputs": [
        {
          "name": "",
          "type": "address"
        }
      ],
      "payable": false,
      "stateMutability": "view",
      "type": "function"
    },
    {
      "constant": false,
      "inputs": [
        {
          "name": "_newUserDataAddress",
          "type": "address"
        }
      ],
      "name": "setUserDataAddress",
      "outputs": [],
      "payable": false,
      "stateMutability": "nonpayable",
      "type": "function"
    },
    {
      "constant": false,
      "inputs": [
        {
          "name": "_newUserLogicAddress",
          "type": "address"
        }
      ],
      "name": "setUserLoginAddress",
      "outputs": [],
      "payable": false,
      "stateMutability": "nonpayable",
      "type": "function"
    },
    {
      "constant": false,
      "inputs": [
        {
          "name": "_newCitizenDataAddress",
          "type": "address"
        }
      ],
      "name": "setCitizenDataAddress",
      "outputs": [],
      "payable": false,
      "stateMutability": "nonpayable",
      "type": "function"
    },
    {
      "constant": false,
      "inputs": [
        {
          "name": "_newCitizenLogicAddress",
          "type": "address"
        }
      ],
      "name": "setCitizenLogicAddress",
      "outputs": [],
      "payable": false,
      "stateMutability": "nonpayable",
      "type": "function"
    }
  ],
  "bytecode": "0x608060405234801561001057600080fd5b5033600460006101000a81548173ffffffffffffffffffffffffffffffffffffffff021916908373ffffffffffffffffffffffffffffffffffffffff1602179055506108c1806100616000396000f3fe60806040526004361061008e576000357c0100000000000000000000000000000000000000000000000000000000900463ffffffff1680635c09d6281461009357806372731390146100e457806379bd6cf9146101355780637ce29f721461018c5780639dd02b63146101e3578063a260dad614610234578063c72e463c1461028b578063e42606f1146102e2575b600080fd5b34801561009f57600080fd5b506100e2600480360360208110156100b657600080fd5b81019080803573ffffffffffffffffffffffffffffffffffffffff169060200190929190505050610333565b005b3480156100f057600080fd5b506101336004803603602081101561010757600080fd5b81019080803573ffffffffffffffffffffffffffffffffffffffff169060200190929190505050610462565b005b34801561014157600080fd5b5061014a610591565b604051808273ffffffffffffffffffffffffffffffffffffffff1673ffffffffffffffffffffffffffffffffffffffff16815260200191505060405180910390f35b34801561019857600080fd5b506101a16105bb565b604051808273ffffffffffffffffffffffffffffffffffffffff1673ffffffffffffffffffffffffffffffffffffffff16815260200191505060405180910390f35b3480156101ef57600080fd5b506102326004803603602081101561020657600080fd5b81019080803573ffffffffffffffffffffffffffffffffffffffff1690602001909291905050506105e4565b005b34801561024057600080fd5b50610249610712565b604051808273ffffffffffffffffffffffffffffffffffffffff1673ffffffffffffffffffffffffffffffffffffffff16815260200191505060405180910390f35b34801561029757600080fd5b506102a061073c565b604051808273ffffffffffffffffffffffffffffffffffffffff1673ffffffffffffffffffffffffffffffffffffffff16815260200191505060405180910390f35b3480156102ee57600080fd5b506103316004803603602081101561030557600080fd5b81019080803573ffffffffffffffffffffffffffffffffffffffff169060200190929190505050610766565b005b600460009054906101000a900473ffffffffffffffffffffffffffffffffffffffff1673ffffffffffffffffffffffffffffffffffffffff163373ffffffffffffffffffffffffffffffffffffffff1614151561041e576040517f08c379a00000000000000000000000000000000000000000000000000000000081526004018080602001828103825260348152602001807f4f6e6c7920746865206f776e657220676f74207065726d697373696f6e73207481526020017f6f206368616e676520746865206164647265737300000000000000000000000081525060400191505060405180910390fd5b80600160006101000a81548173ffffffffffffffffffffffffffffffffffffffff021916908373ffffffffffffffffffffffffffffffffffffffff16021790555050565b600460009054906101000a900473ffffffffffffffffffffffffffffffffffffffff1673ffffffffffffffffffffffffffffffffffffffff163373ffffffffffffffffffffffffffffffffffffffff1614151561054d576040517f08c379a00000000000000000000000000000000000000000000000000000000081526004018080602001828103825260348152602001807f4f6e6c7920746865206f776e657220676f74207065726d697373696f6e73207481526020017f6f206368616e676520746865206164647265737300000000000000000000000081525060400191505060405180910390fd5b80600260006101000a81548173ffffffffffffffffffffffffffffffffffffffff021916908373ffffffffffffffffffffffffffffffffffffffff16021790555050565b6000600160009054906101000a900473ffffffffffffffffffffffffffffffffffffffff16905090565b60008060009054906101000a900473ffffffffffffffffffffffffffffffffffffffff16905090565b600460009054906101000a900473ffffffffffffffffffffffffffffffffffffffff1673ffffffffffffffffffffffffffffffffffffffff163373ffffffffffffffffffffffffffffffffffffffff161415156106cf576040517f08c379a00000000000000000000000000000000000000000000000000000000081526004018080602001828103825260348152602001807f4f6e6c7920746865206f776e657220676f74207065726d697373696f6e73207481526020017f6f206368616e676520746865206164647265737300000000000000000000000081525060400191505060405180910390fd5b806000806101000a81548173ffffffffffffffffffffffffffffffffffffffff021916908373ffffffffffffffffffffffffffffffffffffffff16021790555050565b6000600360009054906101000a900473ffffffffffffffffffffffffffffffffffffffff16905090565b6000600260009054906101000a900473ffffffffffffffffffffffffffffffffffffffff16905090565b600460009054906101000a900473ffffffffffffffffffffffffffffffffffffffff1673ffffffffffffffffffffffffffffffffffffffff163373ffffffffffffffffffffffffffffffffffffffff16141515610851576040517f08c379a00000000000000000000000000000000000000000000000000000000081526004018080602001828103825260348152602001807f4f6e6c7920746865206f776e657220676f74207065726d697373696f6e73207481526020017f6f206368616e676520746865206164647265737300000000000000000000000081525060400191505060405180910390fd5b80600360006101000a81548173ffffffffffffffffffffffffffffffffffffffff021916908373ffffffffffffffffffffffffffffffffffffffff1602179055505056fea165627a7a723058209148a900b4259168ce000fe73454eaae0589ecf7a79806146e61fcb648a1666a0029",
  "source": "pragma solidity ^0.5.0;\n\ncontract ContractManager {\n    address userLogicAddress;\n    address userDataAddress;\n    address citizenLogicAddress;\n    address citizenDataAddress;\n    address ownerAddress;\n\n    constructor() public {\n        ownerAddress = msg.sender;\n    }\n\n    modifier onlyOwner() {\n        require(msg.sender == ownerAddress, \"Only the owner got permissions to change the address\");\n        _;\n    }\n\n    function getUserDataAddress() public view returns(address) {\n        return userDataAddress;\n    }\n\n    function getUserLogicAddress() public view returns(address) {\n        return userLogicAddress;\n    }\n\n    function getCitizenDataAddress() public view returns(address) {\n        return citizenDataAddress;\n    }\n\n    function getCitizenLogicAddress() public view returns(address) {\n        return citizenLogicAddress;\n    }\n\n    function setUserDataAddress(address _newUserDataAddress) public onlyOwner {\n        userDataAddress = _newUserDataAddress;\n    }\n\n    function setUserLoginAddress(address _newUserLogicAddress) public onlyOwner {\n        userLogicAddress = _newUserLogicAddress;\n    }\n\n    function setCitizenDataAddress(address _newCitizenDataAddress) public onlyOwner {\n        citizenDataAddress = _newCitizenDataAddress;\n    }\n\n    function setCitizenLogicAddress(address _newCitizenLogicAddress) public onlyOwner {\n        citizenLogicAddress = _newCitizenLogicAddress;\n    }\n\n}\n",
  "sourcePath": "/home/bolzo/SWE/Soldino-PoC/contracts/ContractManager.sol",
  "compiler": {
    "name": "solc",
    "version": "0.5.0+commit.1d4f565a.Emscripten.clang"
  },
  "schemaVersion": "3.0.1",
  "updatedAt": "2019-03-29T22:00:33.192Z",
  "devdoc": {
    "methods": {}
  },
  "userdoc": {
    "methods": {}
  }
}