{
  "contractName": "Escrow",
  "abi": [
    {
      "constant": true,
      "inputs": [
        {
          "name": "",
          "type": "address"
        }
      ],
      "name": "registrantsPaid",
      "outputs": [
        {
          "name": "",
          "type": "uint256"
        }
      ],
      "payable": false,
      "stateMutability": "view",
      "type": "function"
    },
    {
      "inputs": [
        {
          "name": "_token",
          "type": "address"
        }
      ],
      "payable": false,
      "stateMutability": "nonpayable",
      "type": "constructor"
    },
    {
      "anonymous": false,
      "inputs": [
        {
          "indexed": false,
          "name": "_from",
          "type": "address"
        },
        {
          "indexed": false,
          "name": "_to",
          "type": "address"
        },
        {
          "indexed": false,
          "name": "_ammount",
          "type": "uint256"
        }
      ],
      "name": "OrderReceived",
      "type": "event"
    },
    {
      "constant": false,
      "inputs": [
        {
          "name": "_from",
          "type": "address"
        },
        {
          "name": "_value",
          "type": "uint256"
        },
        {
          "name": "_token",
          "type": "address"
        },
        {
          "name": "_extraData",
          "type": "bytes"
        }
      ],
      "name": "receiveApproval",
      "outputs": [],
      "payable": false,
      "stateMutability": "nonpayable",
      "type": "function"
    },
    {
      "constant": false,
      "inputs": [
        {
          "name": "_seller",
          "type": "address"
        },
        {
          "name": "_value",
          "type": "uint256"
        }
      ],
      "name": "confirmBuy",
      "outputs": [],
      "payable": false,
      "stateMutability": "nonpayable",
      "type": "function"
    }
  ],
  "bytecode": "0x608060405234801561001057600080fd5b506040516020806105db8339810180604052602081101561003057600080fd5b8101908080519060200190929190505050806000806101000a81548173ffffffffffffffffffffffffffffffffffffffff021916908373ffffffffffffffffffffffffffffffffffffffff1602179055505061054a806100916000396000f3fe608060405260043610610057576000357c0100000000000000000000000000000000000000000000000000000000900463ffffffff16806313381fbf1461005c57806380c3f6a3146100c15780638f4ffcb11461011c575b600080fd5b34801561006857600080fd5b506100ab6004803603602081101561007f57600080fd5b81019080803573ffffffffffffffffffffffffffffffffffffffff1690602001909291905050506101ec565b6040518082815260200191505060405180910390f35b3480156100cd57600080fd5b5061011a600480360360408110156100e457600080fd5b81019080803573ffffffffffffffffffffffffffffffffffffffff16906020019092919080359060200190929190505050610204565b005b34801561012857600080fd5b506101ea6004803603608081101561013f57600080fd5b81019080803573ffffffffffffffffffffffffffffffffffffffff16906020019092919080359060200190929190803573ffffffffffffffffffffffffffffffffffffffff169060200190929190803590602001906401000000008111156101a657600080fd5b8201836020820111156101b857600080fd5b803590602001918460018302840111640100000000831117156101da57600080fd5b90919293919293905050506103a7565b005b60016020528060005260406000206000915090505481565b6000809054906101000a900473ffffffffffffffffffffffffffffffffffffffff1673ffffffffffffffffffffffffffffffffffffffff1663a9059cbb83836040518363ffffffff167c0100000000000000000000000000000000000000000000000000000000028152600401808373ffffffffffffffffffffffffffffffffffffffff1673ffffffffffffffffffffffffffffffffffffffff16815260200182815260200192505050602060405180830381600087803b1580156102c857600080fd5b505af11580156102dc573d6000803e3d6000fd5b505050506040513d60208110156102f257600080fd5b8101908080519060200190929190505050507f5a55de23a286149acbcbca3e25d46db29edcdf5a7a08cdcc9c8a28b8e4816865338383604051808473ffffffffffffffffffffffffffffffffffffffff1673ffffffffffffffffffffffffffffffffffffffff1681526020018373ffffffffffffffffffffffffffffffffffffffff1673ffffffffffffffffffffffffffffffffffffffff168152602001828152602001935050505060405180910390a15050565b60008390508073ffffffffffffffffffffffffffffffffffffffff166323b872dd8730886040518463ffffffff167c0100000000000000000000000000000000000000000000000000000000028152600401808473ffffffffffffffffffffffffffffffffffffffff1673ffffffffffffffffffffffffffffffffffffffff1681526020018373ffffffffffffffffffffffffffffffffffffffff1673ffffffffffffffffffffffffffffffffffffffff1681526020018281526020019350505050602060405180830381600087803b15801561048357600080fd5b505af1158015610497573d6000803e3d6000fd5b505050506040513d60208110156104ad57600080fd5b810190808051906020019092919050505015156104c957600080fd5b84600160008873ffffffffffffffffffffffffffffffffffffffff1673ffffffffffffffffffffffffffffffffffffffff1681526020019081526020016000206000828254019250508190555050505050505056fea165627a7a723058204690416823c5d94faf09a455ee129409a5437b360baa16f84f2e4382134edabd0029",
  "source": "pragma solidity ^0.5.0;\n\n\nimport \"../TokenCubit.sol\";\n\ncontract Escrow is tokenRecipient{\n    // accounts who have sent cubit to the contract\n    TokenERC20 cubitContract;\n    mapping (address => uint256) public registrantsPaid;\n\n    event OrderReceived(address _from, address _to, uint256 _ammount);\n\n    constructor(address _token) public {\n        cubitContract = TokenERC20(_token);\n    }\n\n    //override\n    function receiveApproval(address _from, uint256 _value, address _token, bytes calldata _extraData) external {\n       TokenERC20 cubitToken = TokenERC20(_token);\n       require(cubitToken.transferFrom(_from, address(this), _value));\n       registrantsPaid[_from] += _value;\n    }\n\n    function confirmBuy(address _seller, uint256 _value) public {\n        cubitContract.transfer(_seller, _value);\n        emit OrderReceived(msg.sender, _seller, _value);\n    }\n\n}\n",
  "sourcePath": "/home/bolzo/SWE/Soldino-PoC/contracts/trade/Escrow.sol",
  "compiler": {
    "name": "solc",
    "version": "0.5.0+commit.1d4f565a.Emscripten.clang"
  },
  "schemaVersion": "3.0.1",
  "updatedAt": "2019-03-22T14:50:38.504Z",
  "devdoc": {
    "methods": {}
  },
  "userdoc": {
    "methods": {}
  }
}