{
  "contractName": "ProductStorage",
  "abi": [
    {
      "constant": true,
      "inputs": [
        {
          "name": "_sellerAddress",
          "type": "address"
        }
      ],
      "name": "getSeller",
      "outputs": [
        {
          "name": "",
          "type": "address"
        }
      ],
      "payable": false,
      "stateMutability": "view",
      "type": "function"
    },
    {
      "constant": true,
      "inputs": [
        {
          "name": "_sellerAddress",
          "type": "address"
        }
      ],
      "name": "getName",
      "outputs": [
        {
          "name": "",
          "type": "bytes32"
        }
      ],
      "payable": false,
      "stateMutability": "view",
      "type": "function"
    },
    {
      "constant": true,
      "inputs": [
        {
          "name": "_sellerAddress",
          "type": "address"
        }
      ],
      "name": "getNetSellPrice",
      "outputs": [
        {
          "name": "",
          "type": "uint256"
        }
      ],
      "payable": false,
      "stateMutability": "view",
      "type": "function"
    },
    {
      "constant": true,
      "inputs": [
        {
          "name": "_sellerAddress",
          "type": "address"
        }
      ],
      "name": "getVAT",
      "outputs": [
        {
          "name": "",
          "type": "uint8"
        }
      ],
      "payable": false,
      "stateMutability": "view",
      "type": "function"
    },
    {
      "constant": true,
      "inputs": [
        {
          "name": "_sellerAddress",
          "type": "address"
        }
      ],
      "name": "getDescription",
      "outputs": [
        {
          "name": "",
          "type": "string"
        }
      ],
      "payable": false,
      "stateMutability": "view",
      "type": "function"
    },
    {
      "constant": true,
      "inputs": [
        {
          "name": "_sellerAddress",
          "type": "address"
        }
      ],
      "name": "getAvailable",
      "outputs": [
        {
          "name": "",
          "type": "bool"
        }
      ],
      "payable": false,
      "stateMutability": "view",
      "type": "function"
    },
    {
      "constant": true,
      "inputs": [
        {
          "name": "_sellerAddress",
          "type": "address"
        }
      ],
      "name": "getValidProduct",
      "outputs": [
        {
          "name": "",
          "type": "bool"
        }
      ],
      "payable": false,
      "stateMutability": "view",
      "type": "function"
    }
  ],
  "bytecode": "0x608060405234801561001057600080fd5b50610702806100206000396000f3fe608060405260043610610083576000357c0100000000000000000000000000000000000000000000000000000000900463ffffffff16806307842eb9146100885780630d69c011146100f15780632e3122541461015c5780633d357b02146101c15780635fd4b08a1461022a578063a323d29e1461028f578063b4b1d9c714610320575b600080fd5b34801561009457600080fd5b506100d7600480360360208110156100ab57600080fd5b81019080803573ffffffffffffffffffffffffffffffffffffffff1690602001909291905050506103ea565b604051808215151515815260200191505060405180910390f35b3480156100fd57600080fd5b506101406004803603602081101561011457600080fd5b81019080803573ffffffffffffffffffffffffffffffffffffffff169060200190929190505050610442565b604051808260ff1660ff16815260200191505060405180910390f35b34801561016857600080fd5b506101ab6004803603602081101561017f57600080fd5b81019080803573ffffffffffffffffffffffffffffffffffffffff16906020019092919050505061049a565b6040518082815260200191505060405180910390f35b3480156101cd57600080fd5b50610210600480360360208110156101e457600080fd5b81019080803573ffffffffffffffffffffffffffffffffffffffff1690602001909291905050506104e5565b604051808215151515815260200191505060405180910390f35b34801561023657600080fd5b506102796004803603602081101561024d57600080fd5b81019080803573ffffffffffffffffffffffffffffffffffffffff16906020019092919050505061053d565b6040518082815260200191505060405180910390f35b34801561029b57600080fd5b506102de600480360360208110156102b257600080fd5b81019080803573ffffffffffffffffffffffffffffffffffffffff169060200190929190505050610588565b604051808273ffffffffffffffffffffffffffffffffffffffff1673ffffffffffffffffffffffffffffffffffffffff16815260200191505060405180910390f35b34801561032c57600080fd5b5061036f6004803603602081101561034357600080fd5b81019080803573ffffffffffffffffffffffffffffffffffffffff1690602001909291905050506105f3565b6040518080602001828103825283818151815260200191508051906020019080838360005b838110156103af578082015181840152602081019050610394565b50505050905090810190601f1680156103dc5780820380516001836020036101000a031916815260200191505b509250505060405180910390f35b60008060008373ffffffffffffffffffffffffffffffffffffffff1673ffffffffffffffffffffffffffffffffffffffff16815260200190815260200160002060050160019054906101000a900460ff169050919050565b60008060008373ffffffffffffffffffffffffffffffffffffffff1673ffffffffffffffffffffffffffffffffffffffff16815260200190815260200160002060030160009054906101000a900460ff169050919050565b60008060008373ffffffffffffffffffffffffffffffffffffffff1673ffffffffffffffffffffffffffffffffffffffff168152602001908152602001600020600201549050919050565b60008060008373ffffffffffffffffffffffffffffffffffffffff1673ffffffffffffffffffffffffffffffffffffffff16815260200190815260200160002060050160009054906101000a900460ff169050919050565b60008060008373ffffffffffffffffffffffffffffffffffffffff1673ffffffffffffffffffffffffffffffffffffffff168152602001908152602001600020600101549050919050565b60008060008373ffffffffffffffffffffffffffffffffffffffff1673ffffffffffffffffffffffffffffffffffffffff16815260200190815260200160002060000160009054906101000a900473ffffffffffffffffffffffffffffffffffffffff169050919050565b60606000808373ffffffffffffffffffffffffffffffffffffffff1673ffffffffffffffffffffffffffffffffffffffff1681526020019081526020016000206004018054600181600116156101000203166002900480601f0160208091040260200160405190810160405280929190818152602001828054600181600116156101000203166002900480156106ca5780601f1061069f576101008083540402835291602001916106ca565b820191906000526020600020905b8154815290600101906020018083116106ad57829003601f168201915b5050505050905091905056fea165627a7a72305820631db4546120c48771a8561af50241a0b32123c6937badb2b509e8e571e3e3060029",
  "source": "pragma solidity ^0.5.0;\n\ncontract ProductStorage {\n    //valid tells if the product is indeed an existing product\n    // in this way the array is unncessary\n    struct ProductInfo {\n        address seller;\n        bytes32 name;\n        uint256 netSellPrice;\n        uint8 VAT;\n        string description;\n        bool available;\n        bool valid;\n    }\n\n    mapping(address => ProductInfo) addressToProduct;\n\n    function getSeller(address _sellerAddress) public view returns (address){\n        return addressToProduct[_sellerAddress].seller;\n    }\n\n    function getName(address _sellerAddress) public view returns (bytes32){\n        return addressToProduct[_sellerAddress].name;\n    }\n\n    function getNetSellPrice(address _sellerAddress) public view returns (uint256){\n        return addressToProduct[_sellerAddress].netSellPrice;\n    }\n\n    function getVAT(address _sellerAddress) public view returns (uint8){\n        return addressToProduct[_sellerAddress].VAT;\n    }\n\n    function getDescription(address _sellerAddress) public view returns (string memory){\n        return addressToProduct[_sellerAddress].description;\n    }\n\n    function getAvailable(address _sellerAddress) public view returns (bool){\n        return addressToProduct[_sellerAddress].available;\n    }\n\n    function getValidProduct(address _sellerAddress) public view returns (bool){\n        return addressToProduct[_sellerAddress].valid;\n    }\n\n}\n",
  "sourcePath": "/home/bolzo/swe/Soldino-PoC/contracts/storage/ProductStorage.sol",
  "compiler": {
    "name": "solc",
    "version": "0.5.0+commit.1d4f565a.Emscripten.clang"
  },
  "schemaVersion": "3.0.2",
  "updatedAt": "2019-03-29T20:25:22.276Z",
  "devdoc": {
    "methods": {}
  },
  "userdoc": {
    "methods": {}
  }
}