{
  "contractName": "ProductStorage",
  "abi": [
    {
      "constant": true,
      "inputs": [
        {
          "name": "_sellerAddress",
          "type": "address"
        }
      ],
      "name": "getSeller",
      "outputs": [
        {
          "name": "",
          "type": "address"
        }
      ],
      "payable": false,
      "stateMutability": "view",
      "type": "function"
    },
    {
      "constant": true,
      "inputs": [
        {
          "name": "_sellerAddress",
          "type": "address"
        }
      ],
      "name": "getName",
      "outputs": [
        {
          "name": "",
          "type": "bytes32"
        }
      ],
      "payable": false,
      "stateMutability": "view",
      "type": "function"
    },
    {
      "constant": true,
      "inputs": [
        {
          "name": "_sellerAddress",
          "type": "address"
        }
      ],
      "name": "getNetSellPrice",
      "outputs": [
        {
          "name": "",
          "type": "uint256"
        }
      ],
      "payable": false,
      "stateMutability": "view",
      "type": "function"
    },
    {
      "constant": true,
      "inputs": [
        {
          "name": "_sellerAddress",
          "type": "address"
        }
      ],
      "name": "getVAT",
      "outputs": [
        {
          "name": "",
          "type": "uint8"
        }
      ],
      "payable": false,
      "stateMutability": "view",
      "type": "function"
    },
    {
      "constant": true,
      "inputs": [
        {
          "name": "_sellerAddress",
          "type": "address"
        }
      ],
      "name": "getDescription",
      "outputs": [
        {
          "name": "",
          "type": "string"
        }
      ],
      "payable": false,
      "stateMutability": "view",
      "type": "function"
    },
    {
      "constant": true,
      "inputs": [
        {
          "name": "_sellerAddress",
          "type": "address"
        }
      ],
      "name": "getAvailable",
      "outputs": [
        {
          "name": "",
          "type": "bool"
        }
      ],
      "payable": false,
      "stateMutability": "view",
      "type": "function"
    },
    {
      "constant": true,
      "inputs": [
        {
          "name": "_sellerAddress",
          "type": "address"
        }
      ],
      "name": "getValidProduct",
      "outputs": [
        {
          "name": "",
          "type": "bool"
        }
      ],
      "payable": false,
      "stateMutability": "view",
      "type": "function"
    }
  ],
  "bytecode": "0x608060405234801561001057600080fd5b506106be806100206000396000f3fe608060405234801561001057600080fd5b506004361061009a576000357c0100000000000000000000000000000000000000000000000000000000900480633d357b02116100785780633d357b02146101b15780635fd4b08a1461020d578063a323d29e14610265578063b4b1d9c7146102e95761009a565b806307842eb91461009f5780630d69c011146100fb5780632e31225414610159575b600080fd5b6100e1600480360360208110156100b557600080fd5b81019080803573ffffffffffffffffffffffffffffffffffffffff1690602001909291905050506103a6565b604051808215151515815260200191505060405180910390f35b61013d6004803603602081101561011157600080fd5b81019080803573ffffffffffffffffffffffffffffffffffffffff1690602001909291905050506103fe565b604051808260ff1660ff16815260200191505060405180910390f35b61019b6004803603602081101561016f57600080fd5b81019080803573ffffffffffffffffffffffffffffffffffffffff169060200190929190505050610456565b6040518082815260200191505060405180910390f35b6101f3600480360360208110156101c757600080fd5b81019080803573ffffffffffffffffffffffffffffffffffffffff1690602001909291905050506104a1565b604051808215151515815260200191505060405180910390f35b61024f6004803603602081101561022357600080fd5b81019080803573ffffffffffffffffffffffffffffffffffffffff1690602001909291905050506104f9565b6040518082815260200191505060405180910390f35b6102a76004803603602081101561027b57600080fd5b81019080803573ffffffffffffffffffffffffffffffffffffffff169060200190929190505050610544565b604051808273ffffffffffffffffffffffffffffffffffffffff1673ffffffffffffffffffffffffffffffffffffffff16815260200191505060405180910390f35b61032b600480360360208110156102ff57600080fd5b81019080803573ffffffffffffffffffffffffffffffffffffffff1690602001909291905050506105af565b6040518080602001828103825283818151815260200191508051906020019080838360005b8381101561036b578082015181840152602081019050610350565b50505050905090810190601f1680156103985780820380516001836020036101000a031916815260200191505b509250505060405180910390f35b60008060008373ffffffffffffffffffffffffffffffffffffffff1673ffffffffffffffffffffffffffffffffffffffff16815260200190815260200160002060050160019054906101000a900460ff169050919050565b60008060008373ffffffffffffffffffffffffffffffffffffffff1673ffffffffffffffffffffffffffffffffffffffff16815260200190815260200160002060030160009054906101000a900460ff169050919050565b60008060008373ffffffffffffffffffffffffffffffffffffffff1673ffffffffffffffffffffffffffffffffffffffff168152602001908152602001600020600201549050919050565b60008060008373ffffffffffffffffffffffffffffffffffffffff1673ffffffffffffffffffffffffffffffffffffffff16815260200190815260200160002060050160009054906101000a900460ff169050919050565b60008060008373ffffffffffffffffffffffffffffffffffffffff1673ffffffffffffffffffffffffffffffffffffffff168152602001908152602001600020600101549050919050565b60008060008373ffffffffffffffffffffffffffffffffffffffff1673ffffffffffffffffffffffffffffffffffffffff16815260200190815260200160002060000160009054906101000a900473ffffffffffffffffffffffffffffffffffffffff169050919050565b60606000808373ffffffffffffffffffffffffffffffffffffffff1673ffffffffffffffffffffffffffffffffffffffff1681526020019081526020016000206004018054600181600116156101000203166002900480601f0160208091040260200160405190810160405280929190818152602001828054600181600116156101000203166002900480156106865780601f1061065b57610100808354040283529160200191610686565b820191906000526020600020905b81548152906001019060200180831161066957829003601f168201915b5050505050905091905056fea165627a7a72305820ed5cbbd9eedea173acd3de1db346595611decf369a592c71f5d53e5583e1d4e50029",
  "source": "pragma solidity ^0.5.0;\n\ncontract ProductStorage {\n    //valid tells if the product is indeed an existing product\n    // in this way the array is unncessary\n    struct ProductInfo {\n        address seller;\n        bytes32 name;\n        uint256 netSellPrice;\n        uint8 VAT;\n        string description;\n        bool available;\n        bool valid;\n    }\n\n    mapping(address => ProductInfo) addressToProduct;\n\n    function getSeller(address _sellerAddress) public view returns (address){\n        return addressToProduct[_sellerAddress].seller;\n    }\n\n    function getName(address _sellerAddress) public view returns (bytes32){\n        return addressToProduct[_sellerAddress].name;\n    }\n\n    function getNetSellPrice(address _sellerAddress) public view returns (uint256){\n        return addressToProduct[_sellerAddress].netSellPrice;\n    }\n\n    function getVAT(address _sellerAddress) public view returns (uint8){\n        return addressToProduct[_sellerAddress].VAT;\n    }\n\n    function getDescription(address _sellerAddress) public view returns (string memory){\n        return addressToProduct[_sellerAddress].description;\n    }\n\n    function getAvailable(address _sellerAddress) public view returns (bool){\n        return addressToProduct[_sellerAddress].available;\n    }\n\n    function getValidProduct(address _sellerAddress) public view returns (bool){\n        return addressToProduct[_sellerAddress].valid;\n    }\n\n}\n",
  "sourcePath": "/home/samuele/Desktop/Soldino-PoC/contracts/storage/ProductStorage.sol",
  "compiler": {
    "name": "solc",
    "version": "0.5.4+commit.9549d8ff.Emscripten.clang"
  },
  "schemaVersion": "3.0.0-beta.2",
  "updatedAt": "2019-03-21T10:47:50.947Z",
  "devdoc": {
    "methods": {}
  },
  "userdoc": {
    "methods": {}
  }
}