{
  "contractName": "Proxy",
  "abi": [
    {
      "constant": true,
      "inputs": [
        {
          "name": "_userAddress",
          "type": "address"
        }
      ],
      "name": "getSurname",
      "outputs": [
        {
          "name": "",
          "type": "bytes32"
        }
      ],
      "payable": false,
      "stateMutability": "view",
      "type": "function",
      "signature": "0x0ead22b2"
    },
    {
      "constant": false,
      "inputs": [
        {
          "name": "_userAddress",
          "type": "address"
        },
        {
          "name": "_active",
          "type": "bool"
        }
      ],
      "name": "setActive",
      "outputs": [],
      "payable": false,
      "stateMutability": "nonpayable",
      "type": "function",
      "signature": "0x2ce962cf"
    },
    {
      "constant": false,
      "inputs": [
        {
          "name": "_userAddress",
          "type": "address"
        },
        {
          "name": "_name",
          "type": "bytes32"
        }
      ],
      "name": "setName",
      "outputs": [],
      "payable": false,
      "stateMutability": "nonpayable",
      "type": "function",
      "signature": "0x35fe620f"
    },
    {
      "constant": true,
      "inputs": [
        {
          "name": "_userAddress",
          "type": "address"
        }
      ],
      "name": "getEmail",
      "outputs": [
        {
          "name": "",
          "type": "bytes32"
        }
      ],
      "payable": false,
      "stateMutability": "view",
      "type": "function",
      "signature": "0x4fa7353c"
    },
    {
      "constant": true,
      "inputs": [
        {
          "name": "",
          "type": "address"
        }
      ],
      "name": "getDeliveryAddress",
      "outputs": [
        {
          "name": "",
          "type": "bytes32"
        }
      ],
      "payable": false,
      "stateMutability": "view",
      "type": "function",
      "signature": "0x522ecace"
    },
    {
      "constant": true,
      "inputs": [],
      "name": "_implementation",
      "outputs": [
        {
          "name": "",
          "type": "address"
        }
      ],
      "payable": false,
      "stateMutability": "view",
      "type": "function",
      "signature": "0x59679b0f"
    },
    {
      "constant": false,
      "inputs": [
        {
          "name": "_userAddress",
          "type": "address"
        },
        {
          "name": "_index",
          "type": "uint256"
        }
      ],
      "name": "setIndex",
      "outputs": [],
      "payable": false,
      "stateMutability": "nonpayable",
      "type": "function",
      "signature": "0x5caf5a6a"
    },
    {
      "constant": true,
      "inputs": [
        {
          "name": "_userAddress",
          "type": "address"
        }
      ],
      "name": "getName",
      "outputs": [
        {
          "name": "",
          "type": "bytes32"
        }
      ],
      "payable": false,
      "stateMutability": "view",
      "type": "function",
      "signature": "0x5fd4b08a"
    },
    {
      "constant": true,
      "inputs": [
        {
          "name": "_index",
          "type": "uint256"
        }
      ],
      "name": "getAddressByIndex",
      "outputs": [
        {
          "name": "",
          "type": "address"
        }
      ],
      "payable": false,
      "stateMutability": "view",
      "type": "function",
      "signature": "0xce10cf88"
    },
    {
      "constant": false,
      "inputs": [
        {
          "name": "_userAddress",
          "type": "address"
        },
        {
          "name": "_vatNumber",
          "type": "bytes32"
        }
      ],
      "name": "setVATNumber",
      "outputs": [],
      "payable": false,
      "stateMutability": "nonpayable",
      "type": "function",
      "signature": "0xcfee4d6b"
    },
    {
      "constant": false,
      "inputs": [
        {
          "name": "_userAddress",
          "type": "address"
        },
        {
          "name": "_email",
          "type": "bytes32"
        }
      ],
      "name": "setEmail",
      "outputs": [],
      "payable": false,
      "stateMutability": "nonpayable",
      "type": "function",
      "signature": "0xd4bc0889"
    },
    {
      "constant": true,
      "inputs": [
        {
          "name": "_userAddress",
          "type": "address"
        }
      ],
      "name": "getActive",
      "outputs": [
        {
          "name": "",
          "type": "bool"
        }
      ],
      "payable": false,
      "stateMutability": "view",
      "type": "function",
      "signature": "0xdaea3e3a"
    },
    {
      "constant": false,
      "inputs": [
        {
          "name": "_userAddress",
          "type": "address"
        },
        {
          "name": "_devAddress",
          "type": "bytes32"
        }
      ],
      "name": "setDeliveryAddress",
      "outputs": [],
      "payable": false,
      "stateMutability": "nonpayable",
      "type": "function",
      "signature": "0xddc9f373"
    },
    {
      "constant": true,
      "inputs": [
        {
          "name": "_userAddress",
          "type": "address"
        }
      ],
      "name": "getDeliveryAddressaddress",
      "outputs": [
        {
          "name": "",
          "type": "bytes32"
        }
      ],
      "payable": false,
      "stateMutability": "view",
      "type": "function",
      "signature": "0xe5252e75"
    },
    {
      "inputs": [
        {
          "name": "_logicAddress",
          "type": "address"
        }
      ],
      "payable": false,
      "stateMutability": "nonpayable",
      "type": "constructor",
      "signature": "constructor"
    },
    {
      "payable": true,
      "stateMutability": "payable",
      "type": "fallback"
    },
    {
      "anonymous": false,
      "inputs": [
        {
          "indexed": true,
          "name": "implementation",
          "type": "address"
        }
      ],
      "name": "Upgraded",
      "type": "event",
      "signature": "0xbc7cd75a20ee27fd9adebab32041f755214dbc6bffa90cc0225b39da2e5c2d3b"
    },
    {
      "constant": true,
      "inputs": [],
      "name": "implementation",
      "outputs": [
        {
          "name": "",
          "type": "address"
        }
      ],
      "payable": false,
      "stateMutability": "view",
      "type": "function",
      "signature": "0x5c60da1b"
    },
    {
      "constant": false,
      "inputs": [
        {
          "name": "impl",
          "type": "address"
        }
      ],
      "name": "upgradeTo",
      "outputs": [
        {
          "name": "",
          "type": "bool"
        }
      ],
      "payable": false,
      "stateMutability": "nonpayable",
      "type": "function",
      "signature": "0x3659cfe6"
    },
    {
      "constant": false,
      "inputs": [],
      "name": "test",
      "outputs": [
        {
          "name": "",
          "type": "bool"
        }
      ],
      "payable": false,
      "stateMutability": "nonpayable",
      "type": "function",
      "signature": "0xf8a8fd6d"
    }
  ],
  "bytecode": "0x608060405234801561001057600080fd5b50604051602080610d9a8339810180604052602081101561003057600080fd5b810190808051906020019092919050505080600360006101000a81548173ffffffffffffffffffffffffffffffffffffffff021916908373ffffffffffffffffffffffffffffffffffffffff16021790555050610d08806100926000396000f3fe6080604052600436106100f1576000357c0100000000000000000000000000000000000000000000000000000000900463ffffffff1680630ead22b2146101a95780632ce962cf1461020e57806335fe620f1461026b5780633659cfe6146102c65780634fa7353c1461032f578063522ecace1461039457806359679b0f146103f95780635c60da1b146104505780635caf5a6a146104a75780635fd4b08a14610502578063ce10cf8814610567578063cfee4d6b146105e2578063d4bc08891461063d578063daea3e3a14610698578063ddc9f37314610701578063e5252e751461075c578063f8a8fd6d146107c1575b60006100fb6107f0565b9050600073ffffffffffffffffffffffffffffffffffffffff168173ffffffffffffffffffffffffffffffffffffffff161415151561013957600080fd5b60606000368080601f016020809104026020016040519081016040528093929190818152602001838380828437600081840152601f19601f820116905080830192505050505050509050600080825160208401855af43d604051816000823e82600081146101a5578282f35b8282fd5b3480156101b557600080fd5b506101f8600480360360208110156101cc57600080fd5b81019080803573ffffffffffffffffffffffffffffffffffffffff16906020019092919050505061081a565b6040518082815260200191505060405180910390f35b34801561021a57600080fd5b506102696004803603604081101561023157600080fd5b81019080803573ffffffffffffffffffffffffffffffffffffffff169060200190929190803515159060200190929190505050610866565b005b34801561027757600080fd5b506102c46004803603604081101561028e57600080fd5b81019080803573ffffffffffffffffffffffffffffffffffffffff169060200190929190803590602001909291905050506108c4565b005b3480156102d257600080fd5b50610315600480360360208110156102e957600080fd5b81019080803573ffffffffffffffffffffffffffffffffffffffff16906020019092919050505061090f565b604051808215151515815260200191505060405180910390f35b34801561033b57600080fd5b5061037e6004803603602081101561035257600080fd5b81019080803573ffffffffffffffffffffffffffffffffffffffff1690602001909291905050506109fb565b6040518082815260200191505060405180910390f35b3480156103a057600080fd5b506103e3600480360360208110156103b757600080fd5b81019080803573ffffffffffffffffffffffffffffffffffffffff169060200190929190505050610a47565b6040518082815260200191505060405180910390f35b34801561040557600080fd5b5061040e610a4e565b604051808273ffffffffffffffffffffffffffffffffffffffff1673ffffffffffffffffffffffffffffffffffffffff16815260200191505060405180910390f35b34801561045c57600080fd5b506104656107f0565b604051808273ffffffffffffffffffffffffffffffffffffffff1673ffffffffffffffffffffffffffffffffffffffff16815260200191505060405180910390f35b3480156104b357600080fd5b50610500600480360360408110156104ca57600080fd5b81019080803573ffffffffffffffffffffffffffffffffffffffff16906020019092919080359060200190929190505050610a74565b005b34801561050e57600080fd5b506105516004803603602081101561052557600080fd5b81019080803573ffffffffffffffffffffffffffffffffffffffff169060200190929190505050610abf565b6040518082815260200191505060405180910390f35b34801561057357600080fd5b506105a06004803603602081101561058a57600080fd5b8101908080359060200190929190505050610b0b565b604051808273ffffffffffffffffffffffffffffffffffffffff1673ffffffffffffffffffffffffffffffffffffffff16815260200191505060405180910390f35b3480156105ee57600080fd5b5061063b6004803603604081101561060557600080fd5b81019080803573ffffffffffffffffffffffffffffffffffffffff16906020019092919080359060200190929190505050610b4d565b005b34801561064957600080fd5b506106966004803603604081101561066057600080fd5b81019080803573ffffffffffffffffffffffffffffffffffffffff16906020019092919080359060200190929190505050610b98565b005b3480156106a457600080fd5b506106e7600480360360208110156106bb57600080fd5b81019080803573ffffffffffffffffffffffffffffffffffffffff169060200190929190505050610be3565b604051808215151515815260200191505060405180910390f35b34801561070d57600080fd5b5061075a6004803603604081101561072457600080fd5b81019080803573ffffffffffffffffffffffffffffffffffffffff16906020019092919080359060200190929190505050610c3c565b005b34801561076857600080fd5b506107ab6004803603602081101561077f57600080fd5b81019080803573ffffffffffffffffffffffffffffffffffffffff169060200190929190505050610c87565b6040518082815260200191505060405180910390f35b3480156107cd57600080fd5b506107d6610cd3565b604051808215151515815260200191505060405180910390f35b6000600360009054906101000a900473ffffffffffffffffffffffffffffffffffffffff16905090565b6000600260008373ffffffffffffffffffffffffffffffffffffffff1673ffffffffffffffffffffffffffffffffffffffff168152602001908152602001600020600301549050919050565b80600160008473ffffffffffffffffffffffffffffffffffffffff1673ffffffffffffffffffffffffffffffffffffffff16815260200190815260200160002060040160006101000a81548160ff0219169083151502179055505050565b80600160008473ffffffffffffffffffffffffffffffffffffffff1673ffffffffffffffffffffffffffffffffffffffff168152602001908152602001600020600201819055505050565b60008173ffffffffffffffffffffffffffffffffffffffff16600360009054906101000a900473ffffffffffffffffffffffffffffffffffffffff1673ffffffffffffffffffffffffffffffffffffffff161415151561096e57600080fd5b81600360006101000a81548173ffffffffffffffffffffffffffffffffffffffff021916908373ffffffffffffffffffffffffffffffffffffffff1602179055508173ffffffffffffffffffffffffffffffffffffffff167fbc7cd75a20ee27fd9adebab32041f755214dbc6bffa90cc0225b39da2e5c2d3b60405160405180910390a260019050919050565b6000600260008373ffffffffffffffffffffffffffffffffffffffff1673ffffffffffffffffffffffffffffffffffffffff168152602001908152602001600020600001549050919050565b6000919050565b600360009054906101000a900473ffffffffffffffffffffffffffffffffffffffff1681565b80600160008473ffffffffffffffffffffffffffffffffffffffff1673ffffffffffffffffffffffffffffffffffffffff168152602001908152602001600020600501819055505050565b6000600260008373ffffffffffffffffffffffffffffffffffffffff1673ffffffffffffffffffffffffffffffffffffffff168152602001908152602001600020600201549050919050565b60008082815481101515610b1b57fe5b9060005260206000200160009054906101000a900473ffffffffffffffffffffffffffffffffffffffff169050919050565b80600160008473ffffffffffffffffffffffffffffffffffffffff1673ffffffffffffffffffffffffffffffffffffffff168152602001908152602001600020600301819055505050565b80600160008473ffffffffffffffffffffffffffffffffffffffff1673ffffffffffffffffffffffffffffffffffffffff168152602001908152602001600020600001819055505050565b6000600260008373ffffffffffffffffffffffffffffffffffffffff1673ffffffffffffffffffffffffffffffffffffffff16815260200190815260200160002060040160009054906101000a900460ff169050919050565b80600160008473ffffffffffffffffffffffffffffffffffffffff1673ffffffffffffffffffffffffffffffffffffffff168152602001908152602001600020600101819055505050565b6000600260008373ffffffffffffffffffffffffffffffffffffffff1673ffffffffffffffffffffffffffffffffffffffff168152602001908152602001600020600101549050919050565b6000600190509056fea165627a7a72305820619b5993e05b39404107ff8c7d9088e17a077d0e4d3b7e3665edc5fbdad994b20029",
  "source": "pragma solidity ^0.5.0;\n\n\nimport \"./BusinessStorage.sol\";\nimport \"./CitizenStorage.sol\";\n\n\ncontract Proxy is BusinessStorage, CitizenStorage {\n  address public _implementation;\n  event Upgraded(address indexed implementation);\n\n\n  constructor(address _logicAddress) public {\n    _implementation = _logicAddress;\n  }\n\n  function implementation() public view returns (address) {\n    return _implementation;\n  }\n\n  function upgradeTo(address impl) public returns(bool) {\n    require(_implementation != impl);\n    _implementation = impl;\n    emit Upgraded(impl);\n    return true;\n  }\n\n  function test() external returns(bool) {\n    return true;\n  }\n \n  function () payable external {\n    address _impl = implementation();\n    require(_impl != address(0));\n    bytes memory data = msg.data;\n\n    assembly {\n      let result := delegatecall(gas, _impl, add(data, 0x20), mload(data), 0, 0)\n      let size := returndatasize\n      let ptr := mload(0x40)\n      returndatacopy(ptr, 0, size)\n      switch result\n      case 0 { revert(ptr, size) }\n      default { return(ptr, size) }\n    }    \n  }\n\n}",
  "sourcePath": "/home/bolzo/swe/Soldino-PoC/contracts/Proxy.sol",
  "compiler": {
    "name": "solc",
    "version": "0.5.0+commit.1d4f565a.Emscripten.clang"
  },
  "schemaVersion": "3.0.2",
  "updatedAt": "2019-03-13T21:30:27.499Z",
  "devdoc": {
    "methods": {}
  },
  "userdoc": {
    "methods": {}
  }
}