{
  "contractName": "TokenERC20",
  "abi": [
    {
      "constant": true,
      "inputs": [],
      "name": "name",
      "outputs": [
        {
          "name": "",
          "type": "string"
        }
      ],
      "payable": false,
      "stateMutability": "view",
      "type": "function",
      "signature": "0x06fdde03"
    },
    {
      "constant": true,
      "inputs": [],
      "name": "totalSupply",
      "outputs": [
        {
          "name": "",
          "type": "uint256"
        }
      ],
      "payable": false,
      "stateMutability": "view",
      "type": "function",
      "signature": "0x18160ddd"
    },
    {
      "constant": true,
      "inputs": [],
      "name": "decimals",
      "outputs": [
        {
          "name": "",
          "type": "uint8"
        }
      ],
      "payable": false,
      "stateMutability": "view",
      "type": "function",
      "signature": "0x313ce567"
    },
    {
      "constant": true,
      "inputs": [
        {
          "name": "",
          "type": "address"
        }
      ],
      "name": "balanceOf",
      "outputs": [
        {
          "name": "",
          "type": "uint256"
        }
      ],
      "payable": false,
      "stateMutability": "view",
      "type": "function",
      "signature": "0x70a08231"
    },
    {
      "constant": true,
      "inputs": [],
      "name": "owner",
      "outputs": [
        {
          "name": "",
          "type": "address"
        }
      ],
      "payable": false,
      "stateMutability": "view",
      "type": "function",
      "signature": "0x8da5cb5b"
    },
    {
      "constant": true,
      "inputs": [],
      "name": "symbol",
      "outputs": [
        {
          "name": "",
          "type": "string"
        }
      ],
      "payable": false,
      "stateMutability": "view",
      "type": "function",
      "signature": "0x95d89b41"
    },
    {
      "constant": true,
      "inputs": [
        {
          "name": "",
          "type": "address"
        },
        {
          "name": "",
          "type": "address"
        }
      ],
      "name": "allowance",
      "outputs": [
        {
          "name": "",
          "type": "uint256"
        }
      ],
      "payable": false,
      "stateMutability": "view",
      "type": "function",
      "signature": "0xdd62ed3e"
    },
    {
      "constant": false,
      "inputs": [
        {
          "name": "newOwner",
          "type": "address"
        }
      ],
      "name": "transferOwnership",
      "outputs": [],
      "payable": false,
      "stateMutability": "nonpayable",
      "type": "function",
      "signature": "0xf2fde38b"
    },
    {
      "inputs": [
        {
          "name": "initialSupply",
          "type": "uint256"
        },
        {
          "name": "tokenName",
          "type": "string"
        },
        {
          "name": "tokenSymbol",
          "type": "string"
        },
        {
          "name": "centralMinter",
          "type": "address"
        }
      ],
      "payable": false,
      "stateMutability": "nonpayable",
      "type": "constructor",
      "signature": "constructor"
    },
    {
      "anonymous": false,
      "inputs": [
        {
          "indexed": true,
          "name": "from",
          "type": "address"
        },
        {
          "indexed": true,
          "name": "to",
          "type": "address"
        },
        {
          "indexed": false,
          "name": "value",
          "type": "uint256"
        }
      ],
      "name": "Transfer",
      "type": "event",
      "signature": "0xddf252ad1be2c89b69c2b068fc378daa952ba7f163c4a11628f55a4df523b3ef"
    },
    {
      "anonymous": false,
      "inputs": [
        {
          "indexed": true,
          "name": "_owner",
          "type": "address"
        },
        {
          "indexed": true,
          "name": "_spender",
          "type": "address"
        },
        {
          "indexed": false,
          "name": "_value",
          "type": "uint256"
        }
      ],
      "name": "Approval",
      "type": "event",
      "signature": "0x8c5be1e5ebec7d5bd14f71427d1e84f3dd0314c0f7b2291e5b200ac8c7c3b925"
    },
    {
      "anonymous": false,
      "inputs": [
        {
          "indexed": true,
          "name": "from",
          "type": "address"
        },
        {
          "indexed": false,
          "name": "value",
          "type": "uint256"
        }
      ],
      "name": "Burn",
      "type": "event",
      "signature": "0xcc16f5dbb4873280815c1ee09dbd06736cffcc184412cf7a71a0fdb75d397ca5"
    },
    {
      "constant": false,
      "inputs": [
        {
          "name": "_to",
          "type": "address"
        },
        {
          "name": "_value",
          "type": "uint256"
        }
      ],
      "name": "transfer",
      "outputs": [
        {
          "name": "success",
          "type": "bool"
        }
      ],
      "payable": false,
      "stateMutability": "nonpayable",
      "type": "function",
      "signature": "0xa9059cbb"
    },
    {
      "constant": false,
      "inputs": [
        {
          "name": "_from",
          "type": "address"
        },
        {
          "name": "_to",
          "type": "address"
        },
        {
          "name": "_value",
          "type": "uint256"
        }
      ],
      "name": "transferFrom",
      "outputs": [
        {
          "name": "success",
          "type": "bool"
        }
      ],
      "payable": false,
      "stateMutability": "nonpayable",
      "type": "function",
      "signature": "0x23b872dd"
    },
    {
      "constant": false,
      "inputs": [
        {
          "name": "_spender",
          "type": "address"
        },
        {
          "name": "_value",
          "type": "uint256"
        }
      ],
      "name": "approve",
      "outputs": [
        {
          "name": "success",
          "type": "bool"
        }
      ],
      "payable": false,
      "stateMutability": "nonpayable",
      "type": "function",
      "signature": "0x095ea7b3"
    },
    {
      "constant": false,
      "inputs": [
        {
          "name": "_spender",
          "type": "address"
        },
        {
          "name": "_value",
          "type": "uint256"
        },
        {
          "name": "_extraData",
          "type": "bytes"
        }
      ],
      "name": "approveAndCall",
      "outputs": [
        {
          "name": "success",
          "type": "bool"
        }
      ],
      "payable": false,
      "stateMutability": "nonpayable",
      "type": "function",
      "signature": "0xcae9ca51"
    },
    {
      "constant": false,
      "inputs": [
        {
          "name": "_value",
          "type": "uint256"
        }
      ],
      "name": "burn",
      "outputs": [
        {
          "name": "success",
          "type": "bool"
        }
      ],
      "payable": false,
      "stateMutability": "nonpayable",
      "type": "function",
      "signature": "0x42966c68"
    },
    {
      "constant": false,
      "inputs": [
        {
          "name": "_from",
          "type": "address"
        },
        {
          "name": "_value",
          "type": "uint256"
        }
      ],
      "name": "burnFrom",
      "outputs": [
        {
          "name": "success",
          "type": "bool"
        }
      ],
      "payable": false,
      "stateMutability": "nonpayable",
      "type": "function",
      "signature": "0x79cc6790"
    },
    {
      "constant": false,
      "inputs": [
        {
          "name": "target",
          "type": "address"
        },
        {
          "name": "mintedAmount",
          "type": "uint256"
        }
      ],
      "name": "mintToken",
      "outputs": [],
      "payable": false,
      "stateMutability": "nonpayable",
      "type": "function",
      "signature": "0x79c65068"
    }
  ],
  "bytecode": "0x60806040526002600360006101000a81548160ff021916908360ff1602179055503480156200002d57600080fd5b5060405162001a2f38038062001a2f833981018060405260808110156200005357600080fd5b810190808051906020019092919080516401000000008111156200007657600080fd5b828101905060208101848111156200008d57600080fd5b8151856001820283011164010000000082111715620000ab57600080fd5b50509291906020018051640100000000811115620000c857600080fd5b82810190506020810184811115620000df57600080fd5b8151856001820283011164010000000082111715620000fd57600080fd5b505092919060200180519060200190929190505050336000806101000a81548173ffffffffffffffffffffffffffffffffffffffff021916908373ffffffffffffffffffffffffffffffffffffffff160217905550600073ffffffffffffffffffffffffffffffffffffffff168173ffffffffffffffffffffffffffffffffffffffff16141515620001ca57806000806101000a81548173ffffffffffffffffffffffffffffffffffffffff021916908373ffffffffffffffffffffffffffffffffffffffff1602179055505b83600481905550600454600560003373ffffffffffffffffffffffffffffffffffffffff1673ffffffffffffffffffffffffffffffffffffffff1681526020019081526020016000208190555082600190805190602001906200022f92919062000253565b5081600290805190602001906200024892919062000253565b505050505062000302565b828054600181600116156101000203166002900490600052602060002090601f016020900481019282601f106200029657805160ff1916838001178555620002c7565b82800160010185558215620002c7579182015b82811115620002c6578251825591602001919060010190620002a9565b5b509050620002d69190620002da565b5090565b620002ff91905b80821115620002fb576000816000905550600101620002e1565b5090565b90565b61171d80620003126000396000f3fe6080604052600436106100db576000357c0100000000000000000000000000000000000000000000000000000000900463ffffffff16806306fdde03146100e0578063095ea7b31461017057806318160ddd146101e357806323b872dd1461020e578063313ce567146102a157806342966c68146102d257806370a082311461032557806379c650681461038a57806379cc6790146103e55780638da5cb5b1461045857806395d89b41146104af578063a9059cbb1461053f578063cae9ca51146105b2578063dd62ed3e146106bc578063f2fde38b14610741575b600080fd5b3480156100ec57600080fd5b506100f5610792565b6040518080602001828103825283818151815260200191508051906020019080838360005b8381101561013557808201518184015260208101905061011a565b50505050905090810190601f1680156101625780820380516001836020036101000a031916815260200191505b509250505060405180910390f35b34801561017c57600080fd5b506101c96004803603604081101561019357600080fd5b81019080803573ffffffffffffffffffffffffffffffffffffffff16906020019092919080359060200190929190505050610830565b604051808215151515815260200191505060405180910390f35b3480156101ef57600080fd5b506101f8610922565b6040518082815260200191505060405180910390f35b34801561021a57600080fd5b506102876004803603606081101561023157600080fd5b81019080803573ffffffffffffffffffffffffffffffffffffffff169060200190929190803573ffffffffffffffffffffffffffffffffffffffff16906020019092919080359060200190929190505050610928565b604051808215151515815260200191505060405180910390f35b3480156102ad57600080fd5b506102b6610a55565b604051808260ff1660ff16815260200191505060405180910390f35b3480156102de57600080fd5b5061030b600480360360208110156102f557600080fd5b8101908080359060200190929190505050610a68565b604051808215151515815260200191505060405180910390f35b34801561033157600080fd5b506103746004803603602081101561034857600080fd5b81019080803573ffffffffffffffffffffffffffffffffffffffff169060200190929190505050610b6c565b6040518082815260200191505060405180910390f35b34801561039657600080fd5b506103e3600480360360408110156103ad57600080fd5b81019080803573ffffffffffffffffffffffffffffffffffffffff16906020019092919080359060200190929190505050610b84565b005b3480156103f157600080fd5b5061043e6004803603604081101561040857600080fd5b81019080803573ffffffffffffffffffffffffffffffffffffffff16906020019092919080359060200190929190505050610d4d565b604051808215151515815260200191505060405180910390f35b34801561046457600080fd5b5061046d610f67565b604051808273ffffffffffffffffffffffffffffffffffffffff1673ffffffffffffffffffffffffffffffffffffffff16815260200191505060405180910390f35b3480156104bb57600080fd5b506104c4610f8c565b6040518080602001828103825283818151815260200191508051906020019080838360005b838110156105045780820151818401526020810190506104e9565b50505050905090810190601f1680156105315780820380516001836020036101000a031916815260200191505b509250505060405180910390f35b34801561054b57600080fd5b506105986004803603604081101561056257600080fd5b81019080803573ffffffffffffffffffffffffffffffffffffffff1690602001909291908035906020019092919050505061102a565b604051808215151515815260200191505060405180910390f35b3480156105be57600080fd5b506106a2600480360360608110156105d557600080fd5b81019080803573ffffffffffffffffffffffffffffffffffffffff169060200190929190803590602001909291908035906020019064010000000081111561061c57600080fd5b82018360208201111561062e57600080fd5b8035906020019184600183028401116401000000008311171561065057600080fd5b91908080601f016020809104026020016040519081016040528093929190818152602001838380828437600081840152601f19601f820116905080830192505050505050509192919290505050611041565b604051808215151515815260200191505060405180910390f35b3480156106c857600080fd5b5061072b600480360360408110156106df57600080fd5b81019080803573ffffffffffffffffffffffffffffffffffffffff169060200190929190803573ffffffffffffffffffffffffffffffffffffffff1690602001909291905050506111c5565b6040518082815260200191505060405180910390f35b34801561074d57600080fd5b506107906004803603602081101561076457600080fd5b81019080803573ffffffffffffffffffffffffffffffffffffffff1690602001909291905050506111ea565b005b60018054600181600116156101000203166002900480601f0160208091040260200160405190810160405280929190818152602001828054600181600116156101000203166002900480156108285780601f106107fd57610100808354040283529160200191610828565b820191906000526020600020905b81548152906001019060200180831161080b57829003601f168201915b505050505081565b600081600660003373ffffffffffffffffffffffffffffffffffffffff1673ffffffffffffffffffffffffffffffffffffffff16815260200190815260200160002060008573ffffffffffffffffffffffffffffffffffffffff1673ffffffffffffffffffffffffffffffffffffffff168152602001908152602001600020819055508273ffffffffffffffffffffffffffffffffffffffff163373ffffffffffffffffffffffffffffffffffffffff167f8c5be1e5ebec7d5bd14f71427d1e84f3dd0314c0f7b2291e5b200ac8c7c3b925846040518082815260200191505060405180910390a36001905092915050565b60045481565b6000600660008573ffffffffffffffffffffffffffffffffffffffff1673ffffffffffffffffffffffffffffffffffffffff16815260200190815260200160002060003373ffffffffffffffffffffffffffffffffffffffff1673ffffffffffffffffffffffffffffffffffffffff1681526020019081526020016000205482111515156109b557600080fd5b81600660008673ffffffffffffffffffffffffffffffffffffffff1673ffffffffffffffffffffffffffffffffffffffff16815260200190815260200160002060003373ffffffffffffffffffffffffffffffffffffffff1673ffffffffffffffffffffffffffffffffffffffff16815260200190815260200160002060008282540392505081905550610a4a848484611288565b600190509392505050565b600360009054906101000a900460ff1681565b600081600560003373ffffffffffffffffffffffffffffffffffffffff1673ffffffffffffffffffffffffffffffffffffffff1681526020019081526020016000205410151515610ab857600080fd5b81600560003373ffffffffffffffffffffffffffffffffffffffff1673ffffffffffffffffffffffffffffffffffffffff16815260200190815260200160002060008282540392505081905550816004600082825403925050819055503373ffffffffffffffffffffffffffffffffffffffff167fcc16f5dbb4873280815c1ee09dbd06736cffcc184412cf7a71a0fdb75d397ca5836040518082815260200191505060405180910390a260019050919050565b60056020528060005260406000206000915090505481565b6000809054906101000a900473ffffffffffffffffffffffffffffffffffffffff1673ffffffffffffffffffffffffffffffffffffffff163373ffffffffffffffffffffffffffffffffffffffff16141515610bdf57600080fd5b80600560008473ffffffffffffffffffffffffffffffffffffffff1673ffffffffffffffffffffffffffffffffffffffff16815260200190815260200160002060008282540192505081905550806004600082825401925050819055506000809054906101000a900473ffffffffffffffffffffffffffffffffffffffff1673ffffffffffffffffffffffffffffffffffffffff16600073ffffffffffffffffffffffffffffffffffffffff167fddf252ad1be2c89b69c2b068fc378daa952ba7f163c4a11628f55a4df523b3ef836040518082815260200191505060405180910390a38173ffffffffffffffffffffffffffffffffffffffff166000809054906101000a900473ffffffffffffffffffffffffffffffffffffffff1673ffffffffffffffffffffffffffffffffffffffff167fddf252ad1be2c89b69c2b068fc378daa952ba7f163c4a11628f55a4df523b3ef836040518082815260200191505060405180910390a35050565b600081600560008573ffffffffffffffffffffffffffffffffffffffff1673ffffffffffffffffffffffffffffffffffffffff1681526020019081526020016000205410151515610d9d57600080fd5b600660008473ffffffffffffffffffffffffffffffffffffffff1673ffffffffffffffffffffffffffffffffffffffff16815260200190815260200160002060003373ffffffffffffffffffffffffffffffffffffffff1673ffffffffffffffffffffffffffffffffffffffff168152602001908152602001600020548211151515610e2857600080fd5b81600560008573ffffffffffffffffffffffffffffffffffffffff1673ffffffffffffffffffffffffffffffffffffffff1681526020019081526020016000206000828254039250508190555081600660008573ffffffffffffffffffffffffffffffffffffffff1673ffffffffffffffffffffffffffffffffffffffff16815260200190815260200160002060003373ffffffffffffffffffffffffffffffffffffffff1673ffffffffffffffffffffffffffffffffffffffff16815260200190815260200160002060008282540392505081905550816004600082825403925050819055508273ffffffffffffffffffffffffffffffffffffffff167fcc16f5dbb4873280815c1ee09dbd06736cffcc184412cf7a71a0fdb75d397ca5836040518082815260200191505060405180910390a26001905092915050565b6000809054906101000a900473ffffffffffffffffffffffffffffffffffffffff1681565b60028054600181600116156101000203166002900480601f0160208091040260200160405190810160405280929190818152602001828054600181600116156101000203166002900480156110225780601f10610ff757610100808354040283529160200191611022565b820191906000526020600020905b81548152906001019060200180831161100557829003601f168201915b505050505081565b6000611037338484611288565b6001905092915050565b6000808490506110518585610830565b156111bc578073ffffffffffffffffffffffffffffffffffffffff16638f4ffcb1338630876040518563ffffffff167c0100000000000000000000000000000000000000000000000000000000028152600401808573ffffffffffffffffffffffffffffffffffffffff1673ffffffffffffffffffffffffffffffffffffffff1681526020018481526020018373ffffffffffffffffffffffffffffffffffffffff1673ffffffffffffffffffffffffffffffffffffffff16815260200180602001828103825283818151815260200191508051906020019080838360005b8381101561114b578082015181840152602081019050611130565b50505050905090810190601f1680156111785780820380516001836020036101000a031916815260200191505b5095505050505050600060405180830381600087803b15801561119a57600080fd5b505af11580156111ae573d6000803e3d6000fd5b5050505060019150506111be565b505b9392505050565b6006602052816000526040600020602052806000526040600020600091509150505481565b6000809054906101000a900473ffffffffffffffffffffffffffffffffffffffff1673ffffffffffffffffffffffffffffffffffffffff163373ffffffffffffffffffffffffffffffffffffffff1614151561124557600080fd5b806000806101000a81548173ffffffffffffffffffffffffffffffffffffffff021916908373ffffffffffffffffffffffffffffffffffffffff16021790555050565b600073ffffffffffffffffffffffffffffffffffffffff168273ffffffffffffffffffffffffffffffffffffffff161415151561132d576040517f08c379a000000000000000000000000000000000000000000000000000000000815260040180806020018281038252600f8152602001807f496e76616c69642061646472657373000000000000000000000000000000000081525060200191505060405180910390fd5b80600560008573ffffffffffffffffffffffffffffffffffffffff1673ffffffffffffffffffffffffffffffffffffffff16815260200190815260200160002054101515156113e4576040517f08c379a00000000000000000000000000000000000000000000000000000000081526004018080602001828103825260108152602001807f4e6f7420656e6f7567682066756e64730000000000000000000000000000000081525060200191505060405180910390fd5b600560008373ffffffffffffffffffffffffffffffffffffffff1673ffffffffffffffffffffffffffffffffffffffff1681526020019081526020016000205481600560008573ffffffffffffffffffffffffffffffffffffffff1673ffffffffffffffffffffffffffffffffffffffff1681526020019081526020016000205401101515156114dc576040517f08c379a00000000000000000000000000000000000000000000000000000000081526004018080602001828103825260108152602001807f52656369766572206f766572666c6f770000000000000000000000000000000081525060200191505060405180910390fd5b6000600560008473ffffffffffffffffffffffffffffffffffffffff1673ffffffffffffffffffffffffffffffffffffffff16815260200190815260200160002054600560008673ffffffffffffffffffffffffffffffffffffffff1673ffffffffffffffffffffffffffffffffffffffff1681526020019081526020016000205401905081600560008673ffffffffffffffffffffffffffffffffffffffff1673ffffffffffffffffffffffffffffffffffffffff1681526020019081526020016000206000828254039250508190555081600560008573ffffffffffffffffffffffffffffffffffffffff1673ffffffffffffffffffffffffffffffffffffffff168152602001908152602001600020600082825401925050819055508273ffffffffffffffffffffffffffffffffffffffff168473ffffffffffffffffffffffffffffffffffffffff167fddf252ad1be2c89b69c2b068fc378daa952ba7f163c4a11628f55a4df523b3ef846040518082815260200191505060405180910390a380600560008573ffffffffffffffffffffffffffffffffffffffff1673ffffffffffffffffffffffffffffffffffffffff16815260200190815260200160002054600560008773ffffffffffffffffffffffffffffffffffffffff1673ffffffffffffffffffffffffffffffffffffffff16815260200190815260200160002054011415156116eb57fe5b5050505056fea165627a7a723058204afce551ea9727ba59eb9899a528ece64b6c9845425f1bea8dcfb5d8c586009d0029",
  "source": "pragma solidity >=0.4.22 <0.6.0;\r\n\r\n\r\n//Le interfacce sono simili a contratti astratti ma non posso implementare funzioni\r\ninterface tokenRecipient {\r\n    function receiveApproval(address _from, uint256 _value, address _token, bytes calldata _extraData) external;\r\n}\r\n\r\n// Questo contratto serve a creare un amministratore centralizzato del token\r\ncontract owned {\r\n    address public owner;\r\n\r\n    constructor() public{\r\n        owner = msg.sender;\r\n    }\r\n\r\n    // i modificatori modificano la sintassi delle funzioni in cui sono inseriti\r\n    // posso accettare parametri\r\n    // se il require risulta true allora \"_;\" indica di proseguire con la funzione,\r\n    //cioè esegue la funzione\r\n    modifier onlyOwner {\r\n        require(msg.sender == owner);\r\n        _;\r\n    }\r\n\r\n    //nella firma della funzione viene usato il modifier\r\n    function transferOwnership(address newOwner) onlyOwner public {\r\n        owner = newOwner;\r\n    }\r\n}\r\n\r\n\r\ncontract TokenERC20 is owned {\r\n    // Public variables of the token\r\n    string public name;\r\n    string public symbol;\r\n    uint8 public decimals = 2;\r\n    uint256 public totalSupply;\r\n\r\n    // This creates an array with all balances\r\n    mapping (address => uint256) public balanceOf;\r\n\r\n    /*\r\n    * Note bolzo: il doppio mapping è semplicemente un array bidimensionale\r\n    */\r\n    mapping (address => mapping (address => uint256)) public allowance;\r\n\r\n    // Gli eventi servono a web3.js, sono in grado di mettersi in ascolto di questi eventi\r\n    // e in base all'evento generato intraprendere azioni definite da noi\r\n    // Quindi ad esempio si può creare un evento di errore per il portafogli vuoto\r\n    // Stare in ascolto di questo evento quando si cerca di pagare e ne caso venga emesso\r\n    // dare in output un messaggio di errore all'utente.\r\n\r\n    // La keyword `indexed` serve per filtrare i logs per cercare dati in web3 (presumo)\r\n\r\n    // This generates a public event on the blockchain that will notify clients\r\n    event Transfer(address indexed from, address indexed to, uint256 value);\r\n\r\n    // This generates a public event on the blockchain that will notify clients\r\n    event Approval(address indexed _owner, address indexed _spender, uint256 _value);\r\n\r\n    // This notifies clients about the amount burnt\r\n    event Burn(address indexed from, uint256 value);\r\n\r\n    /**\r\n     * Constructor function\r\n     *\r\n     * Initializes contract with initial supply tokens to the creator of the contract\r\n     */\r\n     /* Ci sono 2 tipi di \"memoria\" (in verità 3, contando \"calldata\" ma è da approfondire):\r\n        *   -Storage:   memoria persistente appartentente ad ogni contratto, un contratto non\r\n        *               puo' accedere ne modificare lo storage di altri contratti.\r\n        *               Le variabili definite, se diversamente specificato, sono varabili di storage\r\n        *               vale a dire che definiscono lo stato del contratto e sono modificabili solamente\r\n        *               con le chiamate sendTransaction.\r\n        *\r\n        *   -Memory:    memory è un'area di memoria che viene istanziata per ogni call eseguita da un\r\n        *               da un contratto (più la memory cresce, più è costosa in termini di gas).\r\n        *               Una varabile con la keyword memory è un puntatore.\r\n        *               In questo caso tokenName e tokenSymbol sono puntatori a stringhe che sono salvate\r\n        *               nell'area di memoria che viene allocata durante la call del costruttore\r\n        */\r\n     constructor (\r\n        uint256 initialSupply,\r\n        string memory tokenName,\r\n        string memory tokenSymbol,\r\n        address centralMinter)\r\n        public {\r\n        if(centralMinter != address(0x0)) //controllo che l'indirizzo non sia invalido\r\n            owner = centralMinter;\r\n\r\n        totalSupply = initialSupply;\r\n        balanceOf[msg.sender] = totalSupply;                // Give the creator all initial tokens\r\n        name = tokenName;                                   // Set the name for display purposes\r\n        symbol = tokenSymbol;                               // Set the symbol for display purposes\r\n    }\r\n\r\n    /**\r\n     * Internal transfer, only can be called by this contract\r\n     */\r\n    function _transfer(address _from, address _to, uint _value) internal {\r\n        // Prevent transfer to 0x0 address.\r\n        require(_to != address(0x0), \"Invalid address\");\r\n        // Check if the sender has enough\r\n        require(balanceOf[_from] >= _value, \"Not enough funds\");\r\n        // Check for overflows\r\n        require(balanceOf[_to] + _value >= balanceOf[_to], \"Reciver overflow\");\r\n        // Save this for an assertion in the future\r\n        uint previousBalances = balanceOf[_from] + balanceOf[_to];\r\n        // Subtract from the sender\r\n        balanceOf[_from] -= _value;\r\n        // Add the same to the recipient\r\n        balanceOf[_to] += _value;\r\n        emit Transfer(_from, _to, _value);\r\n        // Asserts are used to use static analysis to find bugs in your code. They should never fail\r\n        assert(balanceOf[_from] + balanceOf[_to] == previousBalances);\r\n    }\r\n\r\n    /**\r\n     * Transfer tokens\r\n     *\r\n     * Send `_value` tokens to `_to` from your account\r\n     *\r\n     * @param _to The address of the recipient\r\n     * @param _value the amount to send\r\n     */\r\n    function transfer(address _to, uint256 _value) public returns (bool success) {\r\n        _transfer(msg.sender, _to, _value);\r\n        return true;\r\n    }\r\n\r\n    /**\r\n     * Transfer tokens from other address\r\n     *\r\n     * Send `_value` tokens to `_to` on behalf of `_from`\r\n     *\r\n     * @param _from The address of the sender\r\n     * @param _to The address of the recipient\r\n     * @param _value the amount to send\r\n     */\r\n    function transferFrom(address _from, address _to, uint256 _value) public returns (bool success) {\r\n        require(_value <= allowance[_from][msg.sender]);     // Check allowance\r\n        allowance[_from][msg.sender] -= _value;\r\n        _transfer(_from, _to, _value);\r\n        return true;\r\n    }\r\n\r\n    /**\r\n     * Set allowance for other address\r\n     *\r\n     * Allows `_spender` to spend no more than `_value` tokens on your behalf\r\n     *\r\n     * @param _spender The address authorized to spend\r\n     * @param _value the max amount they can spend\r\n     */\r\n    function approve(address _spender, uint256 _value) public\r\n        returns (bool success) {\r\n        allowance[msg.sender][_spender] = _value;\r\n        emit Approval(msg.sender, _spender, _value);\r\n        return true;\r\n    }\r\n\r\n    /**\r\n     * Set allowance for other address and notify\r\n     *\r\n     * Allows `_spender` to spend no more than `_value` tokens on your behalf, and then ping the contract about it\r\n     *\r\n     * @param _spender The address authorized to spend\r\n     * @param _value the max amount they can spend\r\n     * @param _extraData some extra information to send to the approved contract\r\n     */\r\n    function approveAndCall(address _spender, uint256 _value,\r\n        bytes memory _extraData)\r\n        public\r\n        returns (bool success) {\r\n        tokenRecipient spender = tokenRecipient(_spender);\r\n        if (approve(_spender, _value)) {\r\n            spender.receiveApproval(msg.sender, _value, address(this), _extraData);\r\n            return true;\r\n        }\r\n    }\r\n\r\n    /**\r\n     * Destroy tokens\r\n     *\r\n     * Remove `_value` tokens from the system irreversibly\r\n     *\r\n     * @param _value the amount of money to burn\r\n     */\r\n    function burn(uint256 _value) public returns (bool success) {\r\n        require(balanceOf[msg.sender] >= _value);   // Check if the sender has enough\r\n        balanceOf[msg.sender] -= _value;            // Subtract from the sender\r\n        totalSupply -= _value;                      // Updates totalSupply\r\n        emit Burn(msg.sender, _value);\r\n        return true;\r\n    }\r\n\r\n    /**\r\n     * Destroy tokens from other account\r\n     *\r\n     * Remove `_value` tokens from the system irreversibly on behalf of `_from`.\r\n     *\r\n     * @param _from the address of the sender\r\n     * @param _value the amount of money to burn\r\n     */\r\n    function burnFrom(address _from, uint256 _value) public returns (bool success) {\r\n        require(balanceOf[_from] >= _value);                // Check if the targeted balance is enough\r\n        require(_value <= allowance[_from][msg.sender]);    // Check allowance\r\n        balanceOf[_from] -= _value;                         // Subtract from the targeted balance\r\n        allowance[_from][msg.sender] -= _value;             // Subtract from the sender's allowance\r\n        totalSupply -= _value;                              // Update totalSupply\r\n        emit Burn(_from, _value);\r\n        return true;\r\n    }\r\n\r\n    /**\r\n    * Mint and distribute token\r\n    *\r\n    * You could send money to an address different from the owner and increase the amount of money in\r\n    * ram `target` the address of the receiver\r\n    * aram `mintedAmount` the amount of money minted\r\n    */\r\n    function mintToken(address target, uint256 mintedAmount) onlyOwner public {\r\n        balanceOf[target] += mintedAmount;\r\n        totalSupply += mintedAmount;\r\n        emit Transfer(address(0x0), owner, mintedAmount);\r\n        emit Transfer(owner, target, mintedAmount);\r\n    }\r\n}\r\n",
  "sourcePath": "C:/Users/Greggio/Documents/Giacomo unive/Informatica/III Anno/SWE/Soldino-PoC/contracts/TokenCubit.sol",
  "compiler": {
    "name": "solc",
    "version": "0.5.0+commit.1d4f565a.Emscripten.clang"
  },
  "schemaVersion": "3.0.2",
  "updatedAt": "2019-03-04T22:43:17.706Z",
  "devdoc": {
    "methods": {
      "approve(address,uint256)": {
        "params": {
          "_spender": "The address authorized to spend\r",
          "_value": "the max amount they can spend\r"
        }
      },
      "approveAndCall(address,uint256,bytes)": {
        "params": {
          "_extraData": "some extra information to send to the approved contract\r",
          "_spender": "The address authorized to spend\r",
          "_value": "the max amount they can spend\r"
        }
      },
      "burn(uint256)": {
        "params": {
          "_value": "the amount of money to burn\r"
        }
      },
      "burnFrom(address,uint256)": {
        "params": {
          "_from": "the address of the sender\r",
          "_value": "the amount of money to burn\r"
        }
      },
      "transfer(address,uint256)": {
        "params": {
          "_to": "The address of the recipient\r",
          "_value": "the amount to send\r"
        }
      },
      "transferFrom(address,address,uint256)": {
        "params": {
          "_from": "The address of the sender\r",
          "_to": "The address of the recipient\r",
          "_value": "the amount to send\r"
        }
      }
    }
  },
  "userdoc": {
    "methods": {
      "approve(address,uint256)": {
        "notice": "Set allowance for other address\r      * Allows `_spender` to spend no more than `_value` tokens on your behalf\r "
      },
      "approveAndCall(address,uint256,bytes)": {
        "notice": "Set allowance for other address and notify\r      * Allows `_spender` to spend no more than `_value` tokens on your behalf, and then ping the contract about it\r "
      },
      "burn(uint256)": {
        "notice": "Destroy tokens\r      * Remove `_value` tokens from the system irreversibly\r "
      },
      "burnFrom(address,uint256)": {
        "notice": "Destroy tokens from other account\r      * Remove `_value` tokens from the system irreversibly on behalf of `_from`.\r "
      },
      "constructor": "Constructor function\r      * Initializes contract with initial supply tokens to the creator of the contract\r",
      "mintToken(address,uint256)": {
        "notice": "Mint and distribute token\r     * You could send money to an address different from the owner and increase the amount of money in\r ram `target` the address of the receiver\r aram `mintedAmount` the amount of money minted\r"
      },
      "transfer(address,uint256)": {
        "notice": "Transfer tokens\r      * Send `_value` tokens to `_to` from your account\r "
      },
      "transferFrom(address,address,uint256)": {
        "notice": "Transfer tokens from other address\r      * Send `_value` tokens to `_to` on behalf of `_from`\r "
      }
    }
  }
}