{
  "contractName": "UserLogic",
  "abi": [
    {
      "constant": true,
      "inputs": [
        {
          "name": "_userAddress",
          "type": "address"
        }
      ],
      "name": "getSurname",
      "outputs": [
        {
          "name": "",
          "type": "bytes32"
        }
      ],
      "payable": false,
      "stateMutability": "view",
      "type": "function"
    },
    {
      "constant": true,
      "inputs": [
        {
          "name": "_userAddress",
          "type": "address"
        }
      ],
      "name": "getEmail",
      "outputs": [
        {
          "name": "",
          "type": "bytes32"
        }
      ],
      "payable": false,
      "stateMutability": "view",
      "type": "function"
    },
    {
      "constant": true,
      "inputs": [
        {
          "name": "_userAddress",
          "type": "address"
        }
      ],
      "name": "getName",
      "outputs": [
        {
          "name": "",
          "type": "bytes32"
        }
      ],
      "payable": false,
      "stateMutability": "view",
      "type": "function"
    },
    {
      "constant": true,
      "inputs": [],
      "name": "owner",
      "outputs": [
        {
          "name": "",
          "type": "address"
        }
      ],
      "payable": false,
      "stateMutability": "view",
      "type": "function"
    },
    {
      "constant": true,
      "inputs": [
        {
          "name": "_userAddress",
          "type": "address"
        }
      ],
      "name": "getActive",
      "outputs": [
        {
          "name": "",
          "type": "bool"
        }
      ],
      "payable": false,
      "stateMutability": "view",
      "type": "function"
    },
    {
      "constant": true,
      "inputs": [
        {
          "name": "_userAddress",
          "type": "address"
        }
      ],
      "name": "getDeliveryAddressaddress",
      "outputs": [
        {
          "name": "",
          "type": "bytes32"
        }
      ],
      "payable": false,
      "stateMutability": "view",
      "type": "function"
    },
    {
      "constant": false,
      "inputs": [
        {
          "name": "newOwner",
          "type": "address"
        }
      ],
      "name": "transferOwnership",
      "outputs": [],
      "payable": false,
      "stateMutability": "nonpayable",
      "type": "function"
    },
    {
      "constant": true,
      "inputs": [
        {
          "name": "_userAddress",
          "type": "address"
        }
      ],
      "name": "userIsRegistered",
      "outputs": [
        {
          "name": "",
          "type": "uint256"
        }
      ],
      "payable": false,
      "stateMutability": "view",
      "type": "function"
    },
    {
      "constant": false,
      "inputs": [
        {
          "name": "_email",
          "type": "bytes32"
        },
        {
          "name": "_name",
          "type": "bytes32"
        },
        {
          "name": "_surname",
          "type": "bytes32"
        },
        {
          "name": "_devAddress",
          "type": "bytes32"
        }
      ],
      "name": "registerCitizen",
      "outputs": [],
      "payable": false,
      "stateMutability": "nonpayable",
      "type": "function"
    },
    {
      "constant": false,
      "inputs": [
        {
          "name": "_email",
          "type": "bytes32"
        },
        {
          "name": "_name",
          "type": "bytes32"
        },
        {
          "name": "_vatNumber",
          "type": "bytes32"
        },
        {
          "name": "_devAddress",
          "type": "bytes32"
        }
      ],
      "name": "registerBusiness",
      "outputs": [],
      "payable": false,
      "stateMutability": "nonpayable",
      "type": "function"
    }
  ],
  "bytecode": "0x608060405233600460006101000a81548173ffffffffffffffffffffffffffffffffffffffff021916908373ffffffffffffffffffffffffffffffffffffffff1602179055506110e2806100546000396000f3fe6080604052600436106100a4576000357c0100000000000000000000000000000000000000000000000000000000900463ffffffff1680630ead22b2146100a95780634fa7353c1461010e5780635fd4b08a14610173578063752c47b4146101d85780638da5cb5b14610231578063daea3e3a14610288578063e5252e75146102f1578063f2fde38b14610356578063f3431235146103a7578063f6f1971514610400575b600080fd5b3480156100b557600080fd5b506100f8600480360360208110156100cc57600080fd5b81019080803573ffffffffffffffffffffffffffffffffffffffff169060200190929190505050610465565b6040518082815260200191505060405180910390f35b34801561011a57600080fd5b5061015d6004803603602081101561013157600080fd5b81019080803573ffffffffffffffffffffffffffffffffffffffff1690602001909291905050506104b1565b6040518082815260200191505060405180910390f35b34801561017f57600080fd5b506101c26004803603602081101561019657600080fd5b81019080803573ffffffffffffffffffffffffffffffffffffffff1690602001909291905050506104fd565b6040518082815260200191505060405180910390f35b3480156101e457600080fd5b5061022f600480360360808110156101fb57600080fd5b8101908080359060200190929190803590602001909291908035906020019092919080359060200190929190505050610549565b005b34801561023d57600080fd5b50610246610674565b604051808273ffffffffffffffffffffffffffffffffffffffff1673ffffffffffffffffffffffffffffffffffffffff16815260200191505060405180910390f35b34801561029457600080fd5b506102d7600480360360208110156102ab57600080fd5b81019080803573ffffffffffffffffffffffffffffffffffffffff16906020019092919050505061069a565b604051808215151515815260200191505060405180910390f35b3480156102fd57600080fd5b506103406004803603602081101561031457600080fd5b81019080803573ffffffffffffffffffffffffffffffffffffffff1690602001909291905050506106f3565b6040518082815260200191505060405180910390f35b34801561036257600080fd5b506103a56004803603602081101561037957600080fd5b81019080803573ffffffffffffffffffffffffffffffffffffffff16906020019092919050505061073f565b005b3480156103b357600080fd5b506103fe600480360360808110156103ca57600080fd5b8101908080359060200190929190803590602001909291908035906020019092919080359060200190929190505050610848565b005b34801561040c57600080fd5b5061044f6004803603602081101561042357600080fd5b81019080803573ffffffffffffffffffffffffffffffffffffffff169060200190929190505050610973565b6040518082815260200191505060405180910390f35b6000600360008373ffffffffffffffffffffffffffffffffffffffff1673ffffffffffffffffffffffffffffffffffffffff168152602001908152602001600020600301549050919050565b6000600360008373ffffffffffffffffffffffffffffffffffffffff1673ffffffffffffffffffffffffffffffffffffffff168152602001908152602001600020600001549050919050565b6000600360008373ffffffffffffffffffffffffffffffffffffffff1673ffffffffffffffffffffffffffffffffffffffff168152602001908152602001600020600201549050919050565b600061055433610973565b141515156105ca576040517f08c379a00000000000000000000000000000000000000000000000000000000081526004018080602001828103825260178152602001807f5573657220616c7265616479207265676973746572656400000000000000000081525060200191505060405180910390fd5b6105d43385610d0c565b6105de3384610d57565b6105e83383610da2565b6105f23382610ded565b6105fd336001610e38565b61066e33600160003390806001815401808255809150509060018203906000526020600020016000909192909190916101000a81548173ffffffffffffffffffffffffffffffffffffffff021916908373ffffffffffffffffffffffffffffffffffffffff16021790555003610e96565b50505050565b600460009054906101000a900473ffffffffffffffffffffffffffffffffffffffff1681565b6000600360008373ffffffffffffffffffffffffffffffffffffffff1673ffffffffffffffffffffffffffffffffffffffff16815260200190815260200160002060040160009054906101000a900460ff169050919050565b6000600360008373ffffffffffffffffffffffffffffffffffffffff1673ffffffffffffffffffffffffffffffffffffffff168152602001908152602001600020600101549050919050565b600460009054906101000a900473ffffffffffffffffffffffffffffffffffffffff1673ffffffffffffffffffffffffffffffffffffffff163373ffffffffffffffffffffffffffffffffffffffff16141515610804576040517f08c379a00000000000000000000000000000000000000000000000000000000081526004018080602001828103825260118152602001807f5065726d697373696f6e2064656e69656400000000000000000000000000000081525060200191505060405180910390fd5b80600460006101000a81548173ffffffffffffffffffffffffffffffffffffffff021916908373ffffffffffffffffffffffffffffffffffffffff16021790555050565b600061085333610973565b141515156108c9576040517f08c379a00000000000000000000000000000000000000000000000000000000081526004018080602001828103825260178152602001807f5573657220616c7265616479207265676973746572656400000000000000000081525060200191505060405180910390fd5b6108d33385610ee1565b6108dd3384610f2c565b6108e73383610f77565b6108f13382610fc2565b6108fc33600161100d565b61096d33600160023390806001815401808255809150509060018203906000526020600020016000909192909190916101000a81548173ffffffffffffffffffffffffffffffffffffffff021916908373ffffffffffffffffffffffffffffffffffffffff1602179055500361106b565b50505050565b6000600460009054906101000a900473ffffffffffffffffffffffffffffffffffffffff1673ffffffffffffffffffffffffffffffffffffffff168273ffffffffffffffffffffffffffffffffffffffff1614156109d45760039050610d07565b60008080549050141515610b6b578173ffffffffffffffffffffffffffffffffffffffff166000600160008573ffffffffffffffffffffffffffffffffffffffff1673ffffffffffffffffffffffffffffffffffffffff16815260200190815260200160002060050154815481101515610a4a57fe5b9060005260206000200160009054906101000a900473ffffffffffffffffffffffffffffffffffffffff1673ffffffffffffffffffffffffffffffffffffffff161415610a9a5760019050610d07565b6000600280549050141515610b62578173ffffffffffffffffffffffffffffffffffffffff166002600360008573ffffffffffffffffffffffffffffffffffffffff1673ffffffffffffffffffffffffffffffffffffffff16815260200190815260200160002060050154815481101515610b1157fe5b9060005260206000200160009054906101000a900473ffffffffffffffffffffffffffffffffffffffff1673ffffffffffffffffffffffffffffffffffffffff161415610b615760029050610d07565b5b60009050610d07565b6000600280549050141515610d02578173ffffffffffffffffffffffffffffffffffffffff166002600360008573ffffffffffffffffffffffffffffffffffffffff1673ffffffffffffffffffffffffffffffffffffffff16815260200190815260200160002060050154815481101515610be257fe5b9060005260206000200160009054906101000a900473ffffffffffffffffffffffffffffffffffffffff1673ffffffffffffffffffffffffffffffffffffffff161415610c325760029050610d07565b60008080549050141515610cf9578173ffffffffffffffffffffffffffffffffffffffff166000600160008573ffffffffffffffffffffffffffffffffffffffff1673ffffffffffffffffffffffffffffffffffffffff16815260200190815260200160002060050154815481101515610ca857fe5b9060005260206000200160009054906101000a900473ffffffffffffffffffffffffffffffffffffffff1673ffffffffffffffffffffffffffffffffffffffff161415610cf85760019050610d07565b5b60009050610d07565b600090505b919050565b80600160008473ffffffffffffffffffffffffffffffffffffffff1673ffffffffffffffffffffffffffffffffffffffff168152602001908152602001600020600001819055505050565b80600160008473ffffffffffffffffffffffffffffffffffffffff1673ffffffffffffffffffffffffffffffffffffffff168152602001908152602001600020600201819055505050565b80600160008473ffffffffffffffffffffffffffffffffffffffff1673ffffffffffffffffffffffffffffffffffffffff168152602001908152602001600020600301819055505050565b80600160008473ffffffffffffffffffffffffffffffffffffffff1673ffffffffffffffffffffffffffffffffffffffff168152602001908152602001600020600101819055505050565b80600160008473ffffffffffffffffffffffffffffffffffffffff1673ffffffffffffffffffffffffffffffffffffffff16815260200190815260200160002060040160006101000a81548160ff0219169083151502179055505050565b80600160008473ffffffffffffffffffffffffffffffffffffffff1673ffffffffffffffffffffffffffffffffffffffff168152602001908152602001600020600501819055505050565b80600360008473ffffffffffffffffffffffffffffffffffffffff1673ffffffffffffffffffffffffffffffffffffffff168152602001908152602001600020600001819055505050565b80600360008473ffffffffffffffffffffffffffffffffffffffff1673ffffffffffffffffffffffffffffffffffffffff168152602001908152602001600020600201819055505050565b80600360008473ffffffffffffffffffffffffffffffffffffffff1673ffffffffffffffffffffffffffffffffffffffff168152602001908152602001600020600301819055505050565b80600360008473ffffffffffffffffffffffffffffffffffffffff1673ffffffffffffffffffffffffffffffffffffffff168152602001908152602001600020600101819055505050565b80600360008473ffffffffffffffffffffffffffffffffffffffff1673ffffffffffffffffffffffffffffffffffffffff16815260200190815260200160002060040160006101000a81548160ff0219169083151502179055505050565b80600360008473ffffffffffffffffffffffffffffffffffffffff1673ffffffffffffffffffffffffffffffffffffffff16815260200190815260200160002060050181905550505056fea165627a7a72305820b4e61baa90e57240a23cfee71bda78f5d9bc08ac0b0733f27855057a14a085c90029",
  "source": "pragma solidity ^0.5.0;\n\nimport \"./storage/BusinessStorage.sol\";\nimport \"./storage/CitizenStorage.sol\";\nimport \"./Owned.sol\";\n\n/**\n  * Created: 2019-03-13\n  * @author Mattia\n  * @title User logic contract\n  * @dev This contract manage the logic of the user storage\n  */\ncontract UserLogic is BusinessStorage, CitizenStorage, Owned {\n\n    function userIsRegistered(address _userAddress) public view returns (uint) {\n        if(_userAddress == owner) {\n            return 3;\n        }\n        if(businessList.length != 0) {\n            if (businessList[addressToBusiness[_userAddress].index] == _userAddress) {\n                return 1;\n            }\n            if(citizenList.length != 0) {\n                if(citizenList[addressToCitizen[_userAddress].index] == _userAddress) {\n                    return 2;\n                }\n            }\n            return 0;\n        }\n        if(citizenList.length != 0) {\n            if(citizenList[addressToCitizen[_userAddress].index] == _userAddress) {\n                return 2;\n            }\n            if(businessList.length != 0) {\n                if (businessList[addressToBusiness[_userAddress].index] == _userAddress) {\n                    return 1;\n                }\n            }\n            return 0;\n        }\n\n        return 0;\n    }\n\n    function registerCitizen(\n        bytes32 _email,\n        bytes32 _name,\n        bytes32 _surname,\n        bytes32 _devAddress\n    ) public {\n        require(userIsRegistered(msg.sender) != 0, \"User already registered\");\n        CitizenStorage.setEmail(msg.sender, _email);\n        CitizenStorage.setName(msg.sender, _name);\n        CitizenStorage.setSurname(msg.sender, _surname);\n        CitizenStorage.setDeliveryAddress(msg.sender, _devAddress);\n        CitizenStorage.setActive(msg.sender, true);\n        CitizenStorage.setIndex(msg.sender, citizenList.push(msg.sender) - 1);\n    }\n\n    function registerBusiness(\n        bytes32 _email,\n        bytes32 _name,\n        bytes32 _vatNumber,\n        bytes32 _devAddress\n    ) public {\n        require(userIsRegistered(msg.sender) != 0, \"User already registered\");\n        BusinessStorage.setEmail(msg.sender, _email);\n        BusinessStorage.setName(msg.sender, _name);\n        BusinessStorage.setVATNumber(msg.sender, _vatNumber);\n        BusinessStorage.setDeliveryAddress(msg.sender, _devAddress);\n        BusinessStorage.setActive(msg.sender, true);\n        BusinessStorage.setIndex(msg.sender, businessList.push(msg.sender) - 1);\n    }\n\n}\n",
  "sourcePath": "/home/bolzo/SWE/Soldino-PoC/contracts/UserLogic.sol",
  "compiler": {
    "name": "solc",
    "version": "0.5.0+commit.1d4f565a.Emscripten.clang"
  },
  "schemaVersion": "3.0.1",
  "updatedAt": "2019-03-20T17:05:02.746Z",
  "devdoc": {
    "author": "Mattia",
    "details": "This contract manage the logic of the user storage",
    "methods": {},
    "title": "User logic contract"
  },
  "userdoc": {
    "methods": {},
    "notice": "Created: 2019-03-13"
  }
}