{
  "contractName": "UserLogic",
  "abi": [
    {
      "constant": true,
      "inputs": [
        {
          "name": "_userAddress",
          "type": "address"
        }
      ],
      "name": "getSurname",
      "outputs": [
        {
          "name": "",
          "type": "bytes32"
        }
      ],
      "payable": false,
      "stateMutability": "view",
      "type": "function"
    },
    {
      "constant": true,
      "inputs": [],
      "name": "getBusinessListLength",
      "outputs": [
        {
          "name": "",
          "type": "uint256"
        }
      ],
      "payable": false,
      "stateMutability": "view",
      "type": "function"
    },
    {
      "constant": false,
      "inputs": [
        {
          "name": "_userAddress",
          "type": "address"
        },
        {
          "name": "_active",
          "type": "bool"
        }
      ],
      "name": "setActive",
      "outputs": [],
      "payable": false,
      "stateMutability": "nonpayable",
      "type": "function"
    },
    {
      "constant": false,
      "inputs": [
        {
          "name": "_userAddress",
          "type": "address"
        },
        {
          "name": "_name",
          "type": "bytes32"
        }
      ],
      "name": "setName",
      "outputs": [],
      "payable": false,
      "stateMutability": "nonpayable",
      "type": "function"
    },
    {
      "constant": true,
      "inputs": [],
      "name": "getCitizenListLength",
      "outputs": [
        {
          "name": "",
          "type": "uint256"
        }
      ],
      "payable": false,
      "stateMutability": "view",
      "type": "function"
    },
    {
      "constant": true,
      "inputs": [
        {
          "name": "_userAddress",
          "type": "address"
        }
      ],
      "name": "getAddressAt",
      "outputs": [
        {
          "name": "",
          "type": "address"
        }
      ],
      "payable": false,
      "stateMutability": "view",
      "type": "function"
    },
    {
      "constant": true,
      "inputs": [
        {
          "name": "_userAddress",
          "type": "address"
        }
      ],
      "name": "getEmail",
      "outputs": [
        {
          "name": "",
          "type": "bytes32"
        }
      ],
      "payable": false,
      "stateMutability": "view",
      "type": "function"
    },
    {
      "constant": false,
      "inputs": [
        {
          "name": "_userAddress",
          "type": "address"
        },
        {
          "name": "_index",
          "type": "uint256"
        }
      ],
      "name": "setIndex",
      "outputs": [],
      "payable": false,
      "stateMutability": "nonpayable",
      "type": "function"
    },
    {
      "constant": true,
      "inputs": [
        {
          "name": "_userAddress",
          "type": "address"
        }
      ],
      "name": "getName",
      "outputs": [
        {
          "name": "",
          "type": "bytes32"
        }
      ],
      "payable": false,
      "stateMutability": "view",
      "type": "function"
    },
    {
      "constant": false,
      "inputs": [
        {
          "name": "_userAddress",
          "type": "address"
        }
      ],
      "name": "pushToCitizenList",
      "outputs": [
        {
          "name": "",
          "type": "uint256"
        }
      ],
      "payable": false,
      "stateMutability": "nonpayable",
      "type": "function"
    },
    {
      "constant": true,
      "inputs": [],
      "name": "owner",
      "outputs": [
        {
          "name": "",
          "type": "address"
        }
      ],
      "payable": false,
      "stateMutability": "view",
      "type": "function"
    },
    {
      "constant": false,
      "inputs": [
        {
          "name": "_userAddress",
          "type": "address"
        },
        {
          "name": "_surname",
          "type": "bytes32"
        }
      ],
      "name": "setSurname",
      "outputs": [],
      "payable": false,
      "stateMutability": "nonpayable",
      "type": "function"
    },
    {
      "constant": false,
      "inputs": [
        {
          "name": "_userAddress",
          "type": "address"
        }
      ],
      "name": "pushToBusinessList",
      "outputs": [
        {
          "name": "",
          "type": "uint256"
        }
      ],
      "payable": false,
      "stateMutability": "nonpayable",
      "type": "function"
    },
    {
      "constant": false,
      "inputs": [
        {
          "name": "_userAddress",
          "type": "address"
        },
        {
          "name": "_vatNumber",
          "type": "bytes32"
        }
      ],
      "name": "setVATNumber",
      "outputs": [],
      "payable": false,
      "stateMutability": "nonpayable",
      "type": "function"
    },
    {
      "constant": false,
      "inputs": [
        {
          "name": "_userAddress",
          "type": "address"
        },
        {
          "name": "_email",
          "type": "bytes32"
        }
      ],
      "name": "setEmail",
      "outputs": [],
      "payable": false,
      "stateMutability": "nonpayable",
      "type": "function"
    },
    {
      "constant": true,
      "inputs": [
        {
          "name": "_userAddress",
          "type": "address"
        }
      ],
      "name": "getActive",
      "outputs": [
        {
          "name": "",
          "type": "bool"
        }
      ],
      "payable": false,
      "stateMutability": "view",
      "type": "function"
    },
    {
      "constant": false,
      "inputs": [
        {
          "name": "_userAddress",
          "type": "address"
        },
        {
          "name": "_devAddress",
          "type": "bytes32"
        }
      ],
      "name": "setDeliveryAddress",
      "outputs": [],
      "payable": false,
      "stateMutability": "nonpayable",
      "type": "function"
    },
    {
      "constant": true,
      "inputs": [
        {
          "name": "_userAddress",
          "type": "address"
        }
      ],
      "name": "getDeliveryAddressaddress",
      "outputs": [
        {
          "name": "",
          "type": "bytes32"
        }
      ],
      "payable": false,
      "stateMutability": "view",
      "type": "function"
    },
    {
      "constant": false,
      "inputs": [
        {
          "name": "newOwner",
          "type": "address"
        }
      ],
      "name": "transferOwnership",
      "outputs": [],
      "payable": false,
      "stateMutability": "nonpayable",
      "type": "function"
    },
    {
      "constant": true,
      "inputs": [
        {
          "name": "_userAddress",
          "type": "address"
        }
      ],
      "name": "userIsRegistered",
      "outputs": [
        {
          "name": "",
          "type": "uint256"
        }
      ],
      "payable": false,
      "stateMutability": "view",
      "type": "function"
    },
    {
      "constant": false,
      "inputs": [
        {
          "name": "_email",
          "type": "bytes32"
        },
        {
          "name": "_name",
          "type": "bytes32"
        },
        {
          "name": "_surname",
          "type": "bytes32"
        },
        {
          "name": "_devAddress",
          "type": "bytes32"
        }
      ],
      "name": "registerCitizen",
      "outputs": [],
      "payable": false,
      "stateMutability": "nonpayable",
      "type": "function"
    },
    {
      "constant": false,
      "inputs": [
        {
          "name": "_email",
          "type": "bytes32"
        },
        {
          "name": "_name",
          "type": "bytes32"
        },
        {
          "name": "_vatNumber",
          "type": "bytes32"
        },
        {
          "name": "_devAddress",
          "type": "bytes32"
        }
      ],
      "name": "registerBusiness",
      "outputs": [],
      "payable": false,
      "stateMutability": "nonpayable",
      "type": "function"
    },
    {
      "constant": false,
      "inputs": [
        {
          "name": "_citAdd",
          "type": "address"
        },
        {
          "name": "_active",
          "type": "bool"
        }
      ],
      "name": "setActiveCit",
      "outputs": [],
      "payable": false,
      "stateMutability": "nonpayable",
      "type": "function"
    },
    {
      "constant": true,
      "inputs": [
        {
          "name": "_citAdd",
          "type": "address"
        }
      ],
      "name": "getActiveCit",
      "outputs": [
        {
          "name": "",
          "type": "bool"
        }
      ],
      "payable": false,
      "stateMutability": "view",
      "type": "function"
    }
  ],
  "bytecode": "0x60806040526001600460146101000a81548160ff02191690831515021790555033600460006101000a81548173ffffffffffffffffffffffffffffffffffffffff021916908373ffffffffffffffffffffffffffffffffffffffff1602179055506118908061006f6000396000f3fe60806040526004361061013e576000357c0100000000000000000000000000000000000000000000000000000000900463ffffffff1680630ead22b2146101435780632c4ba883146101a85780632ce962cf146101d357806335fe620f1461023057806341f220721461028b57806344a39b87146102b65780634fa7353c146103475780635caf5a6a146103ac5780635fd4b08a14610407578063695322881461046c5780636c7adb64146104d5578063752c47b41461053a5780638da5cb5b1461059357806390168d77146105ea578063c6880f6514610647578063c8b23858146106a2578063cfee4d6b14610707578063d4bc088914610762578063daea3e3a146107bd578063ddc9f37314610826578063e5252e7514610881578063f2fde38b146108e6578063f343123514610937578063f6f1971514610990575b600080fd5b34801561014f57600080fd5b506101926004803603602081101561016657600080fd5b81019080803573ffffffffffffffffffffffffffffffffffffffff1690602001909291905050506109f5565b6040518082815260200191505060405180910390f35b3480156101b457600080fd5b506101bd610a41565b6040518082815260200191505060405180910390f35b3480156101df57600080fd5b5061022e600480360360408110156101f657600080fd5b81019080803573ffffffffffffffffffffffffffffffffffffffff169060200190929190803515159060200190929190505050610a4d565b005b34801561023c57600080fd5b506102896004803603604081101561025357600080fd5b81019080803573ffffffffffffffffffffffffffffffffffffffff16906020019092919080359060200190929190505050610aab565b005b34801561029757600080fd5b506102a0610af6565b6040518082815260200191505060405180910390f35b3480156102c257600080fd5b50610305600480360360208110156102d957600080fd5b81019080803573ffffffffffffffffffffffffffffffffffffffff169060200190929190505050610b03565b604051808273ffffffffffffffffffffffffffffffffffffffff1673ffffffffffffffffffffffffffffffffffffffff16815260200191505060405180910390f35b34801561035357600080fd5b506103966004803603602081101561036a57600080fd5b81019080803573ffffffffffffffffffffffffffffffffffffffff169060200190929190505050610b88565b6040518082815260200191505060405180910390f35b3480156103b857600080fd5b50610405600480360360408110156103cf57600080fd5b81019080803573ffffffffffffffffffffffffffffffffffffffff16906020019092919080359060200190929190505050610bd4565b005b34801561041357600080fd5b506104566004803603602081101561042a57600080fd5b81019080803573ffffffffffffffffffffffffffffffffffffffff169060200190929190505050610c1f565b6040518082815260200191505060405180910390f35b34801561047857600080fd5b506104bb6004803603602081101561048f57600080fd5b81019080803573ffffffffffffffffffffffffffffffffffffffff169060200190929190505050610c6b565b604051808215151515815260200191505060405180910390f35b3480156104e157600080fd5b50610524600480360360208110156104f857600080fd5b81019080803573ffffffffffffffffffffffffffffffffffffffff169060200190929190505050610c7d565b6040518082815260200191505060405180910390f35b34801561054657600080fd5b506105916004803603608081101561055d57600080fd5b8101908080359060200190929190803590602001909291908035906020019092919080359060200190929190505050610cee565b005b34801561059f57600080fd5b506105a8610e58565b604051808273ffffffffffffffffffffffffffffffffffffffff1673ffffffffffffffffffffffffffffffffffffffff16815260200191505060405180910390f35b3480156105f657600080fd5b506106456004803603604081101561060d57600080fd5b81019080803573ffffffffffffffffffffffffffffffffffffffff169060200190929190803515159060200190929190505050610e7e565b005b34801561065357600080fd5b506106a06004803603604081101561066a57600080fd5b81019080803573ffffffffffffffffffffffffffffffffffffffff16906020019092919080359060200190929190505050610e8c565b005b3480156106ae57600080fd5b506106f1600480360360208110156106c557600080fd5b81019080803573ffffffffffffffffffffffffffffffffffffffff169060200190929190505050610ed7565b6040518082815260200191505060405180910390f35b34801561071357600080fd5b506107606004803603604081101561072a57600080fd5b81019080803573ffffffffffffffffffffffffffffffffffffffff16906020019092919080359060200190929190505050610f48565b005b34801561076e57600080fd5b506107bb6004803603604081101561078557600080fd5b81019080803573ffffffffffffffffffffffffffffffffffffffff16906020019092919080359060200190929190505050610f93565b005b3480156107c957600080fd5b5061080c600480360360208110156107e057600080fd5b81019080803573ffffffffffffffffffffffffffffffffffffffff169060200190929190505050610fde565b604051808215151515815260200191505060405180910390f35b34801561083257600080fd5b5061087f6004803603604081101561084957600080fd5b81019080803573ffffffffffffffffffffffffffffffffffffffff16906020019092919080359060200190929190505050611037565b005b34801561088d57600080fd5b506108d0600480360360208110156108a457600080fd5b81019080803573ffffffffffffffffffffffffffffffffffffffff169060200190929190505050611082565b6040518082815260200191505060405180910390f35b3480156108f257600080fd5b506109356004803603602081101561090957600080fd5b81019080803573ffffffffffffffffffffffffffffffffffffffff1690602001909291905050506110ce565b005b34801561094357600080fd5b5061098e6004803603608081101561095a57600080fd5b81019080803590602001909291908035906020019092919080359060200190929190803590602001909291905050506111d7565b005b34801561099c57600080fd5b506109df600480360360208110156109b357600080fd5b81019080803573ffffffffffffffffffffffffffffffffffffffff169060200190929190505050611341565b6040518082815260200191505060405180910390f35b6000600360008373ffffffffffffffffffffffffffffffffffffffff1673ffffffffffffffffffffffffffffffffffffffff168152602001908152602001600020600301549050919050565b60008080549050905090565b80600360008473ffffffffffffffffffffffffffffffffffffffff1673ffffffffffffffffffffffffffffffffffffffff16815260200190815260200160002060040160006101000a81548160ff0219169083151502179055505050565b80600360008473ffffffffffffffffffffffffffffffffffffffff1673ffffffffffffffffffffffffffffffffffffffff168152602001908152602001600020600201819055505050565b6000600280549050905090565b60006002600360008473ffffffffffffffffffffffffffffffffffffffff1673ffffffffffffffffffffffffffffffffffffffff16815260200190815260200160002060050154815481101515610b5657fe5b9060005260206000200160009054906101000a900473ffffffffffffffffffffffffffffffffffffffff169050919050565b6000600360008373ffffffffffffffffffffffffffffffffffffffff1673ffffffffffffffffffffffffffffffffffffffff168152602001908152602001600020600001549050919050565b80600360008473ffffffffffffffffffffffffffffffffffffffff1673ffffffffffffffffffffffffffffffffffffffff168152602001908152602001600020600501819055505050565b6000600360008373ffffffffffffffffffffffffffffffffffffffff1673ffffffffffffffffffffffffffffffffffffffff168152602001908152602001600020600201549050919050565b6000610c7682610fde565b9050919050565b6000600160028390806001815401808255809150509060018203906000526020600020016000909192909190916101000a81548173ffffffffffffffffffffffffffffffffffffffff021916908373ffffffffffffffffffffffffffffffffffffffff160217905550039050919050565b3360001515600460149054906101000a900460ff1615151415610d91576000610d1682611341565b14151515610d8c576040517f08c379a00000000000000000000000000000000000000000000000000000000081526004018080602001828103825260178152602001807f5573657220616c7265616479207265676973746572656400000000000000000081525060200191505060405180910390fd5b610dad565b6000600460146101000a81548160ff0219169083151502179055505b610db733866116da565b610dc13385611725565b610dcb3384610f48565b610dd53383611770565b610de03360016117bb565b610e5133600160003390806001815401808255809150509060018203906000526020600020016000909192909190916101000a81548173ffffffffffffffffffffffffffffffffffffffff021916908373ffffffffffffffffffffffffffffffffffffffff16021790555003611819565b5050505050565b600460009054906101000a900473ffffffffffffffffffffffffffffffffffffffff1681565b610e888282610a4d565b5050565b80600360008473ffffffffffffffffffffffffffffffffffffffff1673ffffffffffffffffffffffffffffffffffffffff168152602001908152602001600020600301819055505050565b6000600160008390806001815401808255809150509060018203906000526020600020016000909192909190916101000a81548173ffffffffffffffffffffffffffffffffffffffff021916908373ffffffffffffffffffffffffffffffffffffffff160217905550039050919050565b80600160008473ffffffffffffffffffffffffffffffffffffffff1673ffffffffffffffffffffffffffffffffffffffff168152602001908152602001600020600301819055505050565b80600360008473ffffffffffffffffffffffffffffffffffffffff1673ffffffffffffffffffffffffffffffffffffffff168152602001908152602001600020600001819055505050565b6000600360008373ffffffffffffffffffffffffffffffffffffffff1673ffffffffffffffffffffffffffffffffffffffff16815260200190815260200160002060040160009054906101000a900460ff169050919050565b80600360008473ffffffffffffffffffffffffffffffffffffffff1673ffffffffffffffffffffffffffffffffffffffff168152602001908152602001600020600101819055505050565b6000600360008373ffffffffffffffffffffffffffffffffffffffff1673ffffffffffffffffffffffffffffffffffffffff168152602001908152602001600020600101549050919050565b600460009054906101000a900473ffffffffffffffffffffffffffffffffffffffff1673ffffffffffffffffffffffffffffffffffffffff163373ffffffffffffffffffffffffffffffffffffffff16141515611193576040517f08c379a00000000000000000000000000000000000000000000000000000000081526004018080602001828103825260118152602001807f5065726d697373696f6e2064656e69656400000000000000000000000000000081525060200191505060405180910390fd5b80600460006101000a81548173ffffffffffffffffffffffffffffffffffffffff021916908373ffffffffffffffffffffffffffffffffffffffff16021790555050565b3360001515600460149054906101000a900460ff161515141561127a5760006111ff82611341565b14151515611275576040517f08c379a00000000000000000000000000000000000000000000000000000000081526004018080602001828103825260178152602001807f5573657220616c7265616479207265676973746572656400000000000000000081525060200191505060405180910390fd5b611296565b6000600460146101000a81548160ff0219169083151502179055505b6112a03386610f93565b6112aa3385610aab565b6112b43384610e8c565b6112be3383611037565b6112c9336001610a4d565b61133a33600160023390806001815401808255809150509060018203906000526020600020016000909192909190916101000a81548173ffffffffffffffffffffffffffffffffffffffff021916908373ffffffffffffffffffffffffffffffffffffffff16021790555003610bd4565b5050505050565b6000600460009054906101000a900473ffffffffffffffffffffffffffffffffffffffff1673ffffffffffffffffffffffffffffffffffffffff168273ffffffffffffffffffffffffffffffffffffffff1614156113a257600390506116d5565b60008080549050141515611539578173ffffffffffffffffffffffffffffffffffffffff166000600160008573ffffffffffffffffffffffffffffffffffffffff1673ffffffffffffffffffffffffffffffffffffffff1681526020019081526020016000206005015481548110151561141857fe5b9060005260206000200160009054906101000a900473ffffffffffffffffffffffffffffffffffffffff1673ffffffffffffffffffffffffffffffffffffffff16141561146857600190506116d5565b6000600280549050141515611530578173ffffffffffffffffffffffffffffffffffffffff166002600360008573ffffffffffffffffffffffffffffffffffffffff1673ffffffffffffffffffffffffffffffffffffffff168152602001908152602001600020600501548154811015156114df57fe5b9060005260206000200160009054906101000a900473ffffffffffffffffffffffffffffffffffffffff1673ffffffffffffffffffffffffffffffffffffffff16141561152f57600290506116d5565b5b600090506116d5565b60006002805490501415156116d0578173ffffffffffffffffffffffffffffffffffffffff166002600360008573ffffffffffffffffffffffffffffffffffffffff1673ffffffffffffffffffffffffffffffffffffffff168152602001908152602001600020600501548154811015156115b057fe5b9060005260206000200160009054906101000a900473ffffffffffffffffffffffffffffffffffffffff1673ffffffffffffffffffffffffffffffffffffffff16141561160057600290506116d5565b600080805490501415156116c7578173ffffffffffffffffffffffffffffffffffffffff166000600160008573ffffffffffffffffffffffffffffffffffffffff1673ffffffffffffffffffffffffffffffffffffffff1681526020019081526020016000206005015481548110151561167657fe5b9060005260206000200160009054906101000a900473ffffffffffffffffffffffffffffffffffffffff1673ffffffffffffffffffffffffffffffffffffffff1614156116c657600190506116d5565b5b600090506116d5565b600090505b919050565b80600160008473ffffffffffffffffffffffffffffffffffffffff1673ffffffffffffffffffffffffffffffffffffffff168152602001908152602001600020600001819055505050565b80600160008473ffffffffffffffffffffffffffffffffffffffff1673ffffffffffffffffffffffffffffffffffffffff168152602001908152602001600020600201819055505050565b80600160008473ffffffffffffffffffffffffffffffffffffffff1673ffffffffffffffffffffffffffffffffffffffff168152602001908152602001600020600101819055505050565b80600160008473ffffffffffffffffffffffffffffffffffffffff1673ffffffffffffffffffffffffffffffffffffffff16815260200190815260200160002060040160006101000a81548160ff0219169083151502179055505050565b80600160008473ffffffffffffffffffffffffffffffffffffffff1673ffffffffffffffffffffffffffffffffffffffff16815260200190815260200160002060050181905550505056fea165627a7a72305820a9d5ccb95da3256413837918ee1fd3d28eb35530bc9ef25035252213851d70510029",
  "source": "pragma solidity ^0.5.0;\n\nimport \"../storage/BusinessStorage.sol\";\nimport \"../storage/CitizenStorage.sol\";\nimport \"../Owned.sol\";\n\n/**\n  * Created: 2019-03-13\n  * @author Mattia\n  * @title User logic contract\n  * @dev This contract manage the logic of the user storage\n  */\ncontract UserLogic is BusinessStorage, CitizenStorage, Owned {\n    bool first = true;\n\n    modifier firstReg(address _address) {\n        if(first == false) {\n            require(userIsRegistered(_address) != 0, \"User already registered\");\n        }\n        else {\n            first = false;\n        }\n        _;\n    }\n\n    function userIsRegistered(address _userAddress) public view returns (uint) {\n        if(_userAddress == owner) {\n            return 3;\n        }\n        if(businessList.length != 0) {\n            if (businessList[addressToBusiness[_userAddress].index] == _userAddress) {\n                return 1;\n            }\n            if(citizenList.length != 0) {\n                if(citizenList[addressToCitizen[_userAddress].index] == _userAddress) {\n                    return 2;\n                }\n            }\n            return 0;\n        }\n        if(citizenList.length != 0) {\n            if(citizenList[addressToCitizen[_userAddress].index] == _userAddress) {\n                return 2;\n            }\n            if(businessList.length != 0) {\n                if (businessList[addressToBusiness[_userAddress].index] == _userAddress) {\n                    return 1;\n                }\n            }\n            return 0;\n        }\n\n        return 0;\n    }\n\n    function registerCitizen(\n        bytes32 _email,\n        bytes32 _name,\n        bytes32 _surname,\n        bytes32 _devAddress\n    ) public firstReg(msg.sender) {\n        CitizenStorage.setEmail(msg.sender, _email);\n        CitizenStorage.setName(msg.sender, _name);\n        CitizenStorage.setSurname(msg.sender, _surname);\n        CitizenStorage.setDeliveryAddress(msg.sender, _devAddress);\n        CitizenStorage.setActive(msg.sender, true);\n        CitizenStorage.setIndex(msg.sender, citizenList.push(msg.sender) - 1);\n    }\n\n    function registerBusiness(\n        bytes32 _email,\n        bytes32 _name,\n        bytes32 _vatNumber,\n        bytes32 _devAddress\n    ) public firstReg(msg.sender) {\n        BusinessStorage.setEmail(msg.sender, _email);\n        BusinessStorage.setName(msg.sender, _name);\n        BusinessStorage.setVATNumber(msg.sender, _vatNumber);\n        BusinessStorage.setDeliveryAddress(msg.sender, _devAddress);\n        BusinessStorage.setActive(msg.sender, true);\n        BusinessStorage.setIndex(msg.sender, businessList.push(msg.sender) - 1);\n    }\n\n    function setActiveCit(address _citAdd, bool _active) public {\n        CitizenStorage.setActive(_citAdd, _active);\n    }\n\n    function getActiveCit(address _citAdd) public view returns (bool) {\n        return CitizenStorage.getActive(_citAdd);\n    }\n\n}\n",
  "sourcePath": "/home/bolzo/swe/Soldino-PoC/contracts/logic/UserLogic.sol",
  "compiler": {
    "name": "solc",
    "version": "0.5.0+commit.1d4f565a.Emscripten.clang"
  },
  "schemaVersion": "3.0.2",
  "updatedAt": "2019-03-29T20:25:22.228Z",
  "devdoc": {
    "author": "Mattia",
    "details": "This contract manage the logic of the user storage",
    "methods": {},
    "title": "User logic contract"
  },
  "userdoc": {
    "methods": {},
    "notice": "Created: 2019-03-13"
  }
}