{
  "contractName": "UserStorage",
  "abi": [
    {
      "constant": true,
      "inputs": [
        {
          "name": "",
          "type": "address"
        }
      ],
      "name": "getName",
      "outputs": [
        {
          "name": "",
          "type": "bytes32"
        }
      ],
      "payable": false,
      "stateMutability": "view",
      "type": "function"
    },
    {
      "constant": true,
      "inputs": [
        {
          "name": "",
          "type": "address"
        }
      ],
      "name": "getEmail",
      "outputs": [
        {
          "name": "",
          "type": "bytes32"
        }
      ],
      "payable": false,
      "stateMutability": "view",
      "type": "function"
    },
    {
      "constant": true,
      "inputs": [
        {
          "name": "",
          "type": "address"
        }
      ],
      "name": "getDeliveryAddress",
      "outputs": [
        {
          "name": "",
          "type": "bytes32"
        }
      ],
      "payable": false,
      "stateMutability": "view",
      "type": "function"
    },
    {
      "constant": true,
      "inputs": [
        {
          "name": "",
          "type": "address"
        }
      ],
      "name": "getActive",
      "outputs": [
        {
          "name": "",
          "type": "bool"
        }
      ],
      "payable": false,
      "stateMutability": "view",
      "type": "function"
    },
    {
      "constant": true,
      "inputs": [
        {
          "name": "_index",
          "type": "uint256"
        }
      ],
      "name": "getAddressByIndex",
      "outputs": [
        {
          "name": "",
          "type": "address"
        }
      ],
      "payable": false,
      "stateMutability": "view",
      "type": "function"
    },
    {
      "constant": false,
      "inputs": [
        {
          "name": "",
          "type": "address"
        },
        {
          "name": "",
          "type": "bytes32"
        }
      ],
      "name": "setName",
      "outputs": [],
      "payable": false,
      "stateMutability": "nonpayable",
      "type": "function"
    },
    {
      "constant": false,
      "inputs": [
        {
          "name": "",
          "type": "address"
        },
        {
          "name": "",
          "type": "bytes32"
        }
      ],
      "name": "setEmail",
      "outputs": [],
      "payable": false,
      "stateMutability": "nonpayable",
      "type": "function"
    },
    {
      "constant": false,
      "inputs": [
        {
          "name": "",
          "type": "address"
        },
        {
          "name": "",
          "type": "bytes32"
        }
      ],
      "name": "setDeliveryAddress",
      "outputs": [],
      "payable": false,
      "stateMutability": "nonpayable",
      "type": "function"
    },
    {
      "constant": false,
      "inputs": [
        {
          "name": "",
          "type": "address"
        },
        {
          "name": "",
          "type": "bool"
        }
      ],
      "name": "setActive",
      "outputs": [],
      "payable": false,
      "stateMutability": "nonpayable",
      "type": "function"
    }
  ],
  "bytecode": "0x608060405234801561001057600080fd5b506104b9806100206000396000f3fe608060405260043610610099576000357c0100000000000000000000000000000000000000000000000000000000900463ffffffff1680632ce962cf1461009e57806335fe620f146100fb5780634fa7353c14610156578063522ecace146101bb5780635fd4b08a14610220578063ce10cf8814610285578063d4bc088914610300578063daea3e3a1461035b578063ddc9f373146103c4575b600080fd5b3480156100aa57600080fd5b506100f9600480360360408110156100c157600080fd5b81019080803573ffffffffffffffffffffffffffffffffffffffff16906020019092919080351515906020019092919050505061041f565b005b34801561010757600080fd5b506101546004803603604081101561011e57600080fd5b81019080803573ffffffffffffffffffffffffffffffffffffffff16906020019092919080359060200190929190505050610423565b005b34801561016257600080fd5b506101a56004803603602081101561017957600080fd5b81019080803573ffffffffffffffffffffffffffffffffffffffff169060200190929190505050610427565b6040518082815260200191505060405180910390f35b3480156101c757600080fd5b5061020a600480360360208110156101de57600080fd5b81019080803573ffffffffffffffffffffffffffffffffffffffff16906020019092919050505061042e565b6040518082815260200191505060405180910390f35b34801561022c57600080fd5b5061026f6004803603602081101561024357600080fd5b81019080803573ffffffffffffffffffffffffffffffffffffffff169060200190929190505050610435565b6040518082815260200191505060405180910390f35b34801561029157600080fd5b506102be600480360360208110156102a857600080fd5b810190808035906020019092919050505061043c565b604051808273ffffffffffffffffffffffffffffffffffffffff1673ffffffffffffffffffffffffffffffffffffffff16815260200191505060405180910390f35b34801561030c57600080fd5b506103596004803603604081101561032357600080fd5b81019080803573ffffffffffffffffffffffffffffffffffffffff1690602001909291908035906020019092919050505061047e565b005b34801561036757600080fd5b506103aa6004803603602081101561037e57600080fd5b81019080803573ffffffffffffffffffffffffffffffffffffffff169060200190929190505050610482565b604051808215151515815260200191505060405180910390f35b3480156103d057600080fd5b5061041d600480360360408110156103e757600080fd5b81019080803573ffffffffffffffffffffffffffffffffffffffff16906020019092919080359060200190929190505050610489565b005b5050565b5050565b6000919050565b6000919050565b6000919050565b6000808281548110151561044c57fe5b9060005260206000200160009054906101000a900473ffffffffffffffffffffffffffffffffffffffff169050919050565b5050565b6000919050565b505056fea165627a7a7230582015bd0f972280d352398b461c7bc5a5cd67056c8cb49f8db75dfb8a00795faa200029",
  "source": "pragma solidity ^0.5.0;\n\n/**\n  * Created: 2019-03-13\n  * @author Mattia\n  * @title Abstract storage contract\n  * @dev This base contract is used to set the fundamentals functions\n  * and state variables used in the user's hierarchy. It's immutable\n  */\ncontract UserStorage {\n    /* \n     * Store all users'addresses. Is internal because it cannot be accessed from \n     * outside the contract or derivate contracts.\n     */\n    address[] internal addresses;\n\n    /*\n     * All functions below define the fundamental behaviour of derivate contracts\n     */\n    function getName(address) public view returns (bytes32){ }\n    \n    function getEmail(address) public view returns (bytes32){ }\n\n    function getDeliveryAddress(address) public view returns (bytes32){ }\n\n    function getActive(address) public view returns (bool){ }\n\n    function getAddressByIndex(uint _index) public view returns (address) {\n      return addresses[_index];\n    }\n\n    function setName(address, bytes32) public{ }\n    function setEmail(address, bytes32) public{ }\n    function setDeliveryAddress(address, bytes32) public{ }\n    function setActive(address, bool) public{ }\n}",
  "sourcePath": "/home/bolzo/swe/Soldino-PoC/contracts/UserStorage.sol",
  "compiler": {
    "name": "solc",
    "version": "0.5.0+commit.1d4f565a.Emscripten.clang"
  },
  "schemaVersion": "3.0.2",
  "updatedAt": "2019-03-13T15:10:33.348Z",
  "devdoc": {
    "author": "Mattia",
    "details": "This base contract is used to set the fundamentals functions and state variables used in the user's hierarchy. It's immutable",
    "methods": {},
    "title": "Abstract storage contract"
  },
  "userdoc": {
    "methods": {},
    "notice": "Created: 2019-03-13"
  }
}