{
  "contractName": "UserStorage",
  "abi": [
    {
      "inputs": [
        {
          "name": "_contractManagerAddress",
          "type": "address"
        }
      ],
      "payable": false,
      "stateMutability": "nonpayable",
      "type": "constructor"
    },
    {
      "constant": true,
      "inputs": [
        {
          "name": "_userAddress",
          "type": "address"
        }
      ],
      "name": "getUserType",
      "outputs": [
        {
          "name": "",
          "type": "uint8"
        }
      ],
      "payable": false,
      "stateMutability": "view",
      "type": "function"
    },
    {
      "constant": false,
      "inputs": [
        {
          "name": "_userAddress",
          "type": "address"
        },
        {
          "name": "_userType",
          "type": "uint8"
        }
      ],
      "name": "addUser",
      "outputs": [],
      "payable": false,
      "stateMutability": "nonpayable",
      "type": "function"
    }
  ],
  "bytecode": "0x608060405234801561001057600080fd5b506040516020806102f78339810180604052602081101561003057600080fd5b8101908080519060200190929190505050806000806101000a81548173ffffffffffffffffffffffffffffffffffffffff021916908373ffffffffffffffffffffffffffffffffffffffff16021790555050610266806100916000396000f3fe608060405234801561001057600080fd5b5060043610610053576000357c0100000000000000000000000000000000000000000000000000000000900480638b3f863f146100585780639c3eead9146100b6575b600080fd5b61009a6004803603602081101561006e57600080fd5b81019080803573ffffffffffffffffffffffffffffffffffffffff169060200190929190505050610107565b604051808260ff1660ff16815260200191505060405180910390f35b610105600480360360408110156100cc57600080fd5b81019080803573ffffffffffffffffffffffffffffffffffffffff169060200190929190803560ff16906020019092919050505061015d565b005b6000600160008373ffffffffffffffffffffffffffffffffffffffff1673ffffffffffffffffffffffffffffffffffffffff16815260200190815260200160002060009054906101000a900460ff169050919050565b600061016883610107565b60ff16146101de576040517f08c379a00000000000000000000000000000000000000000000000000000000081526004018080602001828103825260178152602001807f5573657220616c7265616479207265676973746572656400000000000000000081525060200191505060405180910390fd5b80600160008473ffffffffffffffffffffffffffffffffffffffff1673ffffffffffffffffffffffffffffffffffffffff16815260200190815260200160002060006101000a81548160ff021916908360ff160217905550505056fea165627a7a72305820c293678da91a997262f2fd5ef03289e75a648f6eff1d8a74d2f7b5b853aacccf0029",
  "source": "pragma solidity ^0.5.0;\nimport \"../ContractManager.sol\";\n\ncontract UserStorage {\n    //the manager from which the contract will get the contracts addresses\n    address contractManagerAddress;\n    //mapping containing all the registered users\n    mapping(address => uint8) userTypes;\n    //setting the contractManagerAddress\n    constructor (address _contractManagerAddress) public {\n        contractManagerAddress = _contractManagerAddress;\n    }\n    //get the userType given an address: 0 => not registred, 1=> citizen,\n    // 2=> business, 3=> government\n    function getUserType(address _userAddress) public view returns (uint8) {\n        return userTypes[_userAddress];\n    }\n\n    function addUser(address _userAddress, uint8 _userType) public {\n        require(getUserType(_userAddress) == 0, \"User already registered\");\n        userTypes[_userAddress] = _userType;\n    }\n\n}\n",
  "sourcePath": "/home/samuele/Desktop/Soldino-PoC/contracts/storage/UserStorage.sol",
  "compiler": {
    "name": "solc",
    "version": "0.5.6+commit.b259423e.Emscripten.clang"
  },
  "schemaVersion": "3.0.0-beta.2",
  "updatedAt": "2019-03-30T09:46:37.805Z",
  "devdoc": {
    "methods": {}
  },
  "userdoc": {
    "methods": {}
  }
}