{
  "contractName": "UserLogicV2",
  "abi": [
    {
      "constant": true,
      "inputs": [],
      "name": "owner",
      "outputs": [
        {
          "name": "",
          "type": "address"
        }
      ],
      "payable": false,
      "stateMutability": "view",
      "type": "function"
    },
    {
      "constant": false,
      "inputs": [
        {
          "name": "newOwner",
          "type": "address"
        }
      ],
      "name": "transferOwnership",
      "outputs": [],
      "payable": false,
      "stateMutability": "nonpayable",
      "type": "function"
    },
    {
      "inputs": [
        {
          "name": "_citStoAddress",
          "type": "address"
        },
        {
          "name": "_busStoAddress",
          "type": "address"
        }
      ],
      "payable": false,
      "stateMutability": "nonpayable",
      "type": "constructor"
    },
    {
      "constant": true,
      "inputs": [
        {
          "name": "_userAddress",
          "type": "address"
        }
      ],
      "name": "userIsRegistered",
      "outputs": [
        {
          "name": "",
          "type": "uint256"
        }
      ],
      "payable": false,
      "stateMutability": "view",
      "type": "function"
    },
    {
      "constant": false,
      "inputs": [
        {
          "name": "_email",
          "type": "bytes32"
        },
        {
          "name": "_name",
          "type": "bytes32"
        },
        {
          "name": "_surname",
          "type": "bytes32"
        },
        {
          "name": "_devAddress",
          "type": "bytes32"
        }
      ],
      "name": "registerCitizen",
      "outputs": [],
      "payable": false,
      "stateMutability": "nonpayable",
      "type": "function"
    },
    {
      "constant": false,
      "inputs": [
        {
          "name": "_email",
          "type": "bytes32"
        },
        {
          "name": "_name",
          "type": "bytes32"
        },
        {
          "name": "_vatNumber",
          "type": "bytes32"
        },
        {
          "name": "_devAddress",
          "type": "bytes32"
        }
      ],
      "name": "registerBusiness",
      "outputs": [],
      "payable": false,
      "stateMutability": "nonpayable",
      "type": "function"
    },
    {
      "constant": false,
      "inputs": [
        {
          "name": "_citAdd",
          "type": "address"
        },
        {
          "name": "_active",
          "type": "bool"
        }
      ],
      "name": "setActiveCit",
      "outputs": [],
      "payable": false,
      "stateMutability": "nonpayable",
      "type": "function"
    },
    {
      "constant": true,
      "inputs": [
        {
          "name": "_citAdd",
          "type": "address"
        }
      ],
      "name": "getActiveCit",
      "outputs": [
        {
          "name": "",
          "type": "bool"
        }
      ],
      "payable": false,
      "stateMutability": "view",
      "type": "function"
    },
    {
      "constant": false,
      "inputs": [
        {
          "name": "_citAdd",
          "type": "address"
        },
        {
          "name": "_name",
          "type": "bytes32"
        }
      ],
      "name": "setNameCit",
      "outputs": [],
      "payable": false,
      "stateMutability": "nonpayable",
      "type": "function"
    }
  ],
  "bytecode": "0x60806040526001600260146101000a81548160ff02191690831515021790555034801561002b57600080fd5b50604051604080611f0f8339810180604052604081101561004b57600080fd5b810190808051906020019092919080519060200190929190505050336000806101000a81548173ffffffffffffffffffffffffffffffffffffffff021916908373ffffffffffffffffffffffffffffffffffffffff16021790555081600160006101000a81548173ffffffffffffffffffffffffffffffffffffffff021916908373ffffffffffffffffffffffffffffffffffffffff16021790555080600260006101000a81548173ffffffffffffffffffffffffffffffffffffffff021916908373ffffffffffffffffffffffffffffffffffffffff1602179055505050611dd6806101396000396000f3fe60806040526004361061008e576000357c0100000000000000000000000000000000000000000000000000000000900463ffffffff1680631878a1771461009357806369532288146100ee578063752c47b4146101575780638da5cb5b146101b057806390168d7714610207578063f2fde38b14610264578063f3431235146102b5578063f6f197151461030e575b600080fd5b34801561009f57600080fd5b506100ec600480360360408110156100b657600080fd5b81019080803573ffffffffffffffffffffffffffffffffffffffff16906020019092919080359060200190929190505050610373565b005b3480156100fa57600080fd5b5061013d6004803603602081101561011157600080fd5b81019080803573ffffffffffffffffffffffffffffffffffffffff169060200190929190505050610454565b604051808215151515815260200191505060405180910390f35b34801561016357600080fd5b506101ae6004803603608081101561017a57600080fd5b8101908080359060200190929190803590602001909291908035906020019092919080359060200190929190505050610553565b005b3480156101bc57600080fd5b506101c5610c43565b604051808273ffffffffffffffffffffffffffffffffffffffff1673ffffffffffffffffffffffffffffffffffffffff16815260200191505060405180910390f35b34801561021357600080fd5b506102626004803603604081101561022a57600080fd5b81019080803573ffffffffffffffffffffffffffffffffffffffff169060200190929190803515159060200190929190505050610c68565b005b34801561027057600080fd5b506102b36004803603602081101561028757600080fd5b81019080803573ffffffffffffffffffffffffffffffffffffffff169060200190929190505050610d4d565b005b3480156102c157600080fd5b5061030c600480360360808110156102d857600080fd5b8101908080359060200190929190803590602001909291908035906020019092919080359060200190929190505050610e54565b005b34801561031a57600080fd5b5061035d6004803603602081101561033157600080fd5b81019080803573ffffffffffffffffffffffffffffffffffffffff169060200190929190505050611544565b6040518082815260200191505060405180910390f35b600160009054906101000a900473ffffffffffffffffffffffffffffffffffffffff1673ffffffffffffffffffffffffffffffffffffffff166335fe620f83836040518363ffffffff167c0100000000000000000000000000000000000000000000000000000000028152600401808373ffffffffffffffffffffffffffffffffffffffff1673ffffffffffffffffffffffffffffffffffffffff16815260200182815260200192505050600060405180830381600087803b15801561043857600080fd5b505af115801561044c573d6000803e3d6000fd5b505050505050565b6000600160009054906101000a900473ffffffffffffffffffffffffffffffffffffffff1673ffffffffffffffffffffffffffffffffffffffff1663daea3e3a836040518263ffffffff167c0100000000000000000000000000000000000000000000000000000000028152600401808273ffffffffffffffffffffffffffffffffffffffff1673ffffffffffffffffffffffffffffffffffffffff16815260200191505060206040518083038186803b15801561051157600080fd5b505afa158015610525573d6000803e3d6000fd5b505050506040513d602081101561053b57600080fd5b81019080805190602001909291905050509050919050565b3360001515600260149054906101000a900460ff16151514156105f657600061057b82611544565b141515156105f1576040517f08c379a00000000000000000000000000000000000000000000000000000000081526004018080602001828103825260178152602001807f5573657220616c7265616479207265676973746572656400000000000000000081525060200191505060405180910390fd5b610612565b6000600260146101000a81548160ff0219169083151502179055505b600260009054906101000a900473ffffffffffffffffffffffffffffffffffffffff1673ffffffffffffffffffffffffffffffffffffffff1663d4bc088933876040518363ffffffff167c0100000000000000000000000000000000000000000000000000000000028152600401808373ffffffffffffffffffffffffffffffffffffffff1673ffffffffffffffffffffffffffffffffffffffff16815260200182815260200192505050600060405180830381600087803b1580156106d757600080fd5b505af11580156106eb573d6000803e3d6000fd5b50505050600260009054906101000a900473ffffffffffffffffffffffffffffffffffffffff1673ffffffffffffffffffffffffffffffffffffffff166335fe620f33866040518363ffffffff167c0100000000000000000000000000000000000000000000000000000000028152600401808373ffffffffffffffffffffffffffffffffffffffff1673ffffffffffffffffffffffffffffffffffffffff16815260200182815260200192505050600060405180830381600087803b1580156107b457600080fd5b505af11580156107c8573d6000803e3d6000fd5b50505050600260009054906101000a900473ffffffffffffffffffffffffffffffffffffffff1673ffffffffffffffffffffffffffffffffffffffff1663cfee4d6b33856040518363ffffffff167c0100000000000000000000000000000000000000000000000000000000028152600401808373ffffffffffffffffffffffffffffffffffffffff1673ffffffffffffffffffffffffffffffffffffffff16815260200182815260200192505050600060405180830381600087803b15801561089157600080fd5b505af11580156108a5573d6000803e3d6000fd5b50505050600260009054906101000a900473ffffffffffffffffffffffffffffffffffffffff1673ffffffffffffffffffffffffffffffffffffffff1663ddc9f37333846040518363ffffffff167c0100000000000000000000000000000000000000000000000000000000028152600401808373ffffffffffffffffffffffffffffffffffffffff1673ffffffffffffffffffffffffffffffffffffffff16815260200182815260200192505050600060405180830381600087803b15801561096e57600080fd5b505af1158015610982573d6000803e3d6000fd5b50505050600260009054906101000a900473ffffffffffffffffffffffffffffffffffffffff1673ffffffffffffffffffffffffffffffffffffffff16632ce962cf3360016040518363ffffffff167c0100000000000000000000000000000000000000000000000000000000028152600401808373ffffffffffffffffffffffffffffffffffffffff1673ffffffffffffffffffffffffffffffffffffffff1681526020018215151515815260200192505050600060405180830381600087803b158015610a5057600080fd5b505af1158015610a64573d6000803e3d6000fd5b50505050600260009054906101000a900473ffffffffffffffffffffffffffffffffffffffff1673ffffffffffffffffffffffffffffffffffffffff16635caf5a6a33600260009054906101000a900473ffffffffffffffffffffffffffffffffffffffff1673ffffffffffffffffffffffffffffffffffffffff1663c8b23858336040518263ffffffff167c0100000000000000000000000000000000000000000000000000000000028152600401808273ffffffffffffffffffffffffffffffffffffffff1673ffffffffffffffffffffffffffffffffffffffff168152602001915050602060405180830381600087803b158015610b6457600080fd5b505af1158015610b78573d6000803e3d6000fd5b505050506040513d6020811015610b8e57600080fd5b81019080805190602001909291905050506040518363ffffffff167c0100000000000000000000000000000000000000000000000000000000028152600401808373ffffffffffffffffffffffffffffffffffffffff1673ffffffffffffffffffffffffffffffffffffffff16815260200182815260200192505050600060405180830381600087803b158015610c2457600080fd5b505af1158015610c38573d6000803e3d6000fd5b505050505050505050565b6000809054906101000a900473ffffffffffffffffffffffffffffffffffffffff1681565b600160009054906101000a900473ffffffffffffffffffffffffffffffffffffffff1673ffffffffffffffffffffffffffffffffffffffff16632ce962cf83836040518363ffffffff167c0100000000000000000000000000000000000000000000000000000000028152600401808373ffffffffffffffffffffffffffffffffffffffff1673ffffffffffffffffffffffffffffffffffffffff1681526020018215151515815260200192505050600060405180830381600087803b158015610d3157600080fd5b505af1158015610d45573d6000803e3d6000fd5b505050505050565b6000809054906101000a900473ffffffffffffffffffffffffffffffffffffffff1673ffffffffffffffffffffffffffffffffffffffff163373ffffffffffffffffffffffffffffffffffffffff16141515610e11576040517f08c379a00000000000000000000000000000000000000000000000000000000081526004018080602001828103825260118152602001807f5065726d697373696f6e2064656e69656400000000000000000000000000000081525060200191505060405180910390fd5b806000806101000a81548173ffffffffffffffffffffffffffffffffffffffff021916908373ffffffffffffffffffffffffffffffffffffffff16021790555050565b3360001515600260149054906101000a900460ff1615151415610ef7576000610e7c82611544565b14151515610ef2576040517f08c379a00000000000000000000000000000000000000000000000000000000081526004018080602001828103825260178152602001807f5573657220616c7265616479207265676973746572656400000000000000000081525060200191505060405180910390fd5b610f13565b6000600260146101000a81548160ff0219169083151502179055505b600160009054906101000a900473ffffffffffffffffffffffffffffffffffffffff1673ffffffffffffffffffffffffffffffffffffffff1663d4bc088933876040518363ffffffff167c0100000000000000000000000000000000000000000000000000000000028152600401808373ffffffffffffffffffffffffffffffffffffffff1673ffffffffffffffffffffffffffffffffffffffff16815260200182815260200192505050600060405180830381600087803b158015610fd857600080fd5b505af1158015610fec573d6000803e3d6000fd5b50505050600160009054906101000a900473ffffffffffffffffffffffffffffffffffffffff1673ffffffffffffffffffffffffffffffffffffffff166335fe620f33866040518363ffffffff167c0100000000000000000000000000000000000000000000000000000000028152600401808373ffffffffffffffffffffffffffffffffffffffff1673ffffffffffffffffffffffffffffffffffffffff16815260200182815260200192505050600060405180830381600087803b1580156110b557600080fd5b505af11580156110c9573d6000803e3d6000fd5b50505050600160009054906101000a900473ffffffffffffffffffffffffffffffffffffffff1673ffffffffffffffffffffffffffffffffffffffff1663c6880f6533856040518363ffffffff167c0100000000000000000000000000000000000000000000000000000000028152600401808373ffffffffffffffffffffffffffffffffffffffff1673ffffffffffffffffffffffffffffffffffffffff16815260200182815260200192505050600060405180830381600087803b15801561119257600080fd5b505af11580156111a6573d6000803e3d6000fd5b50505050600160009054906101000a900473ffffffffffffffffffffffffffffffffffffffff1673ffffffffffffffffffffffffffffffffffffffff1663ddc9f37333846040518363ffffffff167c0100000000000000000000000000000000000000000000000000000000028152600401808373ffffffffffffffffffffffffffffffffffffffff1673ffffffffffffffffffffffffffffffffffffffff16815260200182815260200192505050600060405180830381600087803b15801561126f57600080fd5b505af1158015611283573d6000803e3d6000fd5b50505050600160009054906101000a900473ffffffffffffffffffffffffffffffffffffffff1673ffffffffffffffffffffffffffffffffffffffff16632ce962cf3360016040518363ffffffff167c0100000000000000000000000000000000000000000000000000000000028152600401808373ffffffffffffffffffffffffffffffffffffffff1673ffffffffffffffffffffffffffffffffffffffff1681526020018215151515815260200192505050600060405180830381600087803b15801561135157600080fd5b505af1158015611365573d6000803e3d6000fd5b50505050600160009054906101000a900473ffffffffffffffffffffffffffffffffffffffff1673ffffffffffffffffffffffffffffffffffffffff16635caf5a6a33600160009054906101000a900473ffffffffffffffffffffffffffffffffffffffff1673ffffffffffffffffffffffffffffffffffffffff16636c7adb64336040518263ffffffff167c0100000000000000000000000000000000000000000000000000000000028152600401808273ffffffffffffffffffffffffffffffffffffffff1673ffffffffffffffffffffffffffffffffffffffff168152602001915050602060405180830381600087803b15801561146557600080fd5b505af1158015611479573d6000803e3d6000fd5b505050506040513d602081101561148f57600080fd5b81019080805190602001909291905050506040518363ffffffff167c0100000000000000000000000000000000000000000000000000000000028152600401808373ffffffffffffffffffffffffffffffffffffffff1673ffffffffffffffffffffffffffffffffffffffff16815260200182815260200192505050600060405180830381600087803b15801561152557600080fd5b505af1158015611539573d6000803e3d6000fd5b505050505050505050565b60008060009054906101000a900473ffffffffffffffffffffffffffffffffffffffff1673ffffffffffffffffffffffffffffffffffffffff168273ffffffffffffffffffffffffffffffffffffffff1614156115a45760039050611da5565b6000600260009054906101000a900473ffffffffffffffffffffffffffffffffffffffff1673ffffffffffffffffffffffffffffffffffffffff16632c4ba8836040518163ffffffff167c010000000000000000000000000000000000000000000000000000000002815260040160206040518083038186803b15801561162a57600080fd5b505afa15801561163e573d6000803e3d6000fd5b505050506040513d602081101561165457600080fd5b81019080805190602001909291905050501415156119a2578173ffffffffffffffffffffffffffffffffffffffff16600260009054906101000a900473ffffffffffffffffffffffffffffffffffffffff1673ffffffffffffffffffffffffffffffffffffffff166344a39b87846040518263ffffffff167c0100000000000000000000000000000000000000000000000000000000028152600401808273ffffffffffffffffffffffffffffffffffffffff1673ffffffffffffffffffffffffffffffffffffffff16815260200191505060206040518083038186803b15801561173e57600080fd5b505afa158015611752573d6000803e3d6000fd5b505050506040513d602081101561176857600080fd5b810190808051906020019092919050505073ffffffffffffffffffffffffffffffffffffffff16141561179e5760019050611da5565b6000600160009054906101000a900473ffffffffffffffffffffffffffffffffffffffff1673ffffffffffffffffffffffffffffffffffffffff166341f220726040518163ffffffff167c010000000000000000000000000000000000000000000000000000000002815260040160206040518083038186803b15801561182457600080fd5b505afa158015611838573d6000803e3d6000fd5b505050506040513d602081101561184e57600080fd5b8101908080519060200190929190505050141515611999578173ffffffffffffffffffffffffffffffffffffffff16600160009054906101000a900473ffffffffffffffffffffffffffffffffffffffff1673ffffffffffffffffffffffffffffffffffffffff166344a39b87846040518263ffffffff167c0100000000000000000000000000000000000000000000000000000000028152600401808273ffffffffffffffffffffffffffffffffffffffff1673ffffffffffffffffffffffffffffffffffffffff16815260200191505060206040518083038186803b15801561193857600080fd5b505afa15801561194c573d6000803e3d6000fd5b505050506040513d602081101561196257600080fd5b810190808051906020019092919050505073ffffffffffffffffffffffffffffffffffffffff1614156119985760029050611da5565b5b60009050611da5565b6000600160009054906101000a900473ffffffffffffffffffffffffffffffffffffffff1673ffffffffffffffffffffffffffffffffffffffff166341f220726040518163ffffffff167c010000000000000000000000000000000000000000000000000000000002815260040160206040518083038186803b158015611a2857600080fd5b505afa158015611a3c573d6000803e3d6000fd5b505050506040513d6020811015611a5257600080fd5b8101908080519060200190929190505050141515611da0578173ffffffffffffffffffffffffffffffffffffffff16600160009054906101000a900473ffffffffffffffffffffffffffffffffffffffff1673ffffffffffffffffffffffffffffffffffffffff166344a39b87846040518263ffffffff167c0100000000000000000000000000000000000000000000000000000000028152600401808273ffffffffffffffffffffffffffffffffffffffff1673ffffffffffffffffffffffffffffffffffffffff16815260200191505060206040518083038186803b158015611b3c57600080fd5b505afa158015611b50573d6000803e3d6000fd5b505050506040513d6020811015611b6657600080fd5b810190808051906020019092919050505073ffffffffffffffffffffffffffffffffffffffff161415611b9c5760029050611da5565b6000600260009054906101000a900473ffffffffffffffffffffffffffffffffffffffff1673ffffffffffffffffffffffffffffffffffffffff16632c4ba8836040518163ffffffff167c010000000000000000000000000000000000000000000000000000000002815260040160206040518083038186803b158015611c2257600080fd5b505afa158015611c36573d6000803e3d6000fd5b505050506040513d6020811015611c4c57600080fd5b8101908080519060200190929190505050141515611d97578173ffffffffffffffffffffffffffffffffffffffff16600260009054906101000a900473ffffffffffffffffffffffffffffffffffffffff1673ffffffffffffffffffffffffffffffffffffffff166344a39b87846040518263ffffffff167c0100000000000000000000000000000000000000000000000000000000028152600401808273ffffffffffffffffffffffffffffffffffffffff1673ffffffffffffffffffffffffffffffffffffffff16815260200191505060206040518083038186803b158015611d3657600080fd5b505afa158015611d4a573d6000803e3d6000fd5b505050506040513d6020811015611d6057600080fd5b810190808051906020019092919050505073ffffffffffffffffffffffffffffffffffffffff161415611d965760019050611da5565b5b60009050611da5565b600090505b91905056fea165627a7a7230582069533fbad6cea7a742c5474e883975ac5906fd0f24ff4d4680411df92038bff30029",
  "source": "pragma solidity ^0.5.0;\n\n\nimport \"./CitizenStorage.sol\";\nimport \"./BusinessStorage.sol\";\nimport \"./Owned.sol\";\n\ncontract UserLogicV2 is Owned{\n    CitizenStorage citSto;\n    BusinessStorage busSto;\n    bool first = true;\n\n    constructor(address _citStoAddress, address _busStoAddress) public {\n        citSto = CitizenStorage(_citStoAddress);\n        busSto = BusinessStorage(_busStoAddress);\n    }\n\n    modifier firstReg(address _address) {\n        if(first == false) {\n            require(userIsRegistered(_address) != 0, \"User already registered\");\n        }\n        else {\n            first = false;\n        }\n        _;\n    }\n\n    function userIsRegistered(address _userAddress) public view returns (uint) {\n        if(_userAddress == owner) {\n            return 3;\n        }\n        if(busSto.getBusinessListLength() != 0) {\n            if (busSto.getAddressAt(_userAddress) == _userAddress) {\n                return 1;\n            }\n            if(citSto.getCitizenListLength() != 0) {\n                if(citSto.getAddressAt(_userAddress) == _userAddress) {\n                    return 2;\n                }\n            }\n            return 0;\n        }\n        if(citSto.getCitizenListLength() != 0) {\n            if(citSto.getAddressAt(_userAddress) == _userAddress) {\n                return 2;\n            }\n            if(busSto.getBusinessListLength() != 0) {\n                if (busSto.getAddressAt(_userAddress) == _userAddress) {\n                    return 1;\n                }\n            }\n            return 0;\n        }\n\n        return 0;\n    }\n\n    function registerCitizen(\n        bytes32 _email,\n        bytes32 _name,\n        bytes32 _surname,\n        bytes32 _devAddress\n    ) public firstReg(msg.sender) {\n        citSto.setEmail(msg.sender, _email);\n        citSto.setName(msg.sender, _name);\n        citSto.setSurname(msg.sender, _surname);\n        citSto.setDeliveryAddress(msg.sender, _devAddress);\n        citSto.setActive(msg.sender, true);\n        citSto.setIndex(msg.sender, citSto.pushToCitizenList(msg.sender));\n    }\n\n    function registerBusiness(\n        bytes32 _email,\n        bytes32 _name,\n        bytes32 _vatNumber,\n        bytes32 _devAddress\n    ) public firstReg(msg.sender) {\n        busSto.setEmail(msg.sender, _email);\n        busSto.setName(msg.sender, _name);\n        busSto.setVATNumber(msg.sender, _vatNumber);\n        busSto.setDeliveryAddress(msg.sender, _devAddress);\n        busSto.setActive(msg.sender, true);\n        busSto.setIndex(msg.sender, busSto.pushToBusinessList(msg.sender));\n    }\n\n    function setActiveCit(address _citAdd, bool _active) public {\n        citSto.setActive(_citAdd, _active);\n    }\n\n    function getActiveCit(address _citAdd) public view returns (bool) {\n        return citSto.getActive(_citAdd);\n    }\n\n    function setNameCit(address _citAdd, bytes32 _name) public {\n        citSto.setName(_citAdd, _name);\n    }\n}\n",
  "sourcePath": "/home/bolzo/SWE/Soldino-PoC/contracts/UserLogicV2.sol",
  "compiler": {
    "name": "solc",
    "version": "0.5.0+commit.1d4f565a.Emscripten.clang"
  },
  "schemaVersion": "3.0.1",
  "updatedAt": "2019-03-22T11:13:42.202Z",
  "devdoc": {
    "methods": {}
  },
  "userdoc": {
    "methods": {}
  }
}