{
  "contractName": "UserLogic",
  "abi": [
    {
      "constant": true,
      "inputs": [
        {
          "name": "_userAddress",
          "type": "address"
        }
      ],
      "name": "getSurname",
      "outputs": [
        {
          "name": "",
          "type": "bytes32"
        }
      ],
      "payable": false,
      "stateMutability": "view",
      "type": "function",
      "signature": "0x0ead22b2"
    },
    {
      "constant": true,
      "inputs": [
        {
          "name": "_userAddress",
          "type": "address"
        }
      ],
      "name": "getEmail",
      "outputs": [
        {
          "name": "",
          "type": "bytes32"
        }
      ],
      "payable": false,
      "stateMutability": "view",
      "type": "function",
      "signature": "0x4fa7353c"
    },
    {
      "constant": true,
      "inputs": [
        {
          "name": "_userAddress",
          "type": "address"
        }
      ],
      "name": "getName",
      "outputs": [
        {
          "name": "",
          "type": "bytes32"
        }
      ],
      "payable": false,
      "stateMutability": "view",
      "type": "function",
      "signature": "0x5fd4b08a"
    },
    {
      "constant": true,
      "inputs": [],
      "name": "owner",
      "outputs": [
        {
          "name": "",
          "type": "address"
        }
      ],
      "payable": false,
      "stateMutability": "view",
      "type": "function",
      "signature": "0x8da5cb5b"
    },
    {
      "constant": true,
      "inputs": [
        {
          "name": "_userAddress",
          "type": "address"
        }
      ],
      "name": "getActive",
      "outputs": [
        {
          "name": "",
          "type": "bool"
        }
      ],
      "payable": false,
      "stateMutability": "view",
      "type": "function",
      "signature": "0xdaea3e3a"
    },
    {
      "constant": true,
      "inputs": [
        {
          "name": "_userAddress",
          "type": "address"
        }
      ],
      "name": "getDeliveryAddressaddress",
      "outputs": [
        {
          "name": "",
          "type": "bytes32"
        }
      ],
      "payable": false,
      "stateMutability": "view",
      "type": "function",
      "signature": "0xe5252e75"
    },
    {
      "constant": false,
      "inputs": [
        {
          "name": "newOwner",
          "type": "address"
        }
      ],
      "name": "transferOwnership",
      "outputs": [],
      "payable": false,
      "stateMutability": "nonpayable",
      "type": "function",
      "signature": "0xf2fde38b"
    },
    {
      "constant": true,
      "inputs": [
        {
          "name": "_userAddress",
          "type": "address"
        }
      ],
      "name": "userIsRegistered",
      "outputs": [
        {
          "name": "",
          "type": "uint256"
        }
      ],
      "payable": false,
      "stateMutability": "view",
      "type": "function",
      "signature": "0xf6f19715"
    },
    {
      "constant": false,
      "inputs": [
        {
          "name": "_email",
          "type": "bytes32"
        },
        {
          "name": "_name",
          "type": "bytes32"
        },
        {
          "name": "_surname",
          "type": "bytes32"
        },
        {
          "name": "_devAddress",
          "type": "bytes32"
        }
      ],
      "name": "registerCitizen",
      "outputs": [],
      "payable": false,
      "stateMutability": "nonpayable",
      "type": "function",
      "signature": "0xf3431235"
    },
    {
      "constant": false,
      "inputs": [
        {
          "name": "_email",
          "type": "bytes32"
        },
        {
          "name": "_name",
          "type": "bytes32"
        },
        {
          "name": "_vatNumber",
          "type": "bytes32"
        },
        {
          "name": "_devAddress",
          "type": "bytes32"
        }
      ],
      "name": "registerBusiness",
      "outputs": [],
      "payable": false,
      "stateMutability": "nonpayable",
      "type": "function",
      "signature": "0x752c47b4"
    },
    {
      "constant": false,
      "inputs": [
        {
          "name": "_citAdd",
          "type": "address"
        },
        {
          "name": "_active",
          "type": "bool"
        }
      ],
      "name": "setActiveCit",
      "outputs": [],
      "payable": false,
      "stateMutability": "nonpayable",
      "type": "function",
      "signature": "0x90168d77"
    },
    {
      "constant": true,
      "inputs": [
        {
          "name": "_citAdd",
          "type": "address"
        }
      ],
      "name": "getActiveCit",
      "outputs": [
        {
          "name": "",
          "type": "bool"
        }
      ],
      "payable": false,
      "stateMutability": "view",
      "type": "function",
      "signature": "0x69532288"
    }
  ],
  "bytecode": "0x60806040526001600460146101000a81548160ff02191690831515021790555033600460006101000a81548173ffffffffffffffffffffffffffffffffffffffff021916908373ffffffffffffffffffffffffffffffffffffffff16021790555061125c8061006f6000396000f3fe6080604052600436106100ba576000357c0100000000000000000000000000000000000000000000000000000000900463ffffffff1680630ead22b2146100bf5780634fa7353c146101245780635fd4b08a1461018957806369532288146101ee578063752c47b4146102575780638da5cb5b146102b057806390168d7714610307578063daea3e3a14610364578063e5252e75146103cd578063f2fde38b14610432578063f343123514610483578063f6f19715146104dc575b600080fd5b3480156100cb57600080fd5b5061010e600480360360208110156100e257600080fd5b81019080803573ffffffffffffffffffffffffffffffffffffffff169060200190929190505050610541565b6040518082815260200191505060405180910390f35b34801561013057600080fd5b506101736004803603602081101561014757600080fd5b81019080803573ffffffffffffffffffffffffffffffffffffffff16906020019092919050505061058d565b6040518082815260200191505060405180910390f35b34801561019557600080fd5b506101d8600480360360208110156101ac57600080fd5b81019080803573ffffffffffffffffffffffffffffffffffffffff1690602001909291905050506105d9565b6040518082815260200191505060405180910390f35b3480156101fa57600080fd5b5061023d6004803603602081101561021157600080fd5b81019080803573ffffffffffffffffffffffffffffffffffffffff169060200190929190505050610625565b604051808215151515815260200191505060405180910390f35b34801561026357600080fd5b506102ae6004803603608081101561027a57600080fd5b8101908080359060200190929190803590602001909291908035906020019092919080359060200190929190505050610637565b005b3480156102bc57600080fd5b506102c56107a1565b604051808273ffffffffffffffffffffffffffffffffffffffff1673ffffffffffffffffffffffffffffffffffffffff16815260200191505060405180910390f35b34801561031357600080fd5b506103626004803603604081101561032a57600080fd5b81019080803573ffffffffffffffffffffffffffffffffffffffff1690602001909291908035151590602001909291905050506107c7565b005b34801561037057600080fd5b506103b36004803603602081101561038757600080fd5b81019080803573ffffffffffffffffffffffffffffffffffffffff1690602001909291905050506107d5565b604051808215151515815260200191505060405180910390f35b3480156103d957600080fd5b5061041c600480360360208110156103f057600080fd5b81019080803573ffffffffffffffffffffffffffffffffffffffff16906020019092919050505061082e565b6040518082815260200191505060405180910390f35b34801561043e57600080fd5b506104816004803603602081101561045557600080fd5b81019080803573ffffffffffffffffffffffffffffffffffffffff16906020019092919050505061087a565b005b34801561048f57600080fd5b506104da600480360360808110156104a657600080fd5b8101908080359060200190929190803590602001909291908035906020019092919080359060200190929190505050610983565b005b3480156104e857600080fd5b5061052b600480360360208110156104ff57600080fd5b81019080803573ffffffffffffffffffffffffffffffffffffffff169060200190929190505050610aed565b6040518082815260200191505060405180910390f35b6000600360008373ffffffffffffffffffffffffffffffffffffffff1673ffffffffffffffffffffffffffffffffffffffff168152602001908152602001600020600301549050919050565b6000600360008373ffffffffffffffffffffffffffffffffffffffff1673ffffffffffffffffffffffffffffffffffffffff168152602001908152602001600020600001549050919050565b6000600360008373ffffffffffffffffffffffffffffffffffffffff1673ffffffffffffffffffffffffffffffffffffffff168152602001908152602001600020600201549050919050565b6000610630826107d5565b9050919050565b3360001515600460149054906101000a900460ff16151514156106da57600061065f82610aed565b141515156106d5576040517f08c379a00000000000000000000000000000000000000000000000000000000081526004018080602001828103825260178152602001807f5573657220616c7265616479207265676973746572656400000000000000000081525060200191505060405180910390fd5b6106f6565b6000600460146101000a81548160ff0219169083151502179055505b6107003386610e86565b61070a3385610ed1565b6107143384610f1c565b61071e3383610f67565b610729336001610fb2565b61079a33600160003390806001815401808255809150509060018203906000526020600020016000909192909190916101000a81548173ffffffffffffffffffffffffffffffffffffffff021916908373ffffffffffffffffffffffffffffffffffffffff16021790555003611010565b5050505050565b600460009054906101000a900473ffffffffffffffffffffffffffffffffffffffff1681565b6107d1828261105b565b5050565b6000600360008373ffffffffffffffffffffffffffffffffffffffff1673ffffffffffffffffffffffffffffffffffffffff16815260200190815260200160002060040160009054906101000a900460ff169050919050565b6000600360008373ffffffffffffffffffffffffffffffffffffffff1673ffffffffffffffffffffffffffffffffffffffff168152602001908152602001600020600101549050919050565b600460009054906101000a900473ffffffffffffffffffffffffffffffffffffffff1673ffffffffffffffffffffffffffffffffffffffff163373ffffffffffffffffffffffffffffffffffffffff1614151561093f576040517f08c379a00000000000000000000000000000000000000000000000000000000081526004018080602001828103825260118152602001807f5065726d697373696f6e2064656e69656400000000000000000000000000000081525060200191505060405180910390fd5b80600460006101000a81548173ffffffffffffffffffffffffffffffffffffffff021916908373ffffffffffffffffffffffffffffffffffffffff16021790555050565b3360001515600460149054906101000a900460ff1615151415610a265760006109ab82610aed565b14151515610a21576040517f08c379a00000000000000000000000000000000000000000000000000000000081526004018080602001828103825260178152602001807f5573657220616c7265616479207265676973746572656400000000000000000081525060200191505060405180910390fd5b610a42565b6000600460146101000a81548160ff0219169083151502179055505b610a4c33866110b9565b610a563385611104565b610a60338461114f565b610a6a338361119a565b610a7533600161105b565b610ae633600160023390806001815401808255809150509060018203906000526020600020016000909192909190916101000a81548173ffffffffffffffffffffffffffffffffffffffff021916908373ffffffffffffffffffffffffffffffffffffffff160217905550036111e5565b5050505050565b6000600460009054906101000a900473ffffffffffffffffffffffffffffffffffffffff1673ffffffffffffffffffffffffffffffffffffffff168273ffffffffffffffffffffffffffffffffffffffff161415610b4e5760039050610e81565b60008080549050141515610ce5578173ffffffffffffffffffffffffffffffffffffffff166000600160008573ffffffffffffffffffffffffffffffffffffffff1673ffffffffffffffffffffffffffffffffffffffff16815260200190815260200160002060050154815481101515610bc457fe5b9060005260206000200160009054906101000a900473ffffffffffffffffffffffffffffffffffffffff1673ffffffffffffffffffffffffffffffffffffffff161415610c145760019050610e81565b6000600280549050141515610cdc578173ffffffffffffffffffffffffffffffffffffffff166002600360008573ffffffffffffffffffffffffffffffffffffffff1673ffffffffffffffffffffffffffffffffffffffff16815260200190815260200160002060050154815481101515610c8b57fe5b9060005260206000200160009054906101000a900473ffffffffffffffffffffffffffffffffffffffff1673ffffffffffffffffffffffffffffffffffffffff161415610cdb5760029050610e81565b5b60009050610e81565b6000600280549050141515610e7c578173ffffffffffffffffffffffffffffffffffffffff166002600360008573ffffffffffffffffffffffffffffffffffffffff1673ffffffffffffffffffffffffffffffffffffffff16815260200190815260200160002060050154815481101515610d5c57fe5b9060005260206000200160009054906101000a900473ffffffffffffffffffffffffffffffffffffffff1673ffffffffffffffffffffffffffffffffffffffff161415610dac5760029050610e81565b60008080549050141515610e73578173ffffffffffffffffffffffffffffffffffffffff166000600160008573ffffffffffffffffffffffffffffffffffffffff1673ffffffffffffffffffffffffffffffffffffffff16815260200190815260200160002060050154815481101515610e2257fe5b9060005260206000200160009054906101000a900473ffffffffffffffffffffffffffffffffffffffff1673ffffffffffffffffffffffffffffffffffffffff161415610e725760019050610e81565b5b60009050610e81565b600090505b919050565b80600160008473ffffffffffffffffffffffffffffffffffffffff1673ffffffffffffffffffffffffffffffffffffffff168152602001908152602001600020600001819055505050565b80600160008473ffffffffffffffffffffffffffffffffffffffff1673ffffffffffffffffffffffffffffffffffffffff168152602001908152602001600020600201819055505050565b80600160008473ffffffffffffffffffffffffffffffffffffffff1673ffffffffffffffffffffffffffffffffffffffff168152602001908152602001600020600301819055505050565b80600160008473ffffffffffffffffffffffffffffffffffffffff1673ffffffffffffffffffffffffffffffffffffffff168152602001908152602001600020600101819055505050565b80600160008473ffffffffffffffffffffffffffffffffffffffff1673ffffffffffffffffffffffffffffffffffffffff16815260200190815260200160002060040160006101000a81548160ff0219169083151502179055505050565b80600160008473ffffffffffffffffffffffffffffffffffffffff1673ffffffffffffffffffffffffffffffffffffffff168152602001908152602001600020600501819055505050565b80600360008473ffffffffffffffffffffffffffffffffffffffff1673ffffffffffffffffffffffffffffffffffffffff16815260200190815260200160002060040160006101000a81548160ff0219169083151502179055505050565b80600360008473ffffffffffffffffffffffffffffffffffffffff1673ffffffffffffffffffffffffffffffffffffffff168152602001908152602001600020600001819055505050565b80600360008473ffffffffffffffffffffffffffffffffffffffff1673ffffffffffffffffffffffffffffffffffffffff168152602001908152602001600020600201819055505050565b80600360008473ffffffffffffffffffffffffffffffffffffffff1673ffffffffffffffffffffffffffffffffffffffff168152602001908152602001600020600301819055505050565b80600360008473ffffffffffffffffffffffffffffffffffffffff1673ffffffffffffffffffffffffffffffffffffffff168152602001908152602001600020600101819055505050565b80600360008473ffffffffffffffffffffffffffffffffffffffff1673ffffffffffffffffffffffffffffffffffffffff16815260200190815260200160002060050181905550505056fea165627a7a7230582009c578b2f6f799a40832d0ae69d0debf1a579ed21238039b883af87cde9c27740029",
  "source": "pragma solidity ^0.5.0;\n\nimport \"./storage/BusinessStorage.sol\";\nimport \"./storage/CitizenStorage.sol\";\nimport \"./Owned.sol\";\n\n/**\n  * Created: 2019-03-13\n  * @author Mattia\n  * @title User logic contract\n  * @dev This contract manage the logic of the user storage\n  */\ncontract UserLogic is BusinessStorage, CitizenStorage, Owned {\n    bool first = true;\n\n    modifier firstReg(address _address) {\n        if(first == false) {\n            require(userIsRegistered(_address) != 0, \"User already registered\");\n        }\n        else {\n            first = false;\n        }\n        _;\n    }\n\n    function userIsRegistered(address _userAddress) public view returns (uint) {\n        if(_userAddress == owner) {\n            return 3;\n        }\n        if(businessList.length != 0) {\n            if (businessList[addressToBusiness[_userAddress].index] == _userAddress) {\n                return 1;\n            }\n            if(citizenList.length != 0) {\n                if(citizenList[addressToCitizen[_userAddress].index] == _userAddress) {\n                    return 2;\n                }\n            }\n            return 0;\n        }\n        if(citizenList.length != 0) {\n            if(citizenList[addressToCitizen[_userAddress].index] == _userAddress) {\n                return 2;\n            }\n            if(businessList.length != 0) {\n                if (businessList[addressToBusiness[_userAddress].index] == _userAddress) {\n                    return 1;\n                }\n            }\n            return 0;\n        }\n\n        return 0;\n    }\n\n    function registerCitizen(\n        bytes32 _email,\n        bytes32 _name,\n        bytes32 _surname,\n        bytes32 _devAddress\n    ) public firstReg(msg.sender) {\n        CitizenStorage.setEmail(msg.sender, _email);\n        CitizenStorage.setName(msg.sender, _name);\n        CitizenStorage.setSurname(msg.sender, _surname);\n        CitizenStorage.setDeliveryAddress(msg.sender, _devAddress);\n        CitizenStorage.setActive(msg.sender, true);\n        CitizenStorage.setIndex(msg.sender, citizenList.push(msg.sender) - 1);\n    }\n\n    function registerBusiness(\n        bytes32 _email,\n        bytes32 _name,\n        bytes32 _vatNumber,\n        bytes32 _devAddress\n    ) public firstReg(msg.sender) {\n        BusinessStorage.setEmail(msg.sender, _email);\n        BusinessStorage.setName(msg.sender, _name);\n        BusinessStorage.setVATNumber(msg.sender, _vatNumber);\n        BusinessStorage.setDeliveryAddress(msg.sender, _devAddress);\n        BusinessStorage.setActive(msg.sender, true);\n        BusinessStorage.setIndex(msg.sender, businessList.push(msg.sender) - 1);\n    }\n\n    function setActiveCit(address _citAdd, bool _active) public {\n        CitizenStorage.setActive(_citAdd, _active);\n    }\n\n    function getActiveCit(address _citAdd) public view returns (bool) {\n        return CitizenStorage.getActive(_citAdd);\n    }\n\n}\n",
  "sourcePath": "/home/bolzo/SWE/Soldino-PoC/contracts/UserLogic.sol",
  "compiler": {
    "name": "solc",
    "version": "0.5.0+commit.1d4f565a.Emscripten.clang"
  },
  "schemaVersion": "3.0.1",
  "updatedAt": "2019-03-21T11:39:15.068Z",
  "devdoc": {
    "author": "Mattia",
    "details": "This contract manage the logic of the user storage",
    "methods": {},
    "title": "User logic contract"
  },
  "userdoc": {
    "methods": {},
    "notice": "Created: 2019-03-13"
  }
}